:020000040800F2
:10000000C006002001010008CF2A0008FF200008D8
:10001000CD2A0008BF0A0008D930000800000000FF
:10002000000000000000000000000000C72C0008D5
:10003000C10A000800000000C52C0008C92C0008F7
:100040001B0100081B0100081B0100081B01000820
:100050001B0100081B0100081B0100081B01000810
:100060001B0100081B0100081B0100081B01000800
:100070001B0100081B0100081B0100081B010008F0
:100080001B0100081B0100081B0100081B010008E0
:100090001B0100081B0100081B0100081B010008D0
:1000A0001B0100082D2D00081B0100081B01000882
:1000B0001B0100081B0100081B0100081B010008B0
:1000C0001B0100081B0100081B0100081B010008A0
:1000D0001B0100081B0100081B0100081B01000890
:1000E0001B0100081B0100081B010008DFF80CD0F1
:1000F00000F082FC004800471D500008C0060020A8
:100100000648804706480047FEE7FEE7FEE7FEE7B1
:10011000FEE7FEE7FEE7FEE7FEE7FEE72B2D000821
:10012000ED0000082DE9F0410024061B254671F181
:10013000000605DA01240027D0EB070067EB010178
:10014000161E73F1000605DA0027D2EB070201251F
:1001500067EB030300F022FB86460E4617469C46DB
:10016000AC4204D00025D0EB050E65EB010624B1AE
:100170000020D2EB000760EB030C704631463A4694
:100180006346BDE8F081202A04DB203A21FA02F020
:100190000021704721FA02F3D040C2F120029140C1
:1001A000084319467047D2B201E000F8012B491EFE
:1001B000FBD270470022F6E710B513460A46044604
:1001C0001946FFF7F0FF204610BD30B50446002069
:1001D000034600E05B1C934203D2E05CCD5C401B15
:1001E000F8D030BDF0B480EA0102D40F4200B2EB87
:1001F000410F02D20246084611464A0042D0C30DC2
:10020000DDB2C1F3C752AD1A202D35DAC1F31601A4
:1002100041F4000204B15242C5F1200602FA06F18F
:100220002A411044B3EBD05F23D0C4B1012DA0EB21
:10023000C35009DCF0BC4FF0004202EAC352DBB20B
:1002400000F5000000F005BB400000F1807000EBFD
:10025000C350A0F1807040EAD170490009E049081C
:1002600041EAC071A0EBC35000F50000400800EB6C
:10027000C350F0BC00F0E4BA6142012202EB41013C
:10028000001BF6E7F0BC704781F00041AAE780F060
:100290000040A7E780EA010210B502F000434000E9
:1002A00022D04A001FD0010E01EB1261C0F35600AC
:1002B000C2F3560240F4000042F40002A0FB022008
:1002C00000047F39140400D0401C50EA124001D4CD
:1002D0004000491EC2B20C0604EBD010401C40087E
:1002E000802A02D003E0002010BD20F00100002988
:1002F00000DA0020184310BD30B480EA010202F099
:10030000004530F0004221F0004013D090B1C30D01
:10031000D40DC2F31601C0F31600E41A41F4000133
:1003200040F400027D34914201D3641C00E0490096
:10033000002C02DA30BC002070474FF4000000238C
:10034000914201D3891A034340084FEA4101F7D192
:1003500051B1914202D14FF0004105E002D24FF07D
:10036000010101E06FF0010103EBC450284430BCEF
:1003700000F066BA420005D0C0F3C7525242914223
:1003800001DC0020704700EBC15070472DE9FE4FA3
:10039000804681EA0300C00F0C46009021F0004126
:1003A00023F00045B8EB0200A94105D240462146A2
:1003B00090461C460B46024623F00040104347D0AF
:1003C000270DC7F30A00C3F30A510290401A0190A7
:1003D00040286BDAC3F3130040F4801B0098924668
:1003E00020B10023D2EB030A63EB0B0B01985946B3
:1003F000C0F14002504600F002FA06460D46504653
:100400005946019A00F00AFA10EB080061410024F5
:1004100087EA115284EAE7731A4340D0009A62B324
:10042000019A012A4FEA075215DC001B61EB020119
:100430004FF0004202EA0752CDE90042001C41F5AC
:10044000801132462B4600F041FA03B0BDE8F08F30
:1004500040462146F9E7001B61EB0201001C41F513
:10046000801300185B412018A2F5001747EB030129
:1004700040EAD570B6196D4111E06D084FEA3606B5
:1004800045EAC0754FEA0752001B61EB0201001CF0
:1004900041F5801149084FEA3000001951413246B8
:1004A0002B4603B0BDE8F04F00F001BA00980122DE
:1004B00040000023D0EB020263EBE073009821467A
:1004C0004FEAE074B8EB000061EB0401E9E783F068
:1004D00000435BE781F0004158E72DE9FE4F81EAD8
:1004E000030404F0004421F0004100944FF0000B9D
:1004F00023F0004350EA01045ED052EA03045BD0CB
:10050000C3F30A54C1F30A552C44A4F2F334019402
:10051000A0FB0254C1F3130141F48011C3F3130390
:1005200043F4801301FB024400FB034E840A970A44
:1005300044EA815447EA8357A4FB076802958D0A71
:1005400005FB07854FEA932C04FB0C542705029DFD
:100550004FEA065847EA1637B5EB08056EEB070C6D
:10056000870E920E47EA811742EA8312A7FB020127
:10057000B6EB0B0164EB00042B0D43EA0C335E1861
:1005800044EB1C50DA465146E7FB0201C5F3130465
:100590004FEA0B3343EA14534FEA0432019C43EA17
:1005A0000603A4F10C040294009CCDE900B400F011
:1005B0008DF903B0BDE8F08F00200146F9E72DE981
:1005C000F04D81EA030404F0004B21F0004514468D
:1005D0004FF0000A23F0004150EA050220D054EA0F
:1005E00001021DD0C5F30A570246C5F31303C1F338
:1005F0001300C1F30A5640F4801543F48013A7EBAF
:100600000608101BD64608F2FD3873EB050002D32E
:1006100008F1010801E092185B41B8F1000F03DA1C
:1006200000200146BDE8F08D00204FF48011064601
:1006300084460EE0171B73EB050705D3121B63EB13
:10064000050306434CEA010C49084FEA30009218B2
:100650005B4150EA0107EDD152EA030012D082EA71
:10066000040083EA0501084305D0101BAB4106D204
:100670000122002306E000224FF0004302E06FF069
:10068000010253101AEB06004CEB085110EB0A0064
:1006900041EB0B01BDE8F04D00F009B9C10F80EA54
:1006A000E0700844CA079623002100F0D2B89623D0
:1006B0000022114600F0CDB800F0004220F00040CA
:1006C000C10DC0F3160040F400007F2901DA0020BC
:1006D0007047962903DCC1F19601C84001E09639C4
:1006E0008840002AF4D04042704720F00040C10DFD
:1006F000C0F3160040F400007F2901DA00207047A3
:10070000962903DCC1F19601C840704796398840AC
:10071000704700F0004230F000400AD0C10D01F5F2
:100720006071C0F3160042EA0151C208400711434C
:10073000704700200146704701F0004330B421F0BB
:10074000004150EA010206D00A0DA2F56072C1F321
:100750001301002A02DC30BC00207047440F44EA39
:10076000C104C100E01830BC00EBC25000F068B812
:1007700030B50B46014600202022012409E021FA71
:1007800002F59D4205D303FA02F5491B04FA02F56E
:100790002844151EA2F10102F1DC30BD2DE9F05F05
:1007A0000546002092469B468846064681464024E0
:1007B0001BE02846414647462246FFF7E4FC5346E5
:1007C0005A46C01A914110D311461846224600F0ED
:1007D00016F82D1A67EB01084F462246012000212A
:1007E00000F00DF817EB00094E41201EA4F10104A2
:1007F000DFDC484631462A464346BDE8F09F202AC2
:1008000004DB203A00FA02F1002070479140C2F167
:10081000200320FA03F3194390407047202A06DB97
:10082000CB17203A41FA02F043EAE07306E041FABE
:1008300002F3D040C2F120029140084319467047AC
:100840000029A8BF7047401C490008BF20F00100E4
:10085000704710B4B0FA80FC00FA0CF050EA0104C2
:1008600004BF10BC704749B1CCF1200421FA04F454
:1008700011FA0CF118BF012121430843A3EB0C012D
:10088000CB1D4FEA00614FEA102042BF002010BC90
:10089000704700EBC35010440029A4BF10BC704740
:1008A000401C490008BF20F0010010BC704710B583
:1008B000141E73F1000408DA401C41F10001921883
:1008C0005B411A4301D120F0010010BD2DE9F04D2C
:1008D00092469B4611B1B1FA81F202E0B0FA80F281
:1008E00020329046FFF78BFF04460F4640EA0A008D
:1008F00041EA0B0153465A46084313D0114653EAC6
:10090000010019D0C8F140025046FFF73CFC0546F3
:100910000E46504659464246FFF771FF084305D040
:10092000012004E020463946BDE8F08D0020054353
:1009300046EAE0762C4337430A986305E40AA0EBC5
:1009400008000022FD0A44EA47540A3002D500207C
:100950000146E9E7010510196941DDE9084500197B
:100960006941BDE8F04DA2E770B521F000430343B3
:100970000CD0C1F30A550024D5EB040564EB040345
:10098000D617AD1AB34102DB0020014670BD201816
:1009900041EB025170BDC1F30A52C1F3130140F2A1
:1009A000FF3341F480119A4202DA00200146704779
:1009B00040F233439A42A2F2334202DC5242FFF742
:1009C000E2BBFFF71CBF000030B5041E71F100044C
:1009D00004DB4FF00044404264EB0101141E73F14C
:1009E000000405DB1C464FF00043524263EB040356
:1009F000994208BF904230BD064C074D06E0E068C2
:100A000040F0010394E8070098471034AC42F6D355
:100A1000FFF770FB20780008407800082DE9F04DC2
:100A200000231A461B1A8A4103DB00200146BDE859
:100A3000F08DC1F30A52C1F3130141F480154FF058
:100A4000000BD10702D100186D41521E0027044649
:100A500040F2FF11384601EB620A3E4680460246EC
:100A600000204FF48011FFF78EFBC2197141BB18B3
:100A700046EB0100B4EB030C75EB000C04D3E41A55
:100A800065EB000517460E46241908F101006D417B
:100A900080463428E3DDF91946EB0600091BA8411E
:100AA00003D24FF0FF32134601E0002213461BEB46
:100AB000070046EB0A51BDE8F04DFFF7F8BEFEE730
:100AC000704772B6FEE7000070B5044600F008F902
:100AD0000546601C02D004480078044400F000F988
:100AE000401BA042FAD370BD6C0000202DE9F84FE6
:100AF000DFF8B891002409F1040A0AF1040B234637
:100B00000F270BF1040EC9E00125A5402A40AA4297
:100B10007DD1674ED1F804C0ACEB0608B44532D0A5
:100B200014DCBCF1030F3AD009DCBCF1000F2AD071
:100B3000BCF1010F1CD0BCF1020F31D11DE0BCF1A2
:100B4000110F17D0BCF1120F2AD119E0B8F5881F88
:100B500019D006DCB8F5803F15D0B8F5801F1FD13D
:100B600011E0B8F5001F0ED0B8F5041F18D10AE047
:100B7000CB6815E0CB681B1D12E0CB6808330FE093
:100B8000CB680C330CE08B682BB1012B4FF00803C2
:100B900003D0456104E0042302E0056100E0002386
:100BA000FF2A01D8064601E000F104064FEA840559
:100BB00001D9A5F12005D6F8008007FA05FC28EA3E
:100BC0000C0803FA05F548EA0508C6F800804D68E8
:100BD000ED0062D5374DAE6946F00106AE61AD69F4
:100BE00024F0030605F001050095334D06EB050CD6
:100BF000DCF80850A607360F07FA06F825EA0805BC
:100C0000DFF8B880404503D14FF0000817E044E01A
:100C1000DFF8AC80404502D14FF001080FE0DFF86B
:100C2000A480404502D14FF0020808E0DFF8988028
:100C3000404502D14FF0030801E04FF0040808FAE4
:100C400006F848EA0508CCF808804D68D9F8006035
:100C5000ED034D4601D5164300E096432E604D68E6
:100C6000DAF80060AD03554601D5164300E096431F
:100C70002E604D68DBF80060ED025D4601D516433D
:100C800000E096432E604D68DEF80060AD027546C8
:100C900001D5164300E096432E60641C0D682A4679
:100CA000E5407FF431AFBDE8F88F0000000401405B
:100CB0000000111000100240000001400008014037
:100CC000000C014000100140001401408068084001
:100CD00000D0012070470AB1016170470904FBE7A9
:100CE00001488068704700006C00002070B5040067
:100CF00025D094F83D00002520B984F83C502046CA
:100D000000F078FA242084F83D002068016821F082
:100D1000010101602068016841F400410160206820
:100D2000016821F40041016000F0DEFB4D4A61687A
:100D3000914201D84C4900E04C49884201D201203F
:100D400070BD4B492368B0FBF1F15E6826F03F06A9
:100D50000E435E606368934206D94FF4967359431D
:100D60004FF47A73B1FBF3F12368491C1E6A26F035
:100D70003F06314319626168914210D84900401E14
:100D8000B0FBF1F2521CC2F30B02042A01D2042080
:100D900022E0B0FBF1F0401CC0F30B001CE0A268A5
:100DA000F2B301EBC10303EB0116431EB3FBF6F3F1
:100DB0005B1C43F480431B0549D092B301EBC10295
:100DC00002EB0111401EB0FBF1F0401CC0F30B0020
:100DD00040F4804040F400402168CA694CF6FF733B
:100DE0009A431043C861D4E90710014320680268A0
:100DF00022F0C00211430160D4E9030101432068DD
:100E0000826848F2FF339A4311438160D4E90501B7
:100E100008432168CA6822F0FF021043C86001E05D
:100E20000EE016E02068016841F0010101602564D0
:100E3000202084F83D00256384F83E50002070BDDA
:100E400001EB4106431EB3FBF6F35B1CB3E7012045
:100E5000C2E701EB4101401EB0FBF1F0401CC0F3C2
:100E60000B00B7E7A086010080841E0000093D004A
:100E700040420F002DE9FF4F83B00025DDE91079D6
:100E80009A4693460446DDF848800095FFF728FF10
:100E9000064694F83D0020287CD11923012285497B
:100EA0002046009601F03CFA0028F5D194F83C0069
:100EB00001286FD0012084F83C0020680168C90730
:100EC00003D1016841F0010101602068016821F44B
:100ED00000610160222084F83D00402084F83E003B
:100EE00025646762A4F82A90608D20857248E062CC
:100EF000CDE9008653465A462046049901F018F978
:100F000000287DD1208DDFF8B491202768B1012819
:100F100014D00228206801681ED041F4806101606D
:100F20002068416980690090B6E020684169816964
:100F30000091016841F400710160ADE02068016832
:100F400021F48061016072B6206841698169009175
:100F5000016841F400710AE041F40061016072B679
:100F60002068416981690091016821F48061016014
:100F700062B691E0032868D801280CD002284346C5
:100F80004FF000024946204600960FD001F0C8F904
:100F9000B0BB10E08BE032464146204601F03FFAFC
:100FA00070BB20680069616A08706CE001F0B8F9F4
:100FB00030BB72B634E02068016821F480610160C2
:100FC00072B620680069616A0870606A401C6062DD
:100FD000208D401E2085608D401E6085384846F279
:100FE000A8110068B0FBF1F0C0EBC00000EB80007E
:100FF0000090401E009008D020684069C04300E087
:1010000029E040070CD50098F3E744F8305F677398
:10101000A573206940F02000206162B625731AE0B4
:101020002068016841F40071016020680069616A0C
:101030000870606A401C6062218D491E2185618DA7
:10104000491E618562B621681BE032464146204652
:1010500001F0E5F918B1012007B0BDE8F08F206874
:101060000069616A0870606A401C6062218D491ED7
:101070002185618D491E618521684A69D2435207E5
:101080000AD409690170606A401C6062208D401EAC
:101090002085608D401E6085208D00287FF46AAF1A
:1010A00084F83D7084F83E5084F83C50D4E7022028
:1010B000D2E70000020010000000FFFF0400010062
:1010C000780000202DE9FF4F83B09A46DDE91197A3
:1010D00093460446DDF84080FFF702FE054694F88B
:1010E0003D0020287FD11923012240492046009548
:1010F00001F016F9002876D194F83C00012872D04E
:10110000012084F83C0020680168C90703D1016808
:1011100041F0010101602068016821F40061016073
:10112000212084F83D00402084F83E0000262664FB
:10113000C4F82480A4F82A90608D20852C48E062B1
:10114000CDE9007553465A462046049901F06EF8E1
:1011500070B930E02A463946204601F093F958B17B
:10116000206C042804D12068016841F400710160FA
:10117000012007B0BDE8F08F606A2168007808613F
:10118000606A401C6062218D491E89B22185628D92
:10119000521E628522685369DB435B070BD469B139
:1011A00000781061606A401C6062208D401E2085BE
:1011B000608D401E6085208D0028CBD12A4639469F
:1011C000204601F087F80028CAD154F83D0B016889
:1011D00041F400710160202004F81E09E67766776B
:1011E0000020C6E7FFE70220C3E70000020010006E
:1011F0000000FFFF30B585B0002100910191029100
:1012000003911E4D03681E4C122103221D48AB4260
:1012100016D1A36943F00803A361A369039203F005
:1012200008030493C023CDE900316946FFF75EFC53
:10123000E06940F40010E061E06900F4001019E09A
:10124000114DAB4217D1A36943F00803A361A36911
:10125000039203F0080304934FF44063CDE9003197
:101260006946FFF743FCE06940F48000E061E06913
:1012700000F48000049005B030BD00000054004030
:1012800000100240000C01400058004002488168F4
:1012900002781144816070476C000020074810B547
:1012A000016841F010010160032000F075F80F2083
:1012B00000F006F800F024F8002010BD00200240E5
:1012C00070B50D4D04464FF47A712878B1FBF0F0FB
:1012D0000A490968B1FBF0F000F0ECFA48B9102CAB
:1012E00007D200222146501E00F036F800206C6024
:1012F00070BD012070BD00006C000020780000204F
:101300000C4808B5816941F001018161816901F0F2
:1013100001010091C16941F08051C161C06900F0D3
:10132000805000900448416821F0E06141F0007174
:10133000416008BD0010024000000140002809DBA8
:1013400000F01F02012191404009800000F1E020DF
:10135000C0F8001170470000F0B40E4B1B680C463B
:10136000C3F30223C3F10705042D00D90425191D79
:10137000072901D2002300E0DB1E012606FA05F151
:10138000491E214099409E40761E16403143F0BCD4
:1013900001F0ECBE0CED00E0064900F00702086821
:1013A0004FF6FF03184040EA0220034A104308604A
:1013B000704700000CED00E00000FA052DE9F04751
:1013C0000F46050061D0434E306800F00700B84278
:1013D00009D2306820F0070038433060306800F0F0
:1013E0000700B84251D128683B4C810712D540070D
:1013F00003D5606840F4E06060602878000703D59A
:10140000606840F4605060606068A96820F0F00097
:10141000084360602878C00728D06868012810D089
:101420002168022810D0890700292EDA616821F08E
:10143000030101436160FFF753FC804641F28839A4
:101440000DE021688903EFE78901EDE7FFF748FC2C
:10145000A0EB0801494502D90320BDE8F087606888
:10146000696800F00C00B0EB810FEFD1306800F03C
:101470000700B8420BD9306820F0070038433060CD
:10148000306800F00700B84201D00120E5E7287875
:10149000400705D56068E96820F4E06008436060B3
:1014A0002878000706D56068296920F4605040EA72
:1014B000C100606000F038F86168084AC1F30311A8
:1014C000515CC8400649086006480068FFF7F8FE0E
:1014D0000020C2E7002002400010024068620008BD
:1014E0007800002070000020044805490068496821
:1014F000044AC1F30221515CC840704778000020C3
:1015000000100240786200080448054900684968F4
:10151000044AC1F3C221515CC840704778000020E2
:10152000001002407862000812A185B00FC98DE852
:101530000F0014A0144A006804905168134801F089
:101540000C03042B10D0082B0ED1C1F38343C90325
:101550001DF803000AD5516804AAC1F34041515C4B
:101560000A4A5043B0FBF1F005B0704708494843C0
:10157000FAE7000002030405060708090A0B0C0D30
:101580000E0F1010010200000010024000127A003D
:1015900000093D002DE9F84F040070D02078C04DBF
:1015A000C00749D06868C0F38100012807D0686887
:1015B000C0F38100022809D16868C00306D52868F5
:1015C000800339D560680028E7D035E06068B0F561
:1015D000803F0BD010B1B0F5A02F11D0286820F4B7
:1015E00080302860286820F4802002E0286840F4D9
:1015F00080302860606890B1FFF772FB06460AE011
:10160000286840F480202860F0E700BFFFF768FBFF
:10161000801B642873D828688003F7D50CE0FFF797
:101620005FFB064605E000BFFFF75AFB801B6428FE
:10163000F0D828688003F7D420789A4E80074FF0BE
:1016400001094FF0000839D5686810F00C0F07D079
:101650006868C0F38100022809D16868C00306D415
:101660002868800714D52069012808D110E0206976
:10167000B0B1C6F80090FFF733FB074605E00AE17A
:10168000FFF72EFBC01B0228C4D828688007F7D5B7
:101690002868616920F0F80040EAC10028600DE088
:1016A000C6F80080FFF71CFB074604E0FFF718FBB5
:1016B000C01B022823D828688007F7D420780007A9
:1016C0002CD57948A169D9B1C0F80090FFF708FB83
:1016D000074604E0FFF704FBC01B02280FD8686A26
:1016E0008007F7D571484FF4FA510068B0FBF1F06C
:1016F000009000BF0098411E0091FAD20EE080E0F9
:10170000C0F80080FFF7ECFA074604E0FFF7E8FABC
:10171000C01B022875D8686A8007F7D42078400774
:1017200060D5E8690027C00008D4E86940F080501F
:10173000E861E869012700F0805000905C4801688A
:10174000C90513D40168834641F480710160FFF735
:10175000C7FA824606E000BFFFF7C2FAA0EB0A0014
:1017600064284ED8DBF80000C005F5D5E0680128F4
:101770000AD008B1052813D0286A20F00100286299
:10178000286A20F0040002E0286A40F00100286284
:10179000E06841F2883B98B1FFF7A2FA82460BE07D
:1017A000286A40F004002862EEE700BFFFF798FACD
:1017B000A0EB0A0159455AD8286A8007F6D50CE0F3
:1017C000FFF78EFA824605E0FFF78AFAA0EB0A01DE
:1017D00059454CD8286A8007F6D41FB1E86920F033
:1017E0008050E861E06988B36968C1F3810102292A
:1017F00044D00228C6F8608004D0FFF771FA04468E
:1018000038E034E0FFF76CFA074604E0FFF768FAC7
:10181000C01B02282BD828688001F7D4206AB0F5B5
:10182000803F05D16868A16820F4003008436860F3
:10183000D4E908010843696821F474110843686019
:10184000C6F86090FFF74CFA044606E025E000BFBA
:10185000FFF746FA001B022809D828688001F7D54F
:101860001BE000BFFFF73CFA001B022802D903204F
:10187000BDE8F88F28688001F4D40EE00128F7D085
:101880006868226A00F48031914204D1616A00F4F0
:101890007010884201D00120EAE70020E8E700004C
:1018A00000100240000042428004424278000020C2
:1018B0000070004010B5401EB0F1807F01D30120C0
:1018C00010BD4FF0E02460610F21601701F04EFC65
:1018D0000020A06107202061002010BD70477047E4
:1018E00070B590F83C20012A26D0012480F83C40B5
:1018F000022280F83D2003685A689D6822F0700635
:101900000A6832435A600D4B02689A4208D0B2F11D
:10191000804F05D00A4B9A4202D00A4B9A4204D11A
:10192000496825F080031943916080F83D4000210B
:1019300080F83C10084670BD022070BD002C0140AC
:10194000000400400008004010B5040003D094F8E3
:101950003D0010B107E0012010BD002084F83C00DC
:10196000204600F01FF8022084F83D00211D206869
:1019700001F0E2F9012084F8460084F83E0084F882
:101980003F0084F8400084F8410084F8420084F865
:10199000430084F8440084F8450084F83D000020AA
:1019A00010BD000008B5174A01681748914211D1CF
:1019B000816941F4006181618069002200F4006066
:1019C000009011461920FFF7C7FCBDE80840192018
:1019D000FFF7B4BCB1F1804F0BD00C4A914207D154
:1019E000C16941F00201C161C06900F002000090CC
:1019F00008BDC16941F00101C161C06900F0010089
:101A0000F5E70000002C01400010024000040040F7
:101A100090F83D10012901D001207047022180F883
:101A20003D100168CA6842F00102CA6000680B49B3
:101A3000884208D0B0F1804F05D00949884202D0D1
:101A40000849884204D1816801F00701062903D0C2
:101A5000016841F00101016000207047002C014045
:101A6000000400400008004070B5044690F83C00B7
:101A7000012817D0012584F83C50022084F83D004D
:101A80002068826822F0770222F47F428260086830
:101A9000502830D00DDC20284DD005DC98B310281C
:101AA0003BD148E0022070BD302844D0402834D1DA
:101AB00039E0602828D0702806D0B0F5805F2CD09F
:101AC000B0F5005F29D10AE0CB68D1E90121206897
:101AD00001F075F92068816841F0770109E0CB6871
:101AE000D1E90121206801F06AF92068816841F498
:101AF0008041816011E0CA684968206801F014FAE9
:101B00005021206807E016E0CA684968206801F0A3
:101B10001CFA6021206801F05CF984F83D50002037
:101B200084F83C0070BDCA684968206801F0FCF97F
:101B300040212068EFE7226801461046EBE7704736
:101B400070B50446006801694FF00005C943890774
:101B500015D4C168C943890711D4E91E0161012068
:101B60002077206880698007204602D0FFF7E7FFD2
:101B700004E000F0CBF8204600F05AF92577206801
:101B80000169C943490717D4C168C943490713D438
:101B90006FF004010161022020772068806910F451
:101BA000407F204602D0FFF7CAFF04E000F0AEF805
:101BB000204600F03DF9257720680169C9430907EF
:101BC00016D4C168C943090712D46FF00801016136
:101BD000042020772068C0698007204602D0FFF7E4
:101BE000AEFF04E000F092F8204600F021F92577DE
:101BF00020680169C943C90617D4C168C943C90629
:101C000013D46FF010010161082020772068C069AB
:101C100010F4407F204602D0FFF791FF04E000F06F
:101C200075F8204600F004F9257720680169C9435A
:101C3000C90708D1C168C943C90704D1891E016118
:101C4000204600F059F920680169C943090609D402
:101C5000C168C943090605D46FF0800101612046BF
:101C6000FFF73CFE20680169C943490609D4C168F1
:101C7000C943490605D46FF040010161204600F0D8
:101C80007BF920680169C94389060BD4C168C9433F
:101C9000890607D46FF0200101612046BDE870403D
:101CA000FFF71DBE70BD000010B586B00021009189
:101CB0000191029103910368114902221148B3F185
:101CC000804F13D0104CA3420ED18B6943F0040314
:101CD0008B61896901F0040104914021CDE9001272
:101CE00069460392FEF702FF06B010BD8B6943F010
:101CF00004038B61896901F0040104910121EDE77E
:101D0000001002400008014000040040704770B518
:101D1000044690F83C000D4601280AD0012084F8C2
:101D20003C0042B1042A18D0082A2AD00C2A4DD1EE
:101D300039E0022070BD206801F054F82068816904
:101D400041F0080181612068816921F0040181610D
:101D5000206881692A69114311E0206801F06AF85E
:101D60002068816941F4006181612068816921F402
:101D700080618161206881692A6941EA022181616B
:101D800024E0206801F082F82068C16941F0080170
:101D9000C1612068C16921F00401C1612068C16985
:101DA0002A69114311E0206801F09CF82068C1699C
:101DB00041F40061C1612068C16921F48061C161A1
:101DC0002068C1692A6941EA0221C161002084F8C2
:101DD0003C0070BD10B5040003D094F83D0010B174
:101DE00007E0012010BD002084F83C00204600F0F0
:101DF0001EF8022084F83D00211D206800F09CFFA1
:101E0000012084F8460084F83E0084F83F0084F8FE
:101E1000400084F8410084F8420084F8430084F8CC
:101E2000440084F8450084F83D00002010BD704750
:101E30007047000010B50446022249B1042912D0AF
:101E400008291CD094F84100012823D0012010BD9E
:101E500094F83E000128F9D184F83E202068C26839
:101E600042F0020209E094F83F000128EED184F824
:101E70003F202068C26842F00402C2600EE094F87D
:101E800040000128E2D184F840202068C26842F076
:101E90000802F2E784F841200C2922D001222068B0
:101EA00000F080FF11492068884203D1426C42F45F
:101EB000004242642068884208D0B0F1804F05D0CB
:101EC0000B49884202D00B49884204D1816801F055
:101ED0000701062903D0016841F0010101600020DB
:101EE00010BD2068C26842F01002C6E7002C014015
:101EF000000400400008004038B50E490068096839
:101F0000884215D10C4CE069401CE061B0F5FA7FC5
:101F10000EDBE068FEF7FDFB2269009202460B46ED
:101F200006A0616901F0FEF80020E06120646064B1
:101F300038BD0000640100201800002070776D5F3C
:101F400055707269676874A3BA20256420202070D8
:101F5000776D5F76656C6F63697479A3BA20252EFF
:101F6000326620202070776D5F76616C75653A204F
:101F700025640D0A00000000704770B5040004D00D
:101F800094F83D00002510B106E0012070BD84F8F2
:101F90003C50204600F022F8242084F83D002068C0
:101FA000C16821F40051C160204600F0E1FF2068C3
:101FB000016921F4904101612068416921F02A0101
:101FC00041612068C16841F40051C160256420204E
:101FD00084F83D0084F83E00002070BD30B585B027
:101FE00000240094019402940394006814498842E8
:101FF00024D11448816941F480418161816901F4EF
:1020000080410491816941F00401816180690E4D34
:1020100000F0040004904FF4007000900220019042
:102020000320039069462846FEF760FD2815CDE998
:102030000004694628460294FEF758FD05B030BDFD
:102040000038014000100240000801402DE9F8432B
:10205000044690F83D001F4616460D4620284CD1F8
:10206000C5B1BEB194F83C00012846D0012084F8E7
:102070003C004FF00008C4F84080212084F83D0067
:10208000FEF72EFEA6848146E684A068B0F5805F48
:1020900003D004E00120BDE8F883206928B12E4672
:1020A0005FF0000584F83C800EE00026FAE780210E
:1020B000204600F0B9FFA0B9AEB116F8010B2168B7
:1020C0004860E08C401EE084E08C4B464FF00002FC
:1020D00000970028EBD14FF04001204600F0A4FF0C
:1020E00030B10320D7E735F8020BC0F30800E6E76C
:1020F000202084F83D000020CDE70220CBE7FEE75A
:1021000001684A69D24352050FD46FF480624A6174
:10211000002140F8301F202242738173026942F08F
:102120000402026101730120704700207047000023
:102130002DE9F84F0446006889460B9D01689846D2
:10214000174641F4806101602068016841F48071A4
:10215000016000954FF0011B0022594620460A9B62
:1021600000F0DEF84FF4007A40B120680068C00546
:1021700001D5C4F840A00320BDE8F88F216809F01C
:10218000FE0008612B46284920460A9A00F0FCF818
:10219000F0BB20684169806900902A4620460A9970
:1021A00000F070F940B1206C04283AD12068016831
:1021B00041F40071016034E0FEB2B8F1010F09D0C2
:1021C0002168380A08612A4620460A9900F05AF91F
:1021D0000028E8D1206806612A4620460A9900F0C6
:1021E00051F90028DFD12068016841F48071016055
:1021F00000950022594620460A9B00F091F80028DD
:10220000B3D1216809F0FF0040F00100086100E04F
:1022100007E02B46044920460A9A00F0B5F800284A
:10222000AAD00120A8E70000020001002DE9F84330
:10223000044600680D46DDE9089701689846164691
:1022400041F4807101604B4600224FF0011120469D
:10225000009700F065F848B120680068C00502D515
:102260004FF4007020640320BDE8F883216805F076
:10227000FE0008613B464A461549204600F084F8B6
:1022800088B920684169806900903A4649462046ED
:1022900000F0F8F848B1206C042804D120680168E7
:1022A00041F4007101600120DEE7F5B2B8F1010FE1
:1022B00009D02168300A08613A464946204600F0B4
:1022C000E1F80028E7D1206805610020CCE7000094
:1022D0000200010070B516460D4604460DE020468A
:1022E000FFF70EFF08B1012070BD681C05D0FEF796
:1022F000F7FC801BA84207D835B120684069C0436D
:102300004007ECD4002070BD002044F8300F20219D
:102310006173A073216941F0200121612073E2E71C
:102320002DE9F0471E4690460D460446C1F3074787
:10233000DDF8209008E0701C06D0FEF7D1FCA0EB81
:102340000900B0420FD876B12068012F18D08069FB
:1023500025EA00000004000C14D000214145EAD019
:102360000020BDE8F087002044F8300F2021617381
:10237000A073216941F02001216120730120F0E761
:102380004069E5E70121E9E72DE9F0479A469146E2
:102390000E46044600254FF02008C1F3074725E00C
:1023A00020684069C043400514D42068016841F4A6
:1023B0000071016021686FF480604861256384F8D2
:1023C0003D8084F83E50206C40F00400206484F886
:1023D0003C501FE0B9F1FF3F08D0FEF781FCA0EBB5
:1023E0000A0149450CD8B9F1000F09D02068012F26
:1023F00013D0806926EA00000004000C0BD0CFE760
:1024000044F8305F84F80D80A573206940F0200007
:10241000206125730120BDE8F0874069EAE72DE9D6
:10242000F041002590460E460446202717E04069FB
:10243000C043C0060CD454F8301B6FF01000486144
:1024400044F810596777A577206A2062257717E04E
:10245000FEF746FCA0EB0800B04208D83EB1206869
:102460004169C9434906E2D40020BDE8F08144F83F
:10247000305F6773A573206940F0200020612573E9
:102480000120F2E770B516460D4604460DE02046E1
:10249000FFF736FE08B1012070BD681C05D0FEF7BD
:1024A0001FFC801BA84207D835B120684069C04393
:1024B0000006ECD4002070BD002044F8300F20212D
:1024C0006173A073216941F0200121612073E2E76B
:1024D0007CB514460D4606466B4606223B21682015
:1024E00000F012F9002818D1BDF8001049BA318067
:1024F000BDF8021049BA2980BDF8041049BA2180FC
:10250000064932880B88D21A32802A888B88D21AE0
:102510002A8022880989511A21807CBD98020020D6
:102520002DE9F0471C4C16460F46804600254FF417
:102530000079324639464046FFF7CAFF0120FEF7D0
:10254000C3FAB8F9000021686D1C08442060B7F98F
:10255000001060684D4508446060B6F90010A0683E
:102560000844A060E5DB2068C11700EBD1504112A0
:102570000948183001606168CA1701EBD25149124D
:102580004160A168CA1701EBD251044A02EB6121F4
:102590008160BDE8F08700008002002001C0FFFFDD
:1025A0007CB514460D4606466B460622432168203C
:1025B00000F0AAF8002818D1BDF8001049BA3180FF
:1025C000BDF8021049BA2980BDF8041049BA21802B
:1025D000064932888B89D21A32802A880B8AD21A0D
:1025E0002A802288898A511A21807CBD9802002085
:1025F0002DE9F0471B4C16460F46804600254FF448
:102600000079324639464046FFF7CAFF0120FEF7FF
:102610005BFAB8F90000E1686D1C0844E060B7F9A6
:10262000001020694D4508442061B6F9001060692A
:1026300008446061E5DBE068C11700EBD15041124E
:1026400008481830C1602169CA1701EBD2514912FC
:1026500001616169CA1701EBD25149124161BDE8BC
:10266000F08700008002002010B580216B2000F070
:1026700097F86420FEF728FA00216B2000F090F80C
:10268000032000F058F8002000F050F8322000F04D
:102690006FF80021382000F083F800216A2000F054
:1026A0007FF80021232000F07BF88021372000F004
:1026B00077F8752000F012F8682801D0012010BDCD
:1026C00001216B2000F06CF800216C2000F068F80C
:1026D000322000F04DF8002010BD00001FB564232B
:1026E000012203A98DE80E0013460246D0210548B9
:1026F000FEF7C0FB10B1012004B010BD9DF80C0026
:10270000FAE70000BC0000203EB54000CDE90032F1
:102710000A4664240146029401230348FEF7AAFBFB
:10272000002800D001203EBDBC000020C006010EE4
:102730001C2000F035B8C006010E1B2000F030B898
:10274000BC2801D3012110E0622801D302210CE052
:102750002A2801D3032108E0142801D3042104E02E
:102760000A2801D3052100E006211A2000F018B83C
:1027700010B504464FF47A70844201D9044602E051
:10278000042C00D20424B0FBF4F0401EC1B2192086
:1027900000F006F86008BDE81040FFF7D1BF000068
:1027A00003B583B06423012204A98DE80E0013460B
:1027B0000246D0210348FEF785FC002800D0012006
:1027C00005B000BDBC0000203EB54000CDE90032A0
:1027D0000A4664240146029401230348FEF772FC72
:1027E000002800D001203EBDBC00002030B585B0DF
:1027F00000241C480094019402940394816941F0E0
:1028000020018161816901F020010491816941F019
:1028100004018161816901F004010491816941F041
:10282000080181618069104D00F0080004900022C9
:102830001E212846FEF74FFA1E2000900120CDE908
:1028400001040220039069462846FEF74FF94FF431
:102850007040CDE90004694604480294FEF746F949
:1028600005B030BD0010024000080140000C0140DE
:102870000D4810B50B4901600C49416000214FF42F
:1028800080428160C0E9031241618161C1610162DE
:10289000FEF72CFA002803D0BDE81040FEF711B96E
:1028A00010BD000000540040BC000020A0860100C4
:1028B0000D4810B50B4901600C49416000214FF4EF
:1028C00080428160C0E9031241618161C16101629E
:1028D000FEF70CFA002803D0BDE81040FEF7F1B86F
:1028E00010BD00000058004010010020A08601002B
:1028F00010B586B000241748009401940294039404
:1029000004941349059401604721C0E9011463212F
:10291000C0E9031444618461FFF716F808B1FEF7BB
:10292000D0F84FF48050009069460A48FFF79CF8B1
:1029300008B1FEF7C6F8049404A906480594FEF70A
:10294000CFFF002801D0FEF7BCF806B010BD000094
:10295000002C01406401002010B58EB000240794C3
:10296000089409940A940B941C2168460C94FDF772
:1029700021FC1F484FF0804101604721C0E901144C
:1029800040F2E731C0E9031480218161FEF7DCFFEA
:1029900008B1FEF796F84FF48050079007A9144845
:1029A000FFF762F808B1FEF78CF81148FFF712FA4A
:1029B00008B1FEF786F80B940BA90D480C94FEF7AE
:1029C0008FFF08B1FEF77DF8602000904FF4FA7099
:1029D000CDE901040022694605480494FFF797F900
:1029E00008B1FEF76EF80248FFF75EF90EB010BDB1
:1029F000AC01002010B58EB000240794089409940F
:102A00000A940B941C2168460C94FDF7D3FB2048D4
:102A10001E4901604721C0E9011440F2E731C0E9D5
:102A2000031480218161FEF78FFF08B1FEF749F89A
:102A30004FF48050079007A91548FFF715F808B123
:102A4000FEF73FF81248FFF7C5F908B1FEF739F86D
:102A50000B940BA90E480C94FEF742FF08B1FEF749
:102A600030F8602000904FF4FA70CDE901040022A4
:102A7000694607480494FFF74AF908B1FEF721F8C0
:102A80000348FFF711F90EB010BD0000000400402C
:102A9000F40100200C4810B50A4901604FF4E131FF
:102AA0004160002181600C22C160C0E90412816193
:102AB000C161FFF762FA002803D0BDE81040FEF7BD
:102AC00000B810BD003801403C020020FEE7FEE7E0
:102AD000002000F001B8000070B506465FF0000469
:102AE00004F1B000C0B200F0F9FA002000F0F6FAEC
:102AF000102000F0F3FA0025304600F001FB6D1CB9
:102B0000EDB2802DF8D3641CE4B2082CE8D370BD7C
:102B100010B56420FDF7D8FFAE2000F0DFFA2020CA
:102B200000F0DCFA102000F0D9FAB02000F0D6FA5C
:102B3000C82000F0D3FA002000F0D0FA102000F0F6
:102B4000CDFA402000F0CAFA812000F0C7FAFF2039
:102B500000F0C4FAA12000F0C1FAA62000F0BEFAED
:102B6000A82000F0BBFA3F2000F0B8FAA42000F043
:102B7000B5FAD32000F0B2FA002000F0AFFAD52069
:102B800000F0ACFAF02000F0A9FAD92000F0A6FA83
:102B9000222000F0A3FADA2000F0A0FA122000F0C0
:102BA0009DFADB2000F09AFA202000F097FA8D20A1
:102BB00000F094FA142000F091FABDE81040AF2024
:102BC00000F08CBA10B50446B031C8B200F086FAF5
:102BD000102040EA141000F081FA04F00F00BDE864
:102BE000104040F0010000F079BA00002DE9F047F4
:102BF000002591468A460446012B22D0DFF8BC808E
:102C0000022B24D155E02038C7B27E2C04D90AF11A
:102C10000100002400F0FF0A51462046FFF7D2FFD2
:102C200007EB4700002608EB4007B85D00F068FAA4
:102C3000761CF6B2062EF8D3A41D6D1CE4B2EDB2DC
:102C400001E0DFF87C8019F805000028DBD1BDE841
:102C5000F0872038C7B2782C04D90AF1010000248B
:102C600000F0FF0A51462046FFF7ACFF5FF0000678
:102C700006EB071118F8010000F042FA761CF6B2D4
:102C8000082EF5D30AF10100C1B22046FFF79AFFE2
:102C90005FF0000606EB071101EB0800007A00F078
:102CA0002FFA761CF6B2082EF4D308346D1CE4B269
:102CB000EDB219F805000028CBD1C8E7EE70000886
:102CC000C66E000870477047FEF7E0BA30B58FB0A7
:102CD00028216846FDF76EFA14210AA8FDF76AFA62
:102CE00001210804CDE9001000240294022504917A
:102CF000CDE907504FF4E01009906846FEF74AFC12
:102D000008B172B6FEE70F20CDE90A054FF48060E6
:102D1000CDE90C4002210AA80E94FEF74FFB0028D3
:102D200001D072B6FEE70FB030BD70470148FEF724
:102D300007BF000064010020F0B50268164B174C75
:102D4000174D4FF08047984205D0B84203D0A042BB
:102D500001D0A84203D122F070064A68324398425B
:102D600005D0B84203D0A04201D0A84203D122F43A
:102D70004074CA6822434C6922F0800222430260F8
:102D80008A68C2620A688262984201D10969016355
:102D900001214161F0BD0000002C01400004004011
:102DA0000008004010B501F01F030121046A99409A
:102DB0008C430462016A9A401143016210BD10B550
:102DC000846842EA032224F47F440A432243826057
:102DD00010BD826822F070020A4342F00701816050
:102DE0007047000030B5026A22F001020262026AF6
:102DF0004368846924F073050C682C4322F00205B3
:102E00008A682A430A4DA8420BD122F00805CA68F5
:102E100023F440732A434D6922F004021D438B6959
:102E20002B434360846149684163026230BD000006
:102E3000002C014030B5026A22F010020262026AE0
:102E4000436884690D6824F4E64444EA05248D68E7
:102E500022F0200242EA05120B4DA8420ED1CD68A5
:102E600022F0800242EA05124D6923F4406343EAEE
:102E700085038D6922F0400243EA85034360846143
:102E800049688163026230BD002C014030B5026A9E
:102E900022F480720262036A4268C46923F40073F8
:102EA00024F073050C682C438D6843EA05230C4D10
:102EB000A8420ED1CD6823F4006343EA05234D698F
:102EC00022F4405242EA05128D6923F4806342EAFB
:102ED00005124260C4614968C163036230BD0000ED
:102EE000002C014030B5026A22F480520262046A6A
:102EF0004268C3690D6823F4E64343EA05238D68FD
:102F000024F4005444EA0534064DA84204D14D6926
:102F100022F4804242EA85124260C361496801643A
:102F2000046230BD002C014010B5036A046A24F02D
:102F300001040462846924F0F00444EA021423F0DA
:102F40000A020A438461026210BD10B5036A23F0CD
:102F5000100303628369046A23F4704343EA023274
:102F600024F0A00343EA01118261016210BD000058
:102F700070B5044600680169E26821F440511143CC
:102F800001612169A0680843616908432168CA6832
:102F900041F20C639A430243CA6020684169A26906
:102FA00021F44071114341611E492068884202D1D9
:102FB000FEF7AAFA01E0FEF797FA00EBC00101EB79
:102FC0000012606864218000B2FBF0F3B3FBF1F300
:102FD0006FF018067343B2FBF0F5B2FBF0F605EBA9
:102FE0008305322303EB0515B5FBF1F5B6FBF1F6CE
:102FF00005F0F00505EB0615B2FBF0F6B2FBF0F0BC
:10300000B0FBF1F06FF01802504306EB800003EBC9
:103010000010B0FBF1F0216800F00F002844886038
:1030200070BD0000003801402DE9F0419846174678
:103030000E460446069D1DE0681C1BD02DB1FDF711
:103040004FFEA0EB0800A84214D92068C16821F403
:10305000D071C1602068416921F0010141612020E7
:1030600084F83D0084F83E00002084F83C000320F2
:10307000BDE8F0812068006836EA000004D0002036
:10308000B842D9D00020F3E70120F9E72DE9F0415B
:103090000E4D0E46074611466868FDF7FBF80446DC
:1030A00031463846FDF79EF82968FDF7F3F82146CA
:1030B000FDF798F80649074A884202DD0846BDE850
:1030C000F0819042FBD91046F9E700000000002093
:1030D00000007A4400007AC4FEE7000001B584B025
:1030E0000121642204A88DE807000B460022782104
:1030F0000248FDF7E7FF05B000BD00001001002009
:1031000001B584B00121642204A88DE807000B46B4
:10311000402278210248FDF7D5FF05B000BD000030
:10312000100100200FB4054B10B503A9044A029802
:1031300000F06CF910BC5DF814FB0000014B0008B6
:10314000B4000020490050EAC12018BF04204A0DF5
:1031500018BF40F0010040F2FF72B2EB515F08BFB0
:1031600040F00200012808BF052070470907090E3A
:10317000002804DB00F1E02080F80014704700F024
:103180000F0000F1E02080F8141D70472DE9F04198
:103190004F1E00EBC7010446D1E9000115461E464B
:1031A00037F006020DD02A463346FDF796F97F1E0A
:1031B00004EBC703D3E90023FDF7E8F837F0060274
:1031C000F1D1022F25D0042F13D0062F18BFBDE850
:1031D000F0812A463346FDF780F9D4E90A23FDF74A
:1031E000D5F82A463346FDF778F9D4E90823FDF7E8
:1031F000CDF82A463346FDF770F9D4E90623FDF7EA
:10320000C5F82A463346FDF768F9D4E90423FDF7EB
:10321000BDF82A463346FDF760F9D4E90223FDF7ED
:10322000B5F82A463346FDF758F9D4E90023BDE83E
:10323000F041FDF7ABB80122FDF796BBFDF7A6B84C
:103240000022134610461146FDF7B9B9024A002084
:103250001107FDF789BB000001FDFFFF02E008C870
:10326000121F08C1002AFAD170477047002001E000
:1032700001C1121F002AFBD17047000001490860FC
:1032800070470000B80000202DE9FF5F82B00021E8
:10329000DDE90430020DDDF840B0034318D044F6F8
:1032A0001050A2F2FF3242431514119801281FD08A
:1032B000A5EB0B00401C5FEA000A4FF000064E4FE2
:1032C000DFF83891B046504615D5CAF1000413E036
:1032D000119801244AA3012801D16FEA0B01029839
:1032E000119AC0E90031C0E9024206B0BDE8F09F82
:1032F000CBF10000DFE704460021404A491842EBC9
:103300000450CDE9001012E0E00707D032463B46FA
:1033100040464946FDF7E1F88046894632463B463D
:1033200010461946FDF7D9F806460F466410002CE2
:10333000EAD1DDE90401DDE90023BAF1000F06DA84
:10334000FDF7CBF842464B46FDF7C7F805E0FDF721
:1033500036F942464B46FDF732F904460E46002246
:10336000284BFDF731FB03D84FF0FF30014607E053
:103370000022254B20463146FDF708F8FDF70BFBF0
:10338000102409E0002C0ADB0A220023FDF706FACC
:10339000039B30321A55641E50EA0102F2D1641CBC
:1033A000039AC4F111031444119A012A03D0012293
:1033B00008430DD10AE0084304D000204FF0110B60
:1033C000119072E7A3EB0B056D1E0DE05B4504DD6C
:1033D0004FF0000205F1010504E003DA4FF00002AE
:1033E000A5F10105002AECD002981199C0E902313B
:1033F000C0E9004579E70000000014400000F03FFC
:10340000300000000000F0430000E03F2DE9FF4FD6
:1034100095B09B468946064600250FE2252877D1C0
:1034200000242746F84A0121059400E0044316F8D9
:10343000013F203B01FA03F01042F7D130782A28EF
:1034400011D06FF02F033078A0F13002092A16D87E
:10345000059A44F0020402EB820203EB420210449C
:10346000761C0590EFE759F8042B0592002A03DA41
:10347000504244F40054059044F00204761C307825
:103480002E2816D116F8010F44F004042A280DD076
:103490006FF02F023078A0F13003092B09D807EB29
:1034A000870302EB4303C718761CF3E759F8047B44
:1034B000761C30786C280FD006DC4C2817D0682892
:1034C0000DD06A2814D104E0742810D07A280FD1C6
:1034D0000DE044F400140AE044F4801401E044F4E4
:1034E00040147278824202D104F58014761C761C56
:1034F000307866280BD013DC582877D009DC0028F8
:1035000075D04528F6D04628F4D047281AD19DE139
:1035100018E0632835D0642879D0652812D195E168
:10352000702873D008DC6728F1D069286FD06E2826
:103530000DD06F2806D1B5E073282CD0752875D032
:10354000782874D05A46179990476D1C75E1C4F3DA
:103550000250022809D003280DD0D9F80010042801
:103560000DD00D6009F1040967E1D9F80010EA17E0
:10357000C1E90052F6E7D9F800100D80F2E70D70AE
:10358000F0E719F8041B8DF8001000208DF80100F9
:10359000EA46012003E059F804AB4FF0FF30610721
:1035A0004FF0000102D40DE008F101018846B94254
:1035B0000FDA8045F8DB1AF808100029F4D108E08A
:1035C00008F1010188468142FADB1AF80810002947
:1035D000F6D105985B46A0EB080721463846179AB6
:1035E00000F094FA284400EB080507E04DE029E1DB
:1035F0000DE01AF8010B5A4617999047B8F10108E7
:10360000F7D25B4621463846179A13E142E00A2278
:103610000092C4F302524FF0000A022A08D059F86F
:1036200004CB032A4FEAEC710AD00DE029E02AE02E
:1036300009F1070121F00702F2E802C1914609E011
:103640000FFA8CFC4FEAEC71042A03D14FFA8CFC80
:103650004FEAEC71002907DA0A460021DCF1000C80
:1036600061EB02012D2202E0220504D52B228DF808
:103670000420012203E0E20701D02022F7E7904670
:1036800059E00A2102E010220DE010214FF0000A5B
:1036900000910BE010224FF0000A44F004040827C8
:1036A000009203E008224FF0000A0092C4F3025295
:1036B000022A05D059F804CB0021032A08D009E0DA
:1036C00009F1070121F00702F2E802C1914605E085
:1036D0001FFA8CFC042A01D10CF0FF0C4FF00008FB
:1036E000220728D5702806D0009B83F0100353EAE8
:1036F0000A0305D00EE040228DF80420012208E0E4
:103700005CEA010206D030228DF804208DF8050015
:1037100002229046009B83F0080353EA0A030AD171
:103720005CEA010201D1620705D530228DF8042040
:103730004FF001087F1E582804D034A003900EA833
:1037400002900DE036A0F9E753466046009AFDF777
:1037500025F884460398825C0298401E029002700D
:103760005CEA0100F0D1029806A9081A00F1200ACB
:10377000600702D524F4803400E00127574502DDBC
:10378000A7EB0A0000E0002000EB0A01009005987A
:103790004144401A0590E00306D45B462146179A3F
:1037A000059800F0B3F90544002706E001A85A4641
:1037B000C05D179990476D1C7F1C4745F6DBE00301
:1037C0000CD55B462146179A059800F09FF90544F1
:1037D00004E030205A46179990476D1C0099481E06
:1037E00000900029F5DC08E0029802995A4600781A
:1037F000491C0291179990476D1CBAF10001AAF17A
:10380000010AF1DC65E100000928010030313233A2
:10381000343536373839616263646566000000000C
:1038200030313233343536373839414243444546F6
:103830000000000000F058F90544761C307800289C
:103840007FF4ECAD19B02846BDE8F08F620700D4D4
:10385000062709F1070222F0070CFCE80223E146E3
:1038600003F000485FEA080C02D00FF2702C0DE064
:103870005FEA045C02D50FF2682C07E05FEAC47CC3
:1038800002D00FF2602C01E0AFF2700C4FF0FF3865
:1038900023F00043CDF850C065280CD006DC452845
:1038A00009D046281DD047283DD13DE0662818D0D4
:1038B00067287ED138E00021112F01DB112000E0C4
:1038C000781CCDE9000106A90EA8FFF7DDFCDDE9B3
:1038D0000F010E9A03910021009207F1010A049151
:1038E0004DE04FF000400097CDE9011006A90EA869
:1038F000FFF7CAFCDDE90F0203920E9B119900222B
:10390000DDF80CA00093049211B9791C00EB010AB8
:10391000B7EB0A0004D4C0F1FF3007F1010A0490AC
:10392000AAEB0700019044E0012F00DA01270021F3
:10393000112F01DD112000E03846CDE9000106A974
:103940000EA8FFF7A1FCDDE90F010E9A03910021FB
:1039500004910092BA4621070CD40399514500DA2C
:103960008A46BAF1010F05DD009AAAF10101515C06
:10397000302908D0B84202DA10F1040F06DA01212A
:10398000CDE9011015E0AAF10101E9E7002805DC05
:10399000049901440491AAEB000102E0411C514545
:1039A00000DD8A460499401A401C01904FF0004007
:1039B0000290200704D40198504501DBCDF8048023
:1039C00000208DF84F0002980DF14F07B0F1004F25
:1039D00025D02B200E9002984FF0020800280CDA18
:1039E000404202902D200E9007E00A210298FCF739
:1039F000BFFE3031029007F8011DB8F10001A8F1B7
:103A00000108F2DC02980028EFD1791E0E980870A8
:103A1000307800F0200040F0450007F8020D12A8B1
:103A2000C01B00F107081498007800B1012000EBDA
:103A30000A01019801EBE07105984144401A401ECB
:103A40000590E00306D45B462146179A059800F0DE
:103A50005DF805441498007818B15A4617999047B4
:103A60006D1CE00324D55B462146179A059800F0AB
:103A70004DF805441CE00498002807DBDDE903014C
:103A8000884203DD0098405C179901E017993020C7
:103A90005A469047049805F10105401C049001988E
:103AA000401E019004D12E205A46179990476D1C54
:103AB000BAF10001AAF1010ADDDC05E017F8010BFB
:103AC0005A46179990476D1CB8F10001A8F10108FA
:103AD000F4DC5B462146179A0598ABE62D00000002
:103AE0002B000000200000002DE9F04104460025D5
:103AF0001E461746880404D405E039462020B04706
:103B00006D1C641EF9D52846BDE8F0812DE9F04111
:103B1000044600251E469046C80301D5302700E024
:103B20002027880404D505E041463846B0476D1C7F
:103B3000641EF9D52846BDE8F08100002DE9FE4F4E
:103B400007460E460025684600F0E8FF00246FF0A7
:103B50000F0AE8464FF0010957F8240056F82410E0
:103B6000401A00D54042FCF799FD5146FCF702FC93
:103B700058F8241011F0FF4F0BD0FCF7BDFB4FF0AD
:103B80007E51FCF781FB0A4920F00040884205DCA9
:103B900007E0084908440849884202D309FA04F0BA
:103BA0000543641C032CD7DB2846BDE8FE8F0000CC
:103BB000295C0F3E666666C19A99D9002DE9F04DE1
:103BC0008D4F21F0004A86B005460C46BA452ADBE7
:103BD000AAEB070028430AD08848824501DC1AD1A5
:103BE000CDB106B02846BDE8F04DFFF724BB844AAE
:103BF000844B2846FCF771FC07460E46824A834BED
:103C000028462146FCF769FC06B03A463346BDE833
:103C1000F04DFCF7BBBB0120FFF730FB06B0BDE861
:103C2000F04DFFF70DBB7A48824542DABAF1795F71
:103C30000BDA2846FFF786FA042808BFFFF706FBD1
:103C4000284606B02146BDE8F08D2A460B461046B0
:103C5000FCF743FC834602466E480E460B4606219F
:103C60007844FFF793FA5A463346FCF736FC804611
:103C700069488A465A46334604217844FFF786FA53
:103C80005A463346FCF729FC00223B46FCF77EFBF4
:103C900002460B4640465146FCF791FC2A46234615
:103CA000FCF71BFC06B02A462346BDE8F04DFCF7A6
:103CB0006DBB284624F0004100223D463B46FCF700
:103CC00009FC4FF0FF32FCF74FFE06460246534810
:103CD0000F460B4606217844FFF758FA32463B461A
:103CE000FCF7FBFBCDE900014D4832463B46042181
:103CF0007844FFF74BFA32463B46FCF7EEFB0022D6
:103D00002B46FCF743FB834602913046394602F0CE
:103D100077FA804643480D46504517DCDDE900013F
:103D20005A46029BFCF74BFC42462B46FCF7D5FB60
:103D300042462B46FCF72AFB0122FCF715FE304ACF
:103D4000304BFCF7C4FB304A304B4CE04FF0000ADC
:103D500052460B464046FCF719FBCDE9031052468C
:103D60002B4610461946FCF7B8FB32463B46FCF79B
:103D7000B1FBDDE90332FCF722FC06460F46DDE924
:103D800000015A46029BFCF71AFC8346009101226F
:103D900030463946FCF7E8FD194A1A4BFCF79AFB06
:103DA00006460F46012240462946FCF7DDFD5A46ED
:103DB000009BFCF792FB32463B46FCF788FB06462D
:103DC0000F46012250462946FCF7CEFD0E4DDFF886
:103DD00058802A464346FCF77DFB32463B46FCF7BB
:103DE00079FB2A464346FCF775FB002CD8BF81F0CF
:103DF000004106B0BDE8F08D0000F03F0000F07F0C
:103E0000075C143326A6913C182D4454FB21F93F3E
:103E10000000E03F7C3A0000923A0000063A0000C1
:103E20001C3A00003333EF3FFB21E93F2DE9F84F07
:103E300004460D4621F0004000917349814211DC97
:103E40007249884201DC06D12CB120462946BDE8E2
:103E5000F84FFFF7F0B96E48002DCCBF6D496E49A1
:103E6000BDE8F88F6D49814211DD6D498142D8BFAF
:103E70004FF0FF366DDD20462946FFF763F9042831
:103E800008BFFFF7E3F920462946BDE8F88F6549EA
:103E9000654F25F00045814233DD6449814219DDDB
:103EA000002632464FF0804320462946FCF76EFA42
:103EB00080468A46012220462946FCF755FD00220D
:103EC0003B46FCF704FB42465346FCF778FB0446AE
:103ED0000D463EE001260022BA463B4620462946D2
:103EE000FCF754FA80460F460022534620462946E6
:103EF000FCF7EDFA42463B46FCF761FB04460D46F3
:103F000027E04B4981421BDDDFF828A10226002271
:103F1000534620462946FCF7E0FA00223B46FCF7D0
:103F200035FA80460F460022534620462946FCF7C4
:103F3000CEFA42463B46FCF742FB04460D4608E0FB
:103F4000032622462B4600203B49FCF738FB04465B
:103F50000D4622462B4610461946FCF7BEFA8B4604
:103F6000824602460B46FCF7B8FA0746024633483B
:103F700088460B4606217844FFF708F952465B460F
:103F8000FCF7ABFA82462E488B463A46434605215B
:103F90007844FFF7FBF83A464346FCF79EFA0246A0
:103FA0000B46002E504659460CDAFCF7EFF9224634
:103FB0002B46FCF792FA01B022462B46BDE8F04FA3
:103FC000FCF788BAFCF7E2F922462B46FCF785FAA3
:103FD0001C4A7A4402EBC603D3E90023FCF777FAC4
:103FE00022462B46FCF773FA174A7A4402EBC603C3
:103FF000D3E90023FCF76EFA009A002AB8BF81F0DB
:104000000041BDE8F88F0000000010440000F07F80
:10401000182D4454FB21F93FFB21F9BF0000DC3F80
:104020000000203E0000F33F0000F03F0000E63FAC
:10403000008003400000F83F0000F0BF1E38000081
:10404000DC3700007A370000423700002DE9F04DE0
:104050009446CCF1000423F000464CEA0404524F8D
:1040600046EAD4749A46884621F00042BC4206D8FB
:10407000454240EA050442EAD474BC4204D9BDE892
:10408000F04D6246FFF7DAB8AAF14055A5F17F6519
:1040900055EA0C040BD0022404EAAA74434DDFF85D
:1040A00010E144EAD87452EA000B04D00CE0BDE8F9
:1040B000F04DFFF7BBBE002C14BF012CBDE8F08D06
:1040C000022C30D0032C32D056EA0C0B0AD0BE4260
:1040D00020D1BA4209D126F0804622F080423346F0
:1040E000114617E000291ADB25E0DFF8C8B0FB44D1
:1040F000002C04BFDBE90001BDE8F08D012C02BFFC
:10410000DBE9000181F00041BDE8F08D022C0AD00E
:10411000032C0CD0BA4212D1B8F1000F0BDA2348AD
:104120002549BDE8F08D28462449BDE8F08D284694
:104130007146BDE8F08D1D482149BDE8F08D921B08
:1041400012153C2AC4BF19481D490EDCBAF1000FF4
:10415000BEBF12F13C0F0020014606DB6246FCF7B1
:104160002EFA21F00041FFF761FE002C08BFBDE8E8
:10417000F08D012C04BF81F00041BDE8F08D114AA3
:10418000114B022C07D0FCF7A2F92A46BDE8F04DEE
:104190000A4BFCF79CB9FCF79AF92A46BDE8F04DAA
:1041A000064BFCF797B900000000F07F182D44542F
:1041B000FB2109C0D6360000FB21F9BFFB210940D5
:1041C000FB21F93F075C143326A6A13C08B560B17A
:1041D00020208DF8000028208DF8010030208DF877
:1041E000020038208DF8030004E0A3220421684671
:1041F000FBF7D9FF6A46042140F69E2001F03CFF00
:1042000001F0FAFB08BD00003EB5044602208DF81F
:104210000000CA208DF80100E3208DF8020009207B
:104220008DF803006A460421682001F025FFA320D1
:104230008DF80000610609D5C0218DF80110C82154
:104240008DF80210C2218DF8031005E08DF80100F1
:104250008DF802008DF8030014F4C07F09D0C4214A
:104260008DF80410CC218DF80510C6218DF80610AC
:1042700005E08DF804008DF805008DF806008DF836
:1042800008008DF807008DF809006A460A2140F6FB
:10429000A72001F0F1FEA0074FF0D80503D02020A1
:1042A0008DF8000001E08DF800506A46012140F6CB
:1042B000B62001F0E1FEA00601D5012000E00020BB
:1042C00000F08EF814F4C07F1ED0E0050AD5B220AD
:1042D0008DF800008B208DF80100B6208DF80200CB
:1042E0009B2009E0B0208DF8000080208DF80100AF
:1042F000B4208DF8020090208DF803006A46042156
:1043000040F6A22001F0B8FEE1074FF40B6022D086
:10431000F8218DF800106A46012101F0ADFEFA2166
:10432000072000F039FB072000F004FB012000F01B
:1043300021FB642000F0C4FB4FF4FA7000F0D0FBC6
:10434000C821254800F0BEFA282000F0D3FA0A2040
:1043500000F0E0FA05E08DF800506A46012101F016
:104360008BFEA00703D5D9208DF8000001E08DF861
:1043700000506A46012140F23D7001F07DFE600769
:1043800001D5012000E0002000F048F8E00601D54A
:10439000012000E00020FFF719FF104D44F0080055
:1043A000688101F029FB0020A873600601D5062072
:1043B000A87314F4C07F02D0A87B801DA87314F0EA
:1043C000140F02D0A87B1030A873A00702D0A87BDE
:1043D000001DA87300203EBD09E3CA02B002002000
:1043E0000EB54FF4976310B106A107C901E008A20A
:1043F00007CA8DE807006A460921184601F03CFE0D
:104400000EBD0000B8AAB38DB4980D355D00000054
:10441000B8AAAAAAB088C3C5C700000008B560B191
:10442000C0208DF80000C2208DF80100C4208DF856
:104430000200C6208DF8030004E08B2204216846A8
:10444000FBF7B1FE6A46042140F6982001F014FE05
:1044500001F0D2FA08BD0000C8234FF4806202497F
:1044600040F6F63001F0AAB9D06200082DE9FF4FFE
:1044700089B01746DDE9165200244C4E8846814625
:104480002C80A246B07B694601F044FA4FF0FF3B16
:1044900018B158460DB0BDE8F08F708910F0140FB8
:1044A0003CD0009909BA21F0FF039DF803100B439B
:1044B0003B6001991B1409BA21F0FF029DF8071017
:1044C0005B430A437A6002999DF80B4009BA21F0D8
:1044D000FF012143B960039C091424BA24F0FF0CA6
:1044E0009DF80F4012144CEA040CC7F80CC04FEAB8
:1044F0002C47494302FB023207FB071111441024E9
:10450000A1F17061B1F1007F04D901F075FAA5F84D
:1045100000A0BEE7298841F48071298042066946DF
:1045200011D50A19A41D13885BBAA8F80030538866
:104530005BBAA8F80230928852BAA8F804202A88F8
:1045400042F008022A8010F4C07F11D00A19A41D7D
:1045500013885BBAA9F8003053885BBAA9F8023017
:10456000928852BAA9F804202A8842F070022A8060
:10457000800716D00C44E07800F0C00500F03F0141
:104580006078C00706D0C80801F007013268491CEE
:1045900002B190476078000703D5716809B1A80996
:1045A00088470C9800F058FE002073E7B002002006
:1045B0002DE9FF41044603A800F0B6FFBDF80C004A
:1045C000410CC3032F48028902F00300550754F839
:1045D000200000D54042C2F3C105960654F825508C
:1045E00000D56D42C2F38116D20554F8264000D59D
:1045F0006442A0FB0367C21702FB037200FB0120A9
:10460000820042EA9670A5FB0367EA1702FB037279
:1046100005FB0122950045EA9672A4FB0367E517A6
:1046200005FB037304FB01318B0043EA9671030E13
:104630008DF80030030C8DF80130030A8DF802303C
:104640008DF80300100E8DF80400100C8DF8050095
:10465000100A8DF80600080E8DF80800080C8DF879
:104660000900080A8DF80A008DF807208DF80B1054
:104670006A460C214FF4257001F0FEFC04B0BDE841
:10468000F0810000B002002030B5044613A285B0CE
:1046900007CA8DE807004FF0FF35C82C16D8C82090
:1046A000B0FBF4F1491E080A8DF80C008DF80D10CE
:1046B00003AA022140F2162001F0DEFC30B96A465E
:1046C0000C2140F6C12001F0D7FC10B1284605B0FE
:1046D00030BD054884810020F9E70000FEF2ABC43C
:1046E000AAF1DFDFBBAFDFDFB0020020F8B5304951
:1046F000098901F0030250F822404A0700D56442BC
:10470000C1F3C1028B0650F8222000D55242C1F3FA
:10471000811350F82330C80500D55B42254984FB3E
:104720000140850045EA947082FB0142A40F44EAEF
:10473000820483FB0121950F45EA8105010E8DF866
:104740000010010C8DF80110010A8DF802108DF88F
:1047500003006A4604214FF4747001F08DFC4FF0A1
:10476000FF3688B9200E8DF80000200C8DF801006E
:10477000200A8DF802008DF803406A4604214FF4A8
:10478000757001F079FC08B13046F8BD280E8DF83F
:104790000000280C8DF80100280A8DF802008DF821
:1047A00003506A4604214FF4767001F065FCF8BDB1
:1047B000B002002009E3CA022DE9FF4104463CA0F3
:1047C00004F00303006802903AA0006803903AA046
:1047D00006683AA0056802A8C15C8DF80010C4F311
:1047E000C101425C8DF80120C4F38112805C8DF818
:1047F000020003A8C35C8DF80430415C8DF80510FD
:10480000805C8DF806006A46032140F2264001F0E4
:1048100033FC4FF0FF37E0BB01AA032140F22A40EE
:1048200001F02AFCA8BBCDE9006560070BD59DF817
:10483000000040F001008DF800009DF8040040F0F9
:1048400001008DF80400A0060BD59DF8010040F092
:1048500001008DF801009DF8050040F001008DF881
:104860000500E0050BD59DF8020040F001008DF831
:1048700002009DF8060040F001008DF806006A462F
:1048800003214FF4886001F0F7FB10B901AA03215E
:1048900000E004E040F2314001F0EEFB18B1384690
:1048A00004B0BDE8F081064804810020F8E700006C
:1048B0004CCD6C000CC92C0036567600264666009E
:1048C000B00200204FF47A7290FBF2F008B5484332
:1048D000010E8DF80010010C8DF80110010A8DF801
:1048E00002108DF803006A4604214FF4AE7001F007
:1048F000C3FB08BD0521B0FBF1F008B5010A8DF836
:1049000000108DF801006A4602214FF4AD7001F0ED
:10491000B3FB08BD0521B0FBF1F008B5010A8DF825
:1049200000108DF801006A4602214FF4AC7001F0CE
:10493000A3FB08BD08B500218DF80010C10702D007
:1049400030218DF80010810705D59DF8001041F049
:104950000C018DF80010400705D59DF8000040F0CF
:1049600003008DF800006A4601214FF4A47001F0A5
:1049700083FB08BD08B560B1042800D90420401E9F
:104980008DF800006A46012140F24F1001F074FBDF
:1049900008BD0120F3E700002DE9FC410546400772
:1049A0004FF0FF367CD0B1F5C86F79D80846FBF7D9
:1049B0007EFE3E49FBF7A0FC074601A800F096FDED
:1049C0009DF80400022806D004280DD008282ED017
:1049D000102865D134E00E213846FBF7CBFCFBF7FD
:1049E00084FE84B2324907E00D213846FBF7C2FC51
:1049F000FBF77BFE2F4984B23846FBF74BFCFBF7F5
:104A000074FE210A8DF8001080B28DF80140010A71
:104A10008DF802108DF80300E8076C4620D022467E
:104A200002214FF4EA7001F027FBC8BB11E00C2112
:104A30003846FBF79FFCFBF758FE84B21E49DBE7C4
:104A40000B213846FBF796FCFBF74FFE84B21B495F
:104A5000D2E7A21C02214FF4927001F00DFBF8B9CD
:104A6000A8070DD56A4602214FF4EC7001F004FB53
:104A7000B0B9A21C02214FF4947001F0FDFA78B98C
:104A8000680710D56A4602214FF4EE7001F0F4FA7F
:104A900030B9A21C02214FF4967001F0EDFA10B16A
:104AA0003046BDE8FC810020FBE7000000004843E1
:104AB000000040460000C045000040450000C044E2
:104AC0000521B0FBF1F008B5010A8DF800108DF852
:104AD00001006A4602214FF4EF7001F0CDFA08BDE3
:104AE0000521B0FBF1F008B5010A8DF800108DF832
:104AF00001006A4602214FF4ED7001F0BDFA08BDD5
:104B000038B504468DF800000223012269460248A8
:104B1000FDF79CFA204638BD3C0200202DE9FE43FB
:104B20000646264801AB042240680D210078FDF7B7
:104B3000EBFD10B10720BDE8FE839DF804101C209A
:104B400000EAD1029DF80710DFF87490C1F3011359
:104B50001A438DF800209DF80520C1F3810300EA77
:104B6000D2021A438DF801209DF8062001F00301BE
:104B700000EAD20008430024124F8DF80200A0463C
:104B80006D46285D10B146F824900AE046F824806E
:104B90000DE000BF56F824003946FBF77BFB46F8D2
:104BA0002400285D401E10F0FF002855F2D1641C3F
:104BB000E4B2032CE5D30020BDE700007C00002018
:104BC0007B14AE3E1D5A843F2DE9FE4F0546012061
:104BD000C14E8DF800004FF000088DF8018030685C
:104BE0000C461746817C70686B4602220078FDF700
:104BF000EBFD4FF0FF3A00287AD1C820FBF764FFA5
:104C00008DF8008030686B460122C17B70680078A7
:104C1000FDF7DAFD0028EFD130686B4601224179BB
:104C200070680078FDF7D0FD0028E5D130686B464C
:104C30000122817C70680078FDF7C6FD0028DBD179
:104C400030686B460122C17D70680078FDF7BCFDBD
:104C50000028D1D130686B46012201797068007854
:104C6000FDF7B2FD0028C7D14FF00C098DF8009078
:104C700030686B460122017970680078FDF7A4FD69
:104C8000002835D10F20FBF71FFFB06A6B460122C9
:104C9000407A8DF800003068817870680078FDF700
:104CA00093FD002824D1B06A6B460122007A8DF86A
:104CB00000003068417870680078FDF785FD0028B5
:104CC00073D1B06A807A0FB140F0E0008DF8000037
:104CD00030686B460122817970680078FDF774FDB9
:104CE000002862D12FB1B06AC07A40F0E00001E044
:104CF0004AE018208DF8000030686B460122C17927
:104D000070680078FDF760FDF0BB17B1C820FBF7B5
:104D1000DBFE40208DF8000030686B4601220179EF
:104D200070680078FDF750FD70BB78208DF80000AA
:104D300030686B460122417970680078FDF744FDC8
:104D400010BB3220FBF7C0FE8DF80080306847466C
:104D50006B464179706801220078FDF735FD98B9FE
:104D600031687068B046897A00786B460222FDF798
:104D7000CBFC48B9BDF80000AF6040BAB0FBF9F019
:104D80006F60C6B22F6000E00FE0A7606760276029
:104D9000002739E0D8F80010D8F804006B46C97A2B
:104DA00000780C22FDF7B0FC10B15046BDE8FE8F34
:104DB000BDF80000236840BA02B2BDF80200BDF899
:104DC00004101A44226040BA626800B21044606065
:104DD00049BAA06809B20844A060BDF806002B6873
:104DE00040BA02B2BDF808001A4440BA01B2BDF898
:104DF0000A002A606A6840BA11446960A96800B272
:104E000008447F1CFFB2A860B742C3D3286883223E
:104E1000C117090441EA104100040023FBF782F99D
:104E200032460023FBF77EF9286068688322C117A9
:104E3000090441EA104100040023FBF773F93246EC
:104E40000023FBF76FF96860A8688322C117090483
:104E500041EA104100040023FBF764F932460023C5
:104E6000FBF760F9A86020684FF40065C1170904DA
:104E700041EA104100042A460023FBF753F9324669
:104E80000023FBF74FF9206060682A46C117090428
:104E900041EA104100040023FBF744F932460023A5
:104EA000FBF740F96060A0682A46C117090441EA8F
:104EB000104100040023FBF735F932460023FBF7CD
:104EC00031F9A060002802DDA0F5803001E000F596
:104ED0008030A060002069E77C0000202DE9F84FB9
:104EE00081462E488846002540686B46032200789C
:104EF0000D21FDF709FC10B10720BDE8F88F9DF8E2
:104F00000000002400F01F008DF800009DF8010053
:104F10006FF00F0B00F01F008DF801009DF80200EC
:104F20006E4600F01F008DF802004FF0010A00BF2E
:104F300059F8241058F82400081A00D54042FBF70D
:104F4000ADFB5946FBF716FA0746305DC0B1144871
:104F500002E01449FBF79EF9315D491E11F0FF0193
:104F60003155F6D101463846FBF7C6F94FF07E5170
:104F7000FBF78AF90C4920F00040884205DC07E085
:104F80000A483844B0F1D97F02D90AFA04F005433F
:104F9000641C032CCCDB2846AFE700007C0000201B
:104FA0000000C84154E3853F295C0F3E0000E0BE8D
:104FB00000B5024600F00DF80346D01C00F009F8D9
:104FC00043EAC003901D00F004F843EA801080B269
:104FD00000BD90F90010002902DD4FF0000070477D
:104FE00002DA4FF00400704790F90110002902DD49
:104FF0004FF00100704702DA4FF00500704790F95A
:105000000200002802DD4FF00200704702DA4FF084
:10501000060070474FF0070070470000FCF73EF9AC
:10502000FDF754FEFDF7E2FBFDF722FCFDF732FD34
:10503000FDF75EFCFDF790FCFDF7DCFCFDF738FCAE
:105040006A48FCF7E5FC6A48FCF7E2FC6948FCF7B3
:10505000DFFC00216648FCF7EDFE00216548FCF707
:10506000E9FEFDF735FD00BFFDF7FEFA0028FBD194
:1050700006E0C820FBF728FD5FA164A0FEF752F808
:1050800000F0E4F90028F4D162A160A0FEF74AF82C
:10509000654A911E881EFDF7ABFA634A921F911E66
:1050A000881EFDF73DFAFDF733FDFDF711FD0223E4
:1050B0005EA219462820FDF799FD4FF47A70FBF7A0
:1050C00003FDFDF705FD01235AA202210020FDF793
:1050D0008DFD554C5C4F5D4D5D4EDFF81481DFF862
:1050E00014914FF4805A4FF4005B0A3C4E4A46320A
:1050F000111F081F00F0DCF850B94B4A921F911E97
:10510000881EFDF7E5F9484A911E881EFDF748FA0A
:10511000206A2063606A6063A06AA063E06AE0635B
:1051200051463846FBF7D2FD206259463846FBF718
:10513000CDFDA0624FF480413846FBF7C7FD6062A9
:105140004FF400413846FBF7C1FDE062226B216A53
:1051500091420DD061B1A16A21B1A26B12B1226C52
:10516000521C2264A26B114302D1216C491E21649E
:10517000626B616A91420CD059B120B1E16B11B1FF
:10518000616C491E6164E16B084302D1606C401C94
:105190006064B4F90800FBF781FA2E49FBF7ACF81C
:1051A000A061D4E91012002001F050F8E060A8429C
:1051B00000DB2846E060B04200D33046E060A269E0
:1051C000A16CFDF763FFFBF777FA6061206100F0E7
:1051D0007DFF2069002800DC40422061D8F80010E3
:1051E0004863D9F80010486380E70000640100209C
:1051F000AC010020F40100204D70753630353020B0
:10520000496E69742057726F6E67210025730D0A0D
:10521000000000004D70753630353020496E6974DD
:10522000204F4B2100000000220000207A696861B5
:105230006F0000002020202062616C616E63696E47
:105240006720636172000000000C014000004842CA
:10525000000048C200000343704700002DE9F04100
:10526000124C20F00101002594F8240010B1002018
:10527000BDE8F081A07A4FF0FF3668B10840277C86
:105280002074884200D0354641B1012000F08CFFE7
:1052900000F0B2FB38B127743046E9E7207D00B159
:1052A000012000F081FF2846E2E700007C0000209A
:1052B0002DE9F74F8EB00CA902A8CDE900010BAB88
:1052C00003AA09A907A8FFF7D1F818B1012011B066
:1052D000BDE8F08FBDF80800C0057DD50398FBF749
:1052E000DDF96FF01D042146FBF744F8824604986F
:1052F000FBF7D4F92146FBF73DF881460598FBF70B
:10530000CDF92146FBF736F880460698FBF7C6F93B
:105310002146FBF72FF8054601215046FBF72AF8F6
:1053200006464146FAF7B6FF04464FF0404148466C
:10533000FAF7B0FF07462946FAF7ACFF2146FAF71D
:1053400051FFFBF7E6F9FEF739FC4FF0663B5A4692
:105350003D4BFBF7C2F8FBF7EFF90E99086001210E
:105360004046FBF707F841460090FAF793FF0446E2
:1053700038464946FAF78EFF2146FAF785FF4FF087
:105380007E51FAF72FFFFBF7C4F907460C4630466B
:105390004946FAF77FFF064629460098FAF77AFF52
:1053A0003146FAF71FFFFBF7B4F93A462346FEF7FA
:1053B0004DFE5A46244BFBF790F8FBF7BDF90F99C9
:1053C000086029460846FAF765FF07464146084641
:1053D000FAF760FF064600E034E049460846FAF76F
:1053E00059FF044651460846FAF754FF2146FAF79A
:1053F000F9FE3146FAF748FF3946FAF745FFFBF761
:1054000088F906460C4629465046FAF743FF0546FA
:1054100041464846FAF73EFF2946FAF7E3FE0121E6
:10542000FAF7A8FFFBF775F932462346FEF70EFEA2
:105430005A46054BFBF751F8FBF77EF910990860C7
:10544000002044E7022042E766A64C4010B500F079
:10545000F1F888BB782000F0B3FD10F0FF0F01D009
:10546000012010BD7820FFF7F9FE10F0FF0F01D0EA
:10547000022010BD642000F063FD10F0FF0F01D08A
:10548000032010BDFEF7E8FF10F0FF0F01D004204D
:1054900010BD1548FFF78CFDFFF78EF910F0FF0FD8
:1054A00001D0052010BD40F27310FEF7ADFE10F0E4
:1054B000FF0F02D0062010BD14E06420FFF7E4F8CF
:1054C00010F0FF0F01D00720F5E700F02DFE08B126
:1054D0000820F0E7012000F059FC10F0FF0F01D088
:1054E0000920E8E70020E6E7A80000200D494A7AF5
:1054F00042B1012A08D0022A0FD0032A0FD04FF060
:10550000FF307047022200E004220270C97C11B112
:105510001106C90D0170002070470822F5E710221E
:10552000F3E700007C0000200F494A7A42B1012ACB
:1055300009D0022A11D0032A12D04FF0FF30704751
:105540004FF4804201E041F69C720280C97C11B1A7
:10555000C2F34E010180002070474FF48052F4E7FF
:105560004FF40062F1E700007C0000200B49097A4B
:1055700039B1012907D002290AD003290BD0002113
:1055800003E0FA2101E04FF4FA7101800020704736
:105590004FF47A71F9E74FF4FA61F6E77C000020E6
:1055A0000A49097A41B1012908D002290AD0032900
:1055B0000AD04FF0FF307047054900E0054901600F
:1055C000002070470449FAE70449F8E77C0000200E
:1055D00000000343000083423333034233338341EB
:1055E0000C49C97A072913D2DFE801F01204060A30
:1055F0000C0E1000BC2100E06221018000207047E9
:105600002A21FAE71421F8E70A21F6E70521F4E751
:105610000021F2E77C000020054991F8242012B116
:105620004FF0FF307047C9890180002070470000AB
:105630007C0000202DE9FC414C4C80208DF80000BE
:1056400020686B460122817C60680078FDF7BCF819
:105650004FF0FF37002832D16420FBF735FA0025E0
:105660008DF8005020686B460122817C60680078CC
:10567000FDF7AAF8002870D120686B460622817DCC
:1056800060680078FDF740F8002866D19DF80500B5
:105690009DF80310C007400F01F0010140EA4101ED
:1056A0009DF801004FF0010600F00100014309D010
:1056B000012905D0022915D02DA0FDF733FD4CE0BE
:1056C000E67410E020686B460122C17860680078BB
:1056D000FDF71AF840BB9DF8000010F00F0020D035
:1056E000042822D0E574FF2004F80A0F4FF6FF715A
:1056F00004F8020C04F8010C6070A180A071207203
:10570000A67026766576E572A572E560256165610D
:10571000A576E576A5834FF4FA6000F073FB18B91F
:1057200007E01D48FDF7FEFC17E01CA0FDF7FAFCA2
:10573000C6E7022000F088FA78B92A2000F0CAFBF8
:1057400058B9322000F0FCFB38B90020FFF786FD85
:1057500018B9002000F0ACFA10B13846BDE8FC8161
:10576000002000F02DFC0020F8E700007C00002065
:10577000556E737570706F7274656420736F6674A4
:10578000776172652070726F6475637420726576DC
:105790002025642E0A000000D077000848616C665E
:1057A0002073656E736974697669747920706172AB
:1057B0007420666F756E642E0A0000002DE9FF4F9D
:1057C000DFF89480064685B098F8250015460F4608
:1057D0004FF0FF39B0BBAFB3002420E0301B1028DE
:1057E00000DD102080B283463A19014692462046D9
:1057F00000F042FC30BB6A465946204600F0D2F821
:1058000000BB50465A466946FAF7DFFC20B16FF0FC
:10581000010009B0BDE8F08F04EB0B0084B2B44284
:10582000DCD3280A8DF810008DF81150D8F800004C
:10583000444604AB817ED8F8040002220078FCF7CD
:10584000C3FF08B14846E4E7012084F82500089822
:10585000E0840020DDE700007C0000202DE9F84313
:1058600005464FF0FF39282844D80727284C002642
:105870007DB1012000F0FCFA20208DF800004FF0EF
:105880000108012D17D0052D18D88DF801800520AD
:105890001FE0002000F0ECFA8DF800608DF8017038
:1058A00020686B460222817C60680078FCF78CFFE0
:1058B00000BB267529E08DF80160E8E7142D04D8B7
:1058C00002208DF801000A2003E003208DF801007A
:1058D000142000F0FFFA9DF801006B4607EB8010E2
:1058E0008DF8010020680222817C60680078FCF756
:1058F0006BFF10B14846BDE8F8830820A0722673FC
:1059000084F814800020FFF7A9FC0020F3E70000D2
:105910007C0000202DE9F843214C0646174694F8F8
:10592000240089464FF0FF3890B3A07A80B32068F6
:105930006B460222817A60680078FCF7E5FE38BB8E
:10594000BDF8000045BAB54202D2002038701FE011
:1059500060684188B5EB510F11D9216800786B461A
:10596000497C0122FCF7D0FE90B99DF80000C006EA
:1059700005D500F041F86FF00100BDE8F88320681C
:10598000F2B24B46C17A60680078FCF7BDFE08B100
:105990004046F2E7B5FBF6F0401E38700020ECE719
:1059A0007C000020F8B516000D464FF0FF371FD0E1
:1059B000104CA17AE1B1010A8DF80010C0B28DF847
:1059C0000100411960684289914211D8216800782C
:1059D0006B46097E0222FCF7F7FE48B92068EAB25E
:1059E0003346417D60680078FCF78EFE002800D0C9
:1059F0003846F8BD7C000020F8B5564C4FF0FF3615
:105A0000A07A00287DD000258DF8005020686B46D4
:105A10000122C17B60680078FCF7D6FE002870D1B7
:105A200020686B460122417960680078FCF7CCFE63
:105A3000002866D120686B460122017960680078F1
:105A4000FCF7C2FE00285CD194F82400E0B30C20DF
:105A50008DF8000020686B460122017960680078AB
:105A6000FCF7B2FE002872D13220FBF72DF8C020DF
:105A70008DF80000A07AC00702D0E0208DF8000069
:105A800020686B460122017960680078FCF79CFE73
:105A900000285CD1607C18B102208DF8000001E084
:105AA0008DF8005020686B460122C17B6068007849
:105AB000FCF78AFE28BB8DF8005020686B46012257
:105AC0004179606800783EE0FFE704208DF800002F
:105AD00020686B460122017960680078FCF774FE4B
