:020000040800F2
:100000001805002001010008D72D00084D1D00082B
:10001000D52D0008DF0A0008F92E000800000000B6
:10002000000000000000000000000000DB2D0008C0
:10003000E10A000800000000D92D0008DD2D0008AD
:100040001B0100081B0100081B0100081B01000820
:100050001B0100081B0100081B0100081B01000810
:100060001B0100081B0100081B0100081B01000800
:100070001B0100081B0100081B0100081B010008F0
:100080001B0100081B0100081B0100081B010008E0
:100090001B0100081B0100081B0100081B010008D0
:1000A0001B0100081B0100081B0100081B010008C0
:1000B0001B0100081B0100081B0100085D1D000852
:1000C000511D00081B0100081B0100081B0100084E
:1000D0001B0100081B0100081B0100081B01000890
:1000E0001B0100081B0100081B010008DFF80CD0F1
:1000F00000F092FC00480047F14D00081805002070
:100100000648804706480047FEE7FEE7FEE7FEE7B1
:10011000FEE7FEE7FEE7FEE7FEE7FEE73F2E00080C
:10012000ED0000082DE9F0410024061B254671F181
:10013000000605DA01240027D0EB070067EB010178
:10014000161E73F1000605DA0027D2EB070201251F
:1001500067EB030300F033FB86460E4617469C46CA
:10016000AC4204D00025D0EB050E65EB010624B1AE
:100170000020D2EB000760EB030C704631463A4694
:100180006346BDE8F081202A04DB203A21FA02F020
:100190000021704721FA02F3D040C2F120029140C1
:1001A000084319467047D2B201E000F8012B491EFE
:1001B000FBD270470022F6E710B513460A46044604
:1001C0001946FFF7F0FF204610BD30B50446002069
:1001D000034600E05B1C934203D2E05CCD5C401B15
:1001E000F8D030BDF0B480EA0102D40F4200B2EB87
:1001F000410F02D20246084611464A0042D0C30DC2
:10020000DDB2C1F3C752AD1A202D35DAC1F31601A4
:1002100041F4000204B15242C5F1200602FA06F18F
:100220002A411044B3EBD05F23D0C4B1012DA0EB21
:10023000C35009DCF0BC4FF0004202EAC352DBB20B
:1002400000F5000000F016BB400000F1807000EBEC
:10025000C350A0F1807040EAD170490009E049081C
:1002600041EAC071A0EBC35000F50000400800EB6C
:10027000C350F0BC00F0F5BA6142012202EB41012B
:10028000001BF6E7F0BC704781F00041AAE780F060
:100290000040A7E780EA010210B502F000434000E9
:1002A00022D04A001FD0010E01EB1261C0F35600AC
:1002B000C2F3560240F4000042F40002A0FB022008
:1002C00000047F39140400D0401C50EA124001D4CD
:1002D0004000491EC2B20C0604EBD010401C40087E
:1002E000802A02D003E0002010BD20F00100002988
:1002F00000DA0020184310BD30B480EA010202F099
:10030000004530F0004221F0004013D090B1C30D01
:10031000D40DC2F31601C0F31600E41A41F4000133
:1003200040F400027D34914201D3641C00E0490096
:10033000002C02DA30BC002070474FF4000000238C
:10034000914201D3891A034340084FEA4101F7D192
:1003500051B1914202D14FF0004105E002D24FF07D
:10036000010101E06FF0010103EBC450284430BCEF
:1003700000F077BA420005D0C0F3C7525242914212
:1003800001DC0020704700EBC15070472DE9FE4FA3
:10039000804681EA0300C00F0C46009021F0004126
:1003A00023F00045B8EB0200A94105D240462146A2
:1003B00090461C460B46024623F00040104347D0AF
:1003C000270DC7F30A00C3F30A510290401A0190A7
:1003D00040286BDAC3F3130040F4801B0098924668
:1003E00020B10023D2EB030A63EB0B0B01985946B3
:1003F000C0F14002504600F013FA06460D46504642
:100400005946019A00F01BFA10EB080061410024E4
:1004100087EA115284EAE7731A4340D0009A62B324
:10042000019A012A4FEA075215DC001B61EB020119
:100430004FF0004202EA0752CDE90042001C41F5AC
:10044000801132462B4600F052FA03B0BDE8F08F1F
:1004500040462146F9E7001B61EB0201001C41F513
:10046000801300185B412018A2F5001747EB030129
:1004700040EAD570B6196D4111E06D084FEA3606B5
:1004800045EAC0754FEA0752001B61EB0201001CF0
:1004900041F5801149084FEA3000001951413246B8
:1004A0002B4603B0BDE8F04F00F012BA00980122CD
:1004B00040000023D0EB020263EBE073009821467A
:1004C0004FEAE074B8EB000061EB0401E9E783F068
:1004D00000435BE781F0004158E72DE9FE4F81EAD8
:1004E000030404F0004421F0004100944FF0000B9D
:1004F00023F0004350EA01045ED052EA03045BD0CB
:10050000C3F30A54C1F30A552C44A4F2F334019402
:10051000A0FB0254C1F3130141F48011C3F3130390
:1005200043F4801301FB024400FB034E840A970A44
:1005300044EA815447EA8357A4FB076802958D0A71
:1005400005FB07854FEA932C04FB0C542705029DFD
:100550004FEA065847EA1637B5EB08056EEB070C6D
:10056000870E920E47EA811742EA8312A7FB020127
:10057000B6EB0B0164EB00042B0D43EA0C335E1861
:1005800044EB1C50DA465146E7FB0201C5F3130465
:100590004FEA0B3343EA14534FEA0432019C43EA17
:1005A0000603A4F10C040294009CCDE900B400F011
:1005B0009EF903B0BDE8F08F00200146F9E72DE970
:1005C000F04D81EA030404F0004B21F0004514468D
:1005D0004FF0000A23F0004150EA050220D054EA0F
:1005E00001021DD0C5F30A570246C5F31303C1F338
:1005F0001300C1F30A5640F4801543F48013A7EBAF
:100600000608101BD64608F2FD3873EB050002D32E
:1006100008F1010801E092185B41B8F1000F03DA1C
:1006200000200146BDE8F08D00204FF48011064601
:1006300084460EE0171B73EB050705D3121B63EB13
:10064000050306434CEA010C49084FEA30009218B2
:100650005B4150EA0107EDD152EA030012D082EA71
:10066000040083EA0501084305D0101BAB4106D204
:100670000122002306E000224FF0004302E06FF069
:10068000010253101AEB06004CEB085110EB0A0064
:1006900041EB0B01BDE8F04D00F01AB9C10F80EA43
:1006A000E0700844CA079623002100F0E3B89623BF
:1006B0000022114600F0DEB80EB5C10F80EAE070EE
:1006C0000844CA07002140F233438DE80E000A4671
:1006D0000B4600F00CF903B000BD00F0004220F022
:1006E0000040C10DC0F3160040F400007F2901DA7C
:1006F00000207047962903DCC1F19601C84001E053
:1007000096398840002AF4D04042704720F00040DB
:10071000C10DC0F3160040F400007F2901DA00206B
:100720007047962903DCC1F19601C840704796399D
:100730008840704700F0004230F000400AD0C10D00
:1007400001F56071C0F3160042EA0151C20840078A
:100750001143704700200146704701F0004330B458
:1007600021F0004150EA010206D00A0DA2F56072A4
:10077000C1F31301002A02DC30BC00207047440F93
:1007800044EAC104C100E01830BC00EBC25000F0E4
:1007900068B830B50B46014600202022012409E04C
:1007A00021FA02F59D4205D303FA02F5491B04FA2A
:1007B00002F52844151EA2F10102F1DC30BD2DE93D
:1007C000F05F0546002092469B46884606468146D5
:1007D00040241BE02846414647462246FFF7D3FC0B
:1007E00053465A46C01A914110D311461846224624
:1007F00000F016F82D1A67EB01084F46224601203B
:10080000002100F00DF817EB00094E41201EA4F165
:100810000104DFDC484631462A464346BDE8F09FE6
:10082000202A04DB203A00FA02F1002070479140B0
:10083000C2F1200320FA03F3194390407047202AA5
:1008400006DBCB17203A41FA02F043EAE07306E0F8
:1008500041FA02F3D040C2F1200291400843194608
:1008600070470029A8BF7047401C490008BF20F00E
:100870000100704710B4B0FA80FC00FA0CF050EAA6
:10088000010404BF10BC704749B1CCF1200421FA27
:1008900004F411FA0CF118BF012121430843A3EB22
:1008A0000C01CB1D4FEA00614FEA102042BF00202F
:1008B00010BC704700EBC35010440029A4BF10BC0B
:1008C0007047401C490008BF20F0010010BC704771
:1008D00010B5141E73F1000408DA401C41F1000148
:1008E00092185B411A4301D120F0010010BD2DE99F
:1008F000F04D92469B4611B1B1FA81F202E0B0FA96
:1009000080F220329046FFF78BFF04460F4640EA04
:100910000A0041EA0B0153465A46084313D01146D8
:1009200053EA010019D0C8F140025046FFF72BFCF2
:1009300005460E46504659464246FFF771FF0843AA
:1009400005D0012004E020463946BDE8F08D0020A6
:10095000054346EAE0762C4337430A986305E40AE8
:10096000A0EB08000022FD0A44EA47540A3002D5F1
:1009700000200146E9E7010510196941DDE9084554
:1009800000196941BDE8F04DA2E770B521F00043C0
:1009900003430CD0C1F30A550024D5EB040564EBE6
:1009A0000403D617AD1AB34102DB0020014670BD27
:1009B000201841EB025170BDC1F30A52C1F313017B
:1009C00040F2FF3341F480119A4202DA00200146DE
:1009D000704740F233439A42A2F2334202DC524261
:1009E000FFF7D1BBFFF71CBF30B5041E71F1000447
:1009F00004DB4FF00044404264EB0101141E73F12C
:100A0000000405DB1C464FF00043524263EB040335
:100A1000994208BF904230BD064C074D06E0E068A1
:100A200040F0010394E8070098471034AC42F6D335
:100A3000FFF760FB286D0008486D00082DE9F04DB8
:100A400000231A461B1A8A4103DB00200146BDE839
:100A5000F08DC1F30A52C1F3130141F480154FF038
:100A6000000BD10702D100186D41521E0027044629
:100A700040F2FF11384601EB620A3E4680460246CC
:100A800000204FF48011FFF77EFBC2197141BB18A3
:100A900046EB0100B4EB030C75EB000C04D3E41A35
:100AA00065EB000517460E46241908F101006D415B
:100AB00080463428E3DDF91946EB0600091BA841FE
:100AC00003D24FF0FF32134601E0002213461BEB26
:100AD000070046EB0A51BDE8F04DFFF7F9BEFEE70F
:100AE000704772B6FEE7000010B590F821100024A0
:100AF000022903D00421816301243DE001680A68D2
:100B000022F00E020A6001680A6822F001020A60FF
:100B10001A4A0168914201D1012121E0174A143299
:100B2000914201D110211BE0144A2832914201D197
:100B3000891515E0114A3C32914201D189140FE028
:100B40000E4A5032914202D14FF4803108E00B4AF4
:100B50006432914202D14FF4801101E04FF0807174
:100B6000064A083A5160012180F82110002180F8DE
:100B70002010416B01B18847204610BD080002409B
:100B800090F821007047000070B5044600F0FEF8B0
:100B90000546601C02D004480078044400F0F6F8D2
:100BA000401BA042FAD370BD200000202DE9F84F71
:100BB000DFF8B891002409F1040A0AF1040B234676
:100BC0000F270BF1040EC9E00125A5402A40AA42D7
:100BD0007DD1674ED1F804C0ACEB0608B44532D0E5
:100BE00014DCBCF1030F3AD009DCBCF1000F2AD0B1
:100BF000BCF1010F1CD0BCF1020F31D11DE0BCF1E2
:100C0000110F17D0BCF1120F2AD119E0B8F5881FC7
:100C100019D006DCB8F5803F15D0B8F5801F1FD17C
:100C200011E0B8F5001F0ED0B8F5041F18D10AE086
:100C3000CB6815E0CB681B1D12E0CB6808330FE0D2
:100C4000CB680C330CE08B682BB1012B4FF0080301
:100C500003D0456104E0042302E0056100E00023C5
:100C6000FF2A01D8064601E000F104064FEA840598
:100C700001D9A5F12005D6F8008007FA05FC28EA7D
:100C80000C0803FA05F548EA0508C6F800804D6827
:100C9000ED0062D5374DAE6946F00106AE61AD6933
:100CA00024F0030605F001050095334D06EB050C15
:100CB000DCF80850A607360F07FA06F825EA0805FB
:100CC000DFF8B880404503D14FF0000817E044E05A
:100CD000DFF8AC80404502D14FF001080FE0DFF8AB
:100CE000A480404502D14FF0020808E0DFF8988068
:100CF000404502D14FF0030801E04FF0040808FA24
:100D000006F848EA0508CCF808804D68D9F8006074
:100D1000ED034D4601D5164300E096432E604D6825
:100D2000DAF80060AD03554601D5164300E096435E
:100D30002E604D68DBF80060ED025D4601D516437C
:100D400000E096432E604D68DEF80060AD02754607
:100D500001D5164300E096432E60641C0D682A46B8
:100D6000E5407FF431AFBDE8F88F0000000401409A
:100D70000000111000100240000001400008014076
:100D8000000C01400010014000140140014880683F
:100D90007047000020000020704770472DE9F041A7
:100DA000016804464A694E6890F83E000025D74322
:100DB000FA050BD4F243D20508D46FF480720125F2
:100DC0004A6121680A6842F400420A60B90508D401
:100DD000F143C90505D422686FF4007145F002059E
:100DE0005161790525D4F143C90522D4638D94F866
:100DF0003D10226B202808D13BB9212910D0292988
:100E00000ED0282901D1212A0AD022686FF48061EE
:100E1000516145F00405102806D0402804D008E0B0
:100E2000204601F075FC04E02068016841F400717F
:100E30000160380508D4F043C00505D421686FF47B
:100E4000006045F008054861002D07D0206C28435C
:100E500020642046BDE8F04100F0E4BFBDE8F08129
:100E60002DE9F047026800215368C66A90F83E40B9
:100E700090F83D50102C12D0402C10D0046C002C57
:100E80007DD05469E443A6077AD4DE43B60577D40F
:100E9000036C03B19169BDE8F04701F015BC976997
:100EA00051694FF42A0CC9435FEAC1784FF02A49CF
:100EB00004D066452AD04E4528D010E0DE43B60562
:100EC0000DD4C16A614501D1012103E0C16A4945E0
:100ED00001D10821C162BDE8F04701F08DBA0E07CB
:100EE00016D4DE43B60513D4416CC9B21161416B0F
:100EF00009B1896A29B9816B002907D0896A00295B
:100F000004D00068416841F400614160BDE8F087A9
:100F10008E0706D4DE43B60503D4BDE8F04701F0E2
:100F2000BFB9FE43526876074FEA02521DD4002A29
:100F3000ECDB0A0608D4DA43520505D4490705D587
:100F4000BDE8F04701F050B94907DFD4D94389051E
:100F5000DCD4212D05D0402CD8D1BDE8F04701F0DC
:100F600091BABDE8F04701F0FDB8002ACEDB4A0691
:100F70000BD4DA43520508D4490708D501E00DE047
:100F80000EE0BDE8F04701F079B84907BED4D94377
:100F90008905BBD4BDE8F04701F007B8916970E757
:100FA000E10606D4D943890503D4BDE8F04701F032
:100FB000F1BB2821212D27D0292D25D0650655D418
:100FC000DD436D0552D4640752D590F83D30448D11
:100FD000002C9BD01269446A2270426A521C426201
:100FE000428D521E4285428D002A8FD12A2B8DD1EF
:100FF0000268536823F4806353602222026380F8FE
:101000003D1000F00FFB81E7250623D4DD436D057D
:1010100020D4640720D590F83D30448D002CF2D0C8
:10102000446A24781461426A521C4262428D521E04
:101030004285428D002AE6D1292BE4D1026853680B
:1010400023F4806353602122026380F83D1000F096
:10105000EAFA5BE76107D6D4D9438905D3D4418D39
:101060000029D0D0416A097811610AE06107CAD429
:10107000D9438905C7D4418D0029C4D01169426A7A
:101080001170416A491C4162418D491E41853DE70D
:101090007047000070B5040025D094F83D0000258D
:1010A00020B984F83C50204600F07EFA242084F8D1
:1010B0003D002068016821F001010160206801689D
:1010C00041F4004101602068016821F400410160A1
:1010D00000F0D8FB4D4A6168914201D84C4900E0CC
:1010E0004C49884201D2012070BD4B492368B0FBB6
:1010F000F1F15E6826F03F060E435E60636893423E
:1011000006D94FF4967359434FF47A73B1FBF3F158
:101110002368491C1E6A26F03F0631431962616844
:10112000914210D84900401EB0FBF1F2521CC2F3AC
:101130000B02042A01D2042022E0B0FBF1F0401C93
:10114000C0F30B001CE0A268F2B301EBC10303EB98
:101150000116431EB3FBF6F35B1C43F480431B05EF
:1011600049D092B301EBC10202EB0111401EB0FB6A
:10117000F1F0401CC0F30B0040F4804040F400400C
:101180002168CA694CF6FF739A431043C861D4E9D9
:10119000071001432068026822F0C0021143016079
:1011A000D4E9030101432068826848F2FF339A437F
:1011B00011438160D4E9050108432168CA6822F01F
:1011C000FF021043C86001E00EE016E020680168ED
:1011D00041F0010101602564202084F83D00256371
:1011E00084F83E50002070BD01EB4106431EB3FB66
:1011F000F6F35B1CB3E70120C2E701EB4101401E9F
:10120000B0FBF1F0401CC0F30B00B7E7A086010073
:1012100080841E0000093D0040420F007047704767
:1012200070477047704700002DE9FF4F83B00025DD
:10123000DDE910799A4693460446DDF8488000952A
:10124000FFF7A4FD064694F83D0020287CD1192321
:10125000012285492046009601F070FB0028F5D157
:1012600094F83C0001286FD0012084F83C002068ED
:101270000168C90703D1016841F0010101602068DC
:10128000016821F400610160222084F83D004020C3
:1012900084F83E0025646762A4F82A90608D20855A
:1012A0007248E062CDE9008653465A4620460499CA
:1012B00001F038F900287DD1208DDFF8B491202786
:1012C00068B1012814D00228206801681ED041F4BA
:1012D000806101602068416980690090B6E0206803
:1012E000416981690091016841F400710160ADE0DC
:1012F0002068016821F48061016072B6206841694C
:1013000081690091016841F400710AE041F40061D3
:10131000016072B62068416981690091016821F419
:101320008061016062B691E0032868D801280CD082
:10133000022843464FF000024946204600960FD04F
:1013400001F0FCFAB0BB10E08BE03246414620468B
:1013500001F073FB70BB20680069616A08706CE083
:1013600001F0ECFA30BB72B634E02068016821F479
:101370008061016072B620680069616A0870606A05
:10138000401C6062208D401E2085608D401E60855F
:10139000384846F2A8110068B0FBF1F0C0EBC0007D
:1013A00000EB80000090401E009008D0206840694B
:1013B000C04300E029E040070CD50098F3E744F86B
:1013C000305F6773A573206940F02000206162B62A
:1013D00025731AE02068016841F4007101602068FB
:1013E0000069616A0870606A401C6062218D491E54
:1013F0002185618D491E618562B621681BE03246F8
:101400004146204601F019FB18B1012007B0BDE8A4
:10141000F08F20680069616A0870606A401C606231
:10142000218D491E2185618D491E618521684A698A
:10143000D24352070AD409690170606A401C606295
:10144000208D401E2085608D401E6085208D0028E7
:101450007FF46AAF84F83D7084F83E5084F83C50C5
:10146000D4E70220D2E70000020010000000FFFFD6
:10147000040001002C0000202DE9FF4F83B09A46A4
:10148000DDE9119793460446DDF84080FFF77EFCC6
:10149000054694F83D0020287FD1192301224049B8
:1014A0002046009501F04AFA002876D194F83C00D5
:1014B000012872D0012084F83C0020680168C90727
:1014C00003D1016841F0010101602068016821F445
:1014D00000610160212084F83D00402084F83E0036
:1014E00000262664C4F82480A4F82A90608D208504
:1014F0002C48E062CDE9007553465A4620460499CF
:1015000001F08EF870B930E02A463946204601F0E5
:10151000C7FA58B1206C042804D12068016841F44E
:1015200000710160012007B0BDE8F08F606A21689A
:1015300000780861606A401C6062218D491E89B292
:101540002185628D521E628522685369DB435B07E9
:101550000BD469B100781061606A401C6062208D14
:10156000401E2085608D401E6085208D0028CBD1D7
:101570002A463946204601F0BBF90028CAD154F862
:101580003D0B016841F400710160202004F81E0940
:10159000E67766770020C6E7FFE70220C3E7000092
:1015A000020010000000FFFF10B586B0002100917E
:1015B0000191029103910068174988422AD1174C82
:1015C000A06940F00800A061A069694600F0080029
:1015D0000490C02000901220019003200390104836
:1015E000FFF7E4FAE06940F40010E061E0690022EE
:1015F00000F40010049011461F2000F07BF81F201B
:1016000000F06AF800221146202000F073F8202034
:1016100000F062F806B010BD005400400010024017
:10162000000C0140704770470248816802781144FD
:101630008160704720000020074810B5016841F024
:1016400010010160032000F075F80F2000F006F88B
:1016500000F024F8002010BD0020024070B50D4DB0
:1016600004464FF47A712878B1FBF0F00A49096812
:10167000B1FBF0F000F0ECFA48B9102C07D20022D0
:101680002146501E00F036F800206C6070BD01202D
:1016900070BD0000200000202C0000200C4808B580
:1016A000816941F001018161816901F001010091CD
:1016B000C16941F08051C161C06900F08050009063
:1016C0000448416821F0E06141F00071416008BDCB
:1016D0000010024000000140002809DB00F01F025A
:1016E000012191404009800000F1E020C0F8001184
:1016F00070470000F0B40E4B1B680C46C3F3022386
:10170000C3F10705042D00D90425191D072901D2AD
:10171000002300E0DB1E012606FA05F1491E2140E8
:1017200099409E40761E16403143F0BC01F00ABC41
:101730000CED00E0064900F0070208684FF6FF03D1
:10174000184040EA0220034A104308607047000036
:101750000CED00E00000FA052DE9F0470F4605000A
:1017600061D0434E306800F00700B84209D23068BB
:1017700020F0070038433060306800F00700B842BE
:1017800051D128683B4C810712D5400703D56068CA
:1017900040F4E06060602878000703D5606840F49A
:1017A000605060606068A96820F0F00008436060E5
:1017B0002878C00728D06868012810D0216802283E
:1017C00010D0890700292EDA616821F00301014356
:1017D0006160FFF7DBFA804641F288390DE021684D
:1017E0008903EFE78901EDE7FFF7D0FAA0EB0801E5
:1017F000494502D90320BDE8F0876068696800F0B8
:101800000C00B0EB810FEFD1306800F00700B84258
:101810000BD9306820F0070038433060306800F0A2
:101820000700B84201D00120E5E72878400705D538
:101830006068E96820F4E060084360602878000789
:1018400006D56068296920F4605040EAC1006060F4
:1018500000F038F86168084AC1F30311515CC840D0
:101860000649086006480068FFF7F8FE0020C2E756
:101870000020024000100240885F00082C00002079
:10188000240000200448054900684968044AC1F35F
:101890000221515CC84070472C000020001002401B
:1018A000985F00080448054900684968044AC1F384
:1018B000C221515CC84070472C000020001002403B
:1018C000985F000812A185B00FC98DE80F0014A021
:1018D000144A006804905168134801F00C03042B6B
:1018E00010D0082B0ED1C1F38343C9031DF80300A8
:1018F0000AD5516804AAC1F34041515C0A4A5043D9
:10190000B0FBF1F005B0704708494843FAE7000022
:1019100002030405060708090A0B0C0D0E0F101030
:10192000010200000010024000127A0000093D0090
:101930002DE9F84F040070D02078C04DC00749D081
:101940006868C0F38100012807D06868C0F381008F
:10195000022809D16868C00306D52868800339D5F4
:1019600060680028E7D035E06068B0F5803F0BD0B4
:1019700010B1B0F5A02F11D0286820F48030286075
:10198000286820F4802002E0286840F48030286035
:10199000606890B1FFF7FAF906460AE0286840F45B
:1019A00080202860F0E700BFFFF7F0F9801B642873
:1019B00073D828688003F7D50CE0FFF7E7F90646EF
:1019C00005E000BFFFF7E2F9801B6428F0D8286823
:1019D0008003F7D420789A4E80074FF001094FF02A
:1019E000000839D5686810F00C0F07D06868C0F39C
:1019F0008100022809D16868C00306D428688007DE
:101A000014D52069012808D110E02069B0B1C6F8CA
:101A10000090FFF7BBF9074605E00AE1FFF7B6F9CA
:101A2000C01B0228C4D828688007F7D528686169D8
:101A300020F0F80040EAC10028600DE0C6F8008000
:101A4000FFF7A4F9074604E0FFF7A0F9C01B02283E
:101A500023D828688007F7D4207800072CD5794848
:101A6000A169D9B1C0F80090FFF790F9074604E0EA
:101A7000FFF78CF9C01B02280FD8686A8007F7D5DA
:101A800071484FF4FA510068B0FBF1F0009000BFCC
:101A90000098411E0091FAD20EE080E0C0F800806C
:101AA000FFF774F9074604E0FFF770F9C01B02283E
:101AB00075D8686A8007F7D42078400760D5E86950
:101AC0000027C00008D4E86940F08050E861E86968
:101AD000012700F0805000905C480168C90513D4CC
:101AE0000168834641F480710160FFF74FF9824637
:101AF00006E000BFFFF74AF9A0EB0A0064284ED8C1
:101B0000DBF80000C005F5D5E06801280AD008B16F
:101B1000052813D0286A20F001002862286A20F0E6
:101B2000040002E0286A40F001002862E06841F207
:101B3000883B98B1FFF72AF982460BE0286A40F00B
:101B400004002862EEE700BFFFF720F9A0EB0A01CE
:101B500059455AD8286A8007F6D50CE0FFF716F9E0
:101B6000824605E0FFF712F9A0EB0A0159454CD86F
:101B7000286A8007F6D41FB1E86920F08050E86138
:101B8000E06988B36968C1F38101022944D0022861
:101B9000C6F8608004D0FFF7F9F8044638E034E076
:101BA000FFF7F4F8074604E0FFF7F0F8C01B02283F
:101BB0002BD828688001F7D4206AB0F5803F05D182
:101BC0006868A16820F4003008436860D4E908011F
:101BD0000843696821F4741108436860C6F860908E
:101BE000FFF7D4F8044606E025E000BFFFF7CEF883
:101BF000001B022809D828688001F7D51BE000BF28
:101C0000FFF7C4F8001B022802D90320BDE8F88FB3
:101C100028688001F4D40EE00128F7D06868226AB1
:101C200000F48031914204D1616A00F4701088425E
:101C300001D00120EAE70020E8E7000000100240A0
:101C400000004242800442422C000020007000400C
:101C500010B5401EB0F1807F01D3012010BD4FF0C0
:101C6000E02460610F21601701F06CF90020A06191
:101C700007202061002010BD70B5040004D094F846
:101C80003D00002510B106E0012070BD84F83C50F5
:101C9000204600F023F8242084F83D002068C16825
:101CA00021F40051C160204601F0CAF820680169A2
:101CB00021F4904101612068416921F02A014161CC
:101CC0002068C16841F40051C1602564202084F877
:101CD0003D0084F83E00002070BD000030B585B0A6
:101CE00000240094019402940394006814498842EB
:101CF00024D11448816941F480418161816901F4F2
:101D000080410491816941F00401816180690E4D37
:101D100000F0040004904FF4007000900220019045
:101D20000320039069462846FEF740FF2815CDE9B9
:101D30000004694628460294FEF738FF05B030BD1E
:101D4000003801400010024000080140FEE700009A
:101D50000148FFF723B800006C0000200148FFF79E
:101D60007FB800006C00002038B5406A002190F870
:101D70003D202B4B46F2A8141B68B3FBF4F3C3EBD6
:101D8000C30303EB830300933BB15B1E0093036823
:101D90001B689B0505D5009BF6E7036C43F0200309
:101DA0000364436B03B19962836B03B19962036867
:101DB0001C6824F480641C604185436B03B1596343
:101DC000836B03B1596303681C6824F001041C6031
:101DD00090F83D402023602C0BD0282434EA0202E6
:101DE0000FD080F83D3080F83E1000BFFFF750F96B
:101DF00038BD80F83D3080F83E100164FEF7CCFF1E
:101E000038BD0268136843F0010313600268136869
:101E100043F480631360016380F83D40E6E700000F
:101E20002C00002070B5044690F83D0094F83E1058
:101E3000102901D0402906D1222804D121680A683E
:101E400022F400620A60282131EA00024FF0000506
:101E50004FF0200626D021684968090505D460287E
:101E600003D084F83D6084F83E50256320684168C3
:101E7000090537D5416821F400614160606B3D4937
:101E800090F82120012A11D04163606BFEF72CFEEF
:101E900038B32068016821F00101016084F83D60D9
:101EA000606B1CE0256384F83D10DFE7A06B4163A5
:101EB000A06BFEF719FEA0B120684169C94349062D
:101EC00005D40069616A0870606A401C606220681D
:101ED000016821F00101016084F83D60A06B416B55
:101EE000884710E094F83D10602910D04169C9433B
:101EF000490605D40069616A0870606A401C606226
:101F00002046FFF7C5F8206CC1071CD115E084F806
:101F10003D6025644169C943490605D40069616A89
:101F20000870606A401C60622068016821F001014D
:101F300001602046FEF730FFE5E7810703D4410743
:101F400001D4000704D52068416821F4E0614160B4
:101F500094F83D00216C49070BD5282809D1064883
:101F6000E062256384F83D6084F83E502046FFF728
:101F700055F970BD691D00080000FFFF01684A693E
:101F8000D24352050FD46FF480624A61002140F8B9
:101F9000301F202242738173026942F00402026101
:101FA0000173012070470020704710B5C26A438D4D
:101FB0000168042B06D0438D032B08D0438D022BE0
:101FC0001DD012E04A6822F480624A600CE04B683F
:101FD00023F480634B60042A06D0022A04D00168EF
:101FE0000A6822F480620A6001680969426A117015
:101FF000416A491C4162418D491E418510BD012A3B
:1020000030D0102A2ED0042A30D0022A2ED00A68CE
:1020100042F400720A6001680969426A1170416AFB
:10202000491C4162428D521E4285026812690A7043
:10203000416A491C4162418D491E418501684A68D7
:1020400022F440724A60202180F83D1090F83E2032
:102050000021402A80F83E100CD012210163FFF7C6
:10206000DEF810BD0A6822F48062D3E70A6842F401
:102070008062CFE70163FFF7D4F810BD38B590F860
:102080003D10222914D1418D032912D90168096913
:10209000426A1170416A491C4162418D491E418565
:1020A000418D032904D10068416821F480614160B9
:1020B00038BDC26A022AFBD0012901D00029F7D11C
:1020C000274946F2A81300220968B1FBF3F101EB9E
:1020D0008101009101682023009C641E009422D09D
:1020E0000C68A405F8D40C6824F480640C600168C2
:1020F0004C6824F4E0644C6001680969446A21700A
:10210000416A491C4162418D491E418580F83D303C
:1021100090F83E1080F83E2040291DD01221016326
:10212000FFF77DF838BD046C44F0200404644C686B
:1021300024F4E0644C6001680969446A2170416AD2
:10214000491C4162418D491E418580F83D3080F82F
:102150003E20FEF79DFF38BD0263FFF762F838BDF1
:102160002C00002010B5C26A90F83D1021290BD137
:10217000418D51B1416A026809781161416A491C77
:102180004162418D491E418510BD20230021082A4E
:1021900013D0202A11D012F5803F0ED00268546867
:1021A00024F4E06454601122026380F83E1080F849
:1021B0003D3000BFFFF734F810BD0268546824F4C6
:1021C000E06454600268146844F4007414600163AD
:1021D00080F83D3090F83E2080F83E10402AE9D14A
:1021E000FFF720F810BD000010B590F83D1090F8F2
:1021F0003E30C26A048DB4B1212903D0402B11D1E5
:1022000022290FD1418DE1B390F83E10402942D0F0
:10221000416A026809781161416A491C4162418D35
:10222000491E418510BD2129E8D120230021082A1B
:1022300013D0202A11D012F5803F0ED002685468C6
:1022400024F4E06454601122026380F83E1080F8A8
:102250003D3000BFFEF7E4FF10BD0268546824F46F
:10226000E06454600268146844F40074146001630C
:1022700080F83D3090F83E2080F83E10402AE9D1A9
:1022800000E002E0FEF7CEFF10BD0068416821F4D7
:102290008061416010BDBDE8104000F0F3B800005F
:1022A00078B590F83E50C26A046B90F83D60002308
:1022B0000168222E73D1066D0EB9402D6FD0056DC9
:1022C0001DB90569B5F5404F1BD0458D95B3468DB9
:1022D000484D012E20D0448D022C4DD00C6844F482
:1022E00080640C6001684C68240579D5AA4273D0DB
:1022F000012A71D0082A6FD0102A6DD0202A6BD005
:102300006EE04A698A6900920A6842F480720A6043
:10231000016D491C016578BDAA4214D10A6822F4F6
:1023200080620A6001684A68120504D50A6822F4CE
:10233000806217E0FFE74A698A6900920A6842F4FE
:1023400000720A6050E0082A10D0202A0ED0122C09
:102350000AD0042A03D0022A01D0102AE6D10A6842
:1023600042F480620A603BE0012ADFD00A6822F46E
:1023700080620A600168DEE7042A11D0022A0FD0C9
:10238000102A0DD00C6844F400640C6001684C699C
:102390008C6900940C6824F480640C6008E025E0EB
:1023A0000C6844F480640C6001684C698969009190
:1023B00001684C68240517D5AA4207D0012A05D028
:1023C000082A03D0102A01D0202A0DD14A6842F4ED
:1023D00080524A6008E0FFE74A6842F480524A604F
:1023E00001684A6989690091036578BD486988690F
:1023F000009078BD0000FFFF90F83E10402910D0FB
:102400000169B1F5804F19D0016DA9B3016D0129A2
:1024100010D1416C5FF0F10201F4407142EAD11138
:1024200006E0016D0029416C05D0C9B241F00101FF
:1024300000680161704701F0FE01F9E790F83D1076
:102440002129416C09D0C9B241F001010268116132
:10245000416B29B1896A49B902E001F0FE01F5E753
:10246000816B0029E6D0896A0029E3D000684168C1
:1024700041F4006141607047FFE7416CF02201F4D4
:102480004071CBE710B590F83D10026D22B3026D9C
:10249000012A2FD0026D022A1DD122292FD0428D70
:1024A0000AB1212933D0428D002A14D1212912D119
:1024B00001684A6822F4E0624A6001680A6842F4EE
:1024C00000720A6000210163202280F83D2080F81C
:1024D0003E10FEF7A7FE10BDC16C0129816C02D031
:1024E000C1F3072108E00268C9B21161016D891CBE
:1024F000016510BD816CC9B20268116104E0016818
:102500000A6842F480720A60016D491CF0E7416A72
:10251000026809781161416A491C4162418D491E76
:10252000418510BD2DE9F84F0446006889460B9D92
:1025300001689846174641F480610160206801688F
:1025400041F48071016000954FF0011B0022594653
:1025500020460A9B00F0F2F94FF4007A40B120685F
:102560000068C00501D5C4F840A00320BDE8F88F7D
:10257000216809F0FE0008612B46284920460A9A86
:1025800000F010FAF0BB20684169806900902A468B
:1025900020460A9900F084FA40B1206C04283AD110
:1025A0002068016841F40071016034E0FEB2B8F1C6
:1025B000010F09D02168380A08612A4620460A9985
:1025C00000F06EFA0028E8D1206806612A4620460D
:1025D0000A9900F065FA0028DFD12068016841F40B
:1025E0008071016000950022594620460A9B00F048
:1025F000A5F90028B3D1216809F0FF0040F00100DF
:10260000086100E007E02B46044920460A9A00F0E2
:10261000C9F90028AAD00120A8E7000002000100A3
:102620002DE9F843044600680D46DDE90897016886
:102630009846164641F4807101604B4600224FF0E7
:1026400001112046009700F079F948B12068006830
:10265000C00502D54FF4007020640320BDE8F88364
:10266000216805F0FE0008613B464A4615492046B0
:1026700000F098F988B920684169806900903A466D
:102680004946204600F00CFA48B1206C042804D1D9
:102690002068016841F4007101600120DEE7F5B2B5
:1026A000B8F1010F09D02168300A08613A4649465D
:1026B000204600F0F5F90028E7D1206805610020E8
:1026C000CCE700000200010038B50C4690F83D2030
:1026D00000212825954302680B4605D05169916970
:1026E000009180F83C3038BD556825F48065556010
:1026F000E243540700D50121120601D5828900E08A
:10270000028B80F83C3092B2FEF747FB38BD0000E8
:102710002DE9F04190F83D40C26A002320261C4F6D
:1027200001686FF48065082A01D0202A01D1282C85
:1027300004D0212C16D04D61BDE8F081C7624A68F3
:1027400022F4E0624A6001684D6101680A6822F47F
:1027500080620A60036380F83D6080F83E30FEF7D7
:102760005DFDE9E7C7622122026380F83D6080F8E1
:102770003E304A6822F4E0624A6001684D610168B7
:102780000A6822F480620A60FEF74DFFD4E7000079
:102790000000FFFFF8B590F83D600446006841680E
:1027A00021F4E061416020680025416900910168E1
:1027B00041F0010101602068016821F4806101603D
:1027C00020684168090520D5474F222E48D02A2E7F
:1027D00046D0616B096849686185618D19B1216CCA
:1027E00041F004012164416821F400614160606BA3
:1027F000FEF7C6F9012808D0606B4763606BFEF7EF
:1028000073F910B1606B416B8847608D08B3206825
:102810004169C943490708D40069616A0870606A60
:10282000401C6062608D401E608520684169C9431C
:10283000490608D40069616A0870606A401C6062D9
:10284000608D401E6085608D18B1206C40F00400E2
:102850002064206C00B32046BDE8F840FFF7E2BAE0
:10286000A16B096849686185618D19B1216C41F0DE
:1028700004012164416821F400614160A06BFEF70E
:102880007FF90128C1D0A06B4763A06BFEF72CF93C
:102890000028BAD0A06BB6E72A2E06D125632820DF
:1028A00084F83D002046FEF7BDFE94F83D10202040
:1028B00028290DD0216B222901D0222E07D1256392
:1028C00084F83D0084F83E502046FEF7ABFEF8BD8C
:1028D0000649E162256384F83D0084F83E502046B5
:1028E000FEF79CFCF8BD0000691D00080000FFFF1A
:1028F00070B516460D4604460DE02046FFF73EFB38
:1029000008B1012070BD681C05D0FEF73FFA801B9E
:10291000A84207D835B120684069C0434007ECD4CD
:10292000002070BD002044F8300F20216173A07397
:10293000216941F0200121612073E2E72DE9F04790
:102940001E4690460D460446C1F30747DDF8209029
:1029500008E0701C06D0FEF719FAA0EB0900B0429F
:102960000FD876B12068012F18D0806925EA0000C1
:102970000004000C14D000214145EAD00020BDE83D
:10298000F087002044F8300F20216173A073216983
:1029900041F02001216120730120F0E74069E5E763
:1029A0000121E9E72DE9F0479A4691460E46044693
:1029B00000254FF02008C1F3074725E02068406953
:1029C000C043400514D42068016841F400710160DF
:1029D00021686FF480604861256384F83D8084F845
:1029E0003E50206C40F00400206484F83C501FE00E
:1029F000B9F1FF3F08D0FEF7C9F9A0EB0A0149453C
:102A00000CD8B9F1000F09D02068012F13D08069CC
:102A100026EA00000004000C0BD0CFE744F8305F3A
:102A200084F80D80A573206940F020002061257393
:102A30000120BDE8F0874069EAE72DE9F041002573
:102A400090460E460446202717E04069C043C00662
:102A50000CD454F8301B6FF01000486144F8105942
:102A60006777A577206A2062257717E0FEF78EF951
:102A7000A0EB0800B04208D83EB120684169C943C4
:102A80004906E2D40020BDE8F08144F8305F677366
:102A9000A573206940F02000206125730120F2E732
:102AA00070B516460D4604460DE02046FFF766FA5F
:102AB00008B1012070BD681C05D0FEF767F9801BC6
:102AC000A84207D835B120684069C0430006ECD45D
:102AD000002070BD002044F8300F20216173A073E6
:102AE000216941F0200121612073E2E77CB51446A1
:102AF0000D4606466B4606223B21682000F09EF8F4
:102B000000280BD1BDF8001049BA3180BDF8021081
:102B100049BA2980BDF8041049BA21807CBD7CB532
:102B200014460D4606466B4606224321682000F0F7
:102B300085F800280BD1BDF8001049BA3180BDF8E6
:102B4000021049BA2980BDF8041049BA21807CBD21
:102B500008B56B4602224121682000F06FF8BDF8ED
:102B6000000040BA00B2FDF7A7FD0022074BFDF7B9
:102B700026FD074A074BFDF709FCFDF7EEFD064968
:102B8000FDF788FBFDF7A9FD00B208BD00407540C8
:102B9000A4703D0AD74342400000C84210B58021CE
:102BA0006B2000F097F86420FDF7EEFF00216B200A
:102BB00000F090F8032000F058F8002000F050F8E2
:102BC000322000F06FF80021382000F083F8002157
:102BD0006A2000F07FF80021232000F07BF880219C
:102BE000372000F077F8752000F012F8682801D03F
:102BF000012010BD01216B2000F06CF800216C2039
:102C000000F068F8322000F04DF8002010BD000000
:102C10001FB56423012203A98DE80E001346024666
:102C2000D0210548FEF700FB10B1012004B010BD13
:102C30009DF80C00FAE700006C0000203EB5400053
:102C4000CDE900320A466424014602940123034878
:102C5000FEF7EAFA002800D001203EBD6C000020FB
:102C6000C006010E1C2000F035B8C006010E1B2066
:102C700000F030B8BC2801D3012110E0622801D354
:102C800002210CE02A2801D3032108E0142801D3F3
:102C9000042104E00A2801D3052100E006211A20BE
:102CA00000F018B810B504464FF47A70844201D988
:102CB000044602E0042C00D20424B0FBF4F0401ED1
:102CC000C1B2192000F006F86008BDE81040FFF717
:102CD000D1BF000003B583B06423012204A98DE8AD
:102CE0000E0013460246D0210348FEF7C5FB00281C
:102CF00000D0012005B000BD6C0000203EB54000B2
:102D0000CDE900320A4664240146029401230348B7
:102D1000FEF7B2FB002800D001203EBD6C00002071
:102D20000D4808B5816941F020018161816901F098
:102D300020010091816941F004018161816901F004
:102D400004010091816941F008018161806900F00E
:102D50000800009008BD0000001002400D4810B5AA
:102D60000B4901600C49416000214FF480428160B1
:102D7000C0E9031241618161C1610162FEF78AF914
:102D8000002803D0BDE81040FDF7ABBE10BD000029
:102D9000005400406C000020A08601000C4810B5D3
:102DA0000A4901604FF4E1314160002181600C2249
:102DB000C160C0E904128161C161FEF75DFF0028B6
:102DC00003D0BDE81040FDF78CBE10BD00380140B7
:102DD000C0000020FEE7FEE770477047FEF724BC06
:102DE00030B58FB028216846FDF7E4F914210AA810
:102DF000FDF7E0F901210804CDE900100024029458
:102E000002250491CDE907504FF4E010099068467F
:102E1000FEF78EFD08B172B6FEE70F20CDE90A0578
:102E20004FF48060CDE90C4002210AA80E94FEF711
:102E300093FC002801D072B6FEE70FB030BD70479A
:102E400070B5044600680169E26821F440511143FD
:102E500001612169A0680843616908432168CA6863
:102E600041F20C639A430243CA6020684169A26937
:102E700021F44071114341611E492068884202D10A
:102E8000FEF710FD01E0FEF7FDFC00EBC00101EBD9
:102E90000012606864218000B2FBF0F3B3FBF1F331
:102EA0006FF018067343B2FBF0F5B2FBF0F605EBDA
:102EB0008305322303EB0515B5FBF1F5B6FBF1F6FF
:102EC00005F0F00505EB0615B2FBF0F6B2FBF0F0ED
:102ED000B0FBF1F06FF01802504306EB800003EBFB
:102EE0000010B0FBF1F0216800F00F00284488606A
:102EF00070BD000000380140FEE700000FB4054B34
:102F000010B503A9044A029800F06CF910BC5DF8F2
:102F100014FB0000D94800081C000020490050EABA
:102F2000C12018BF04204A0D18BF40F0010040F234
:102F3000FF72B2EB515F08BF40F00200012808BFEA
:102F4000052070470907090E002804DB00F1E02086
:102F500080F80014704700F00F0000F1E02080F8C6
:102F6000141D70472DE9F0414F1E00EBC7010446C8
:102F7000D1E9000115461E4637F006020DD02A465B
:102F80003346FDF7AAFA7F1E04EBC703D3E90023FB
:102F9000FDF7FCF937F00602F1D1022F25D0042FFE
:102FA00013D0062F18BFBDE8F0812A463346FDF73F
:102FB00094FAD4E90A23FDF7E9F92A463346FDF7E6
:102FC0008CFAD4E90823FDF7E1F92A463346FDF7E8
:102FD00084FAD4E90623FDF7D9F92A463346FDF7EA
:102FE0007CFAD4E90423FDF7D1F92A463346FDF7EC
:102FF00074FAD4E90223FDF7C9F92A463346FDF7EE
:103000006CFAD4E90023BDE8F041FDF7BFB9012215
:10301000FDF7BBBCFDF7BAB90022134610461146B6
:10302000FDF7CDBA024A00201107FDF7AEBC000043
:1030300001FDFFFF02E008C8121F08C1002AFAD1F3
:1030400070477047002001E001C1121F002AFBD128
:1030500070470000014908607047000068000020C8
:103060002DE9FF5F82B00021DDE90430020DDDF8BB
:1030700040B0034318D044F61050A2F2FF3242434E
:103080001514119801281FD0A5EB0B00401C5FEA16
:10309000000A4FF000064E4FDFF83891B046504618
:1030A00015D5CAF1000413E0119801244AA30128A0
:1030B00001D16FEA0B010298119AC0E90031C0E911
:1030C000024206B0BDE8F09FCBF10000DFE7044606
:1030D0000021404A491842EB0450CDE9001012E0AB
:1030E000E00707D032463B4640464946FDF7F5F932
:1030F0008046894632463B4610461946FDF7EDF9B3
:1031000006460F466410002CEAD1DDE90401DDE932
:103110000023BAF1000F06DAFDF7DFF942464B460D
:10312000FDF7DBF905E0FDF74AFA42464B46FDF7AD
:1031300046FA04460E460022284BFDF755FC03D8FC
:103140004FF0FF30014607E00022254B2046314674
:10315000FDF71CF9FDF730FC102409E0002C0ADB18
:103160000A220023FDF72BFB039B30321A55641E05
:1031700050EA0102F2D1641C039AC4F11103144411
:10318000119A012A03D0012208430DD10AE0084315
:1031900004D000204FF0110B119072E7A3EB0B0548
:1031A0006D1E0DE05B4504DD4FF0000205F10105E9
:1031B00004E003DA4FF00002A5F10105002AECD08B
:1031C00002981199C0E90231C0E9004579E7000091
:1031D000000014400000F03F300000000000F04309
:1031E0000000E03F2DE9FF4F95B09B46894606461B
:1031F00000250FE2252877D100242746F84A01212F
:10320000059400E0044316F8013F203B01FA03F067
:103210001042F7D130782A2811D06FF02F03307880
:10322000A0F13002092A16D8059A44F0020402EBF4
:10323000820203EB42021044761C0590EFE759F836
:10324000042B0592002A03DA504244F400540590FE
:1032500044F00204761C30782E2816D116F8010F9F
:1032600044F004042A280DD06FF02F023078A0F12A
:103270003003092B09D807EB870302EB4303C71878
:10328000761CF3E759F8047B761C30786C280FD055
:1032900006DC4C2817D068280DD06A2814D104E029
:1032A000742810D07A280FD10DE044F400140AE0FD
:1032B00044F4801401E044F440147278824202D154
:1032C00004F58014761C761C307866280BD013DC4D
:1032D000582877D009DC002875D04528F6D0462834
:1032E000F4D047281AD19DE118E0632835D064282E
:1032F00079D0652812D195E1702873D008DC672851
:10330000F1D069286FD06E280DD06F2806D1B5E0B6
:1033100073282CD0752875D0782874D05A46179900
:1033200090476D1C75E1C4F30250022809D00328B0
:103330000DD0D9F8001004280DD00D6009F1040952
:1033400067E1D9F80010EA17C1E90052F6E7D9F8A9
:1033500000100D80F2E70D70F0E719F8041B8DF8EE
:10336000001000208DF80100EA46012003E059F822
:1033700004AB4FF0FF3061074FF0000102D40DE0C5
:1033800008F101018846B9420FDA8045F8DB1AF8E6
:1033900008100029F4D108E008F1010188468142B3
:1033A000FADB1AF808100029F6D105985B46A0EB65
:1033B000080721463846179A00F094FA284400EB93
:1033C000080507E04DE029E10DE01AF8010B5A4627
:1033D00017999047B8F10108F7D25B462146384665
:1033E000179A13E142E00A220092C4F302524FF00E
:1033F000000A022A08D059F804CB032A4FEAEC71DC
:103400000AD00DE029E02AE009F1070121F00702C6
:10341000F2E802C1914609E00FFA8CFC4FEAEC7128
:10342000042A03D14FFA8CFC4FEAEC71002907DA29
:103430000A460021DCF1000C61EB02012D2202E0C2
:10344000220504D52B228DF80420012203E0E20797
:1034500001D02022F7E7904659E00A2102E010222D
:103460000DE010214FF0000A00910BE010224FF008
:10347000000A44F004040827009203E008224FF0F9
:10348000000A0092C4F30252022A05D059F804CB74
:103490000021032A08D009E009F1070121F0070201
:1034A000F2E802C1914605E01FFA8CFC042A01D122
:1034B0000CF0FF0C4FF00008220728D5702806D02A
:1034C000009B83F0100353EA0A0305D00EE040226C
:1034D0008DF80420012208E05CEA010206D03022C7
:1034E0008DF804208DF8050002229046009B83F0A1
:1034F000080353EA0A030AD15CEA010201D1620718
:1035000005D530228DF804204FF001087F1E582881
:1035100004D034A003900EA802900DE036A0F9E785
:1035200053466046009AFDF74AF984460398825C48
:103530000298401E029002705CEA0100F0D10298ED
:1035400006A9081A00F1200A600702D524F4803485
:1035500000E00127574502DDA7EB0A0000E000204C
:1035600000EB0A01009005984144401A0590E003E1
:1035700006D45B462146179A059800F0B3F9054436
:10358000002706E001A85A46C05D179990476D1CB8
:103590007F1C4745F6DBE0030CD55B462146179AB6
:1035A000059800F09FF9054404E030205A46179929
:1035B00090476D1C0099481E00900029F5DC08E03A
:1035C000029802995A460078491C0291179990472F
:1035D0006D1CBAF10001AAF1010AF1DC65E10000FD
:1035E00009280100303132333435363738396162D9
:1035F000636465660000000030313233343536379D
:1036000038394142434445460000000000F058F973
:103610000544761C307800287FF4ECAD19B02846BC
:10362000BDE8F08F620700D4062709F1070222F0F7
:10363000070CFCE80223E14603F000485FEA080CAF
:1036400002D00FF2702C0DE05FEA045C02D50FF29D
:10365000682C07E05FEAC47C02D00FF2602C01E026
:10366000AFF2700C4FF0FF3823F00043CDF850C09C
:1036700065280CD006DC452809D046281DD04728EF
:103680003DD13DE0662818D067287ED138E0002182
:10369000112F01DB112000E0781CCDE9000106A903
:1036A0000EA8FFF7DDFCDDE90F010E9A0391002162
:1036B000009207F1010A04914DE04FF0004000979D
:1036C000CDE9011006A90EA8FFF7CAFCDDE90F023B
:1036D00003920E9B11990022DDF80CA00093049236
:1036E00011B9791C00EB010AB7EB0A0004D4C0F150
:1036F000FF3007F1010A0490AAEB0700019044E0B3
:10370000012F00DA01270021112F01DD112000E037
:103710003846CDE9000106A90EA8FFF7A1FCDDE9B6
:103720000F010E9A0391002104910092BA462107DD
:103730000CD40399514500DA8A46BAF1010F05DD30
:10374000009AAAF10101515C302908D0B84202DA8E
:1037500010F1040F06DA0121CDE9011015E0AAF1FC
:103760000101E9E7002805DC049901440491AAEB72
:10377000000102E0411C514500DD8A460499401ACF
:10378000401C01904FF000400290200704D40198A3
:10379000504501DBCDF8048000208DF84F000298E1
:1037A0000DF14F07B0F1004F25D02B200E9002985D
:1037B0004FF0020800280CDA404202902D200E90B3
:1037C00007E00A210298FCF7E4FF3031029007F885
:1037D000011DB8F10001A8F10108F2DC02980028EF
:1037E000EFD1791E0E980870307800F0200040F07C
:1037F000450007F8020D12A8C01B00F10708149835
:10380000007800B1012000EB0A01019801EBE071A2
:1038100005984144401A401E0590E00306D45B46DB
:103820002146179A059800F05DF805441498007831
:1038300018B15A46179990476D1CE00324D55B4692
:103840002146179A059800F04DF805441CE00498AD
:10385000002807DBDDE90301884203DD0098405CB6
:10386000179901E0179930205A469047049805F1BE
:103870000105401C04900198401E019004D12E20A7
:103880005A46179990476D1CBAF10001AAF1010A36
:10389000DDDC05E017F8010B5A46179990476D1CBF
:1038A000B8F10001A8F10108F4DC5B462146179A43
:1038B0000598ABE62D0000002B0000002000000062
:1038C0002DE9F041044600251E461746880404D41D
:1038D00005E039462020B0476D1C641EF9D5284606
:1038E000BDE8F0812DE9F041044600251E469046D2
:1038F000C80301D5302700E02027880404D505E05F
:1039000041463846B0476D1C641EF9D52846BDE8CF
:10391000F08100002DE9FE4F07460E46002568465F
:1039200000F0E6FF00246FF00F0AE8464FF00109AF
:1039300057F8240056F82410401A00D54042FCF7EE
:10394000ADFE5146FCF716FD58F8241011F0FF4F5C
:103950000BD0FCF7D1FC4FF07E51FCF795FC0A49E7
:1039600020F00040884205DC07E008490844084987
:10397000884202D309FA04F00543641C032CD7DB08
:103980002846BDE8FE8F0000295C0F3E666666C1D2
:103990009A99D9002DE9F04D8D4F21F0004A86B05B
:1039A00005460C46BA452ADBAAEB070028430AD095
:1039B0008848824501DC1AD1CDB106B02846BDE861
:1039C000F04DFFF724BB844A844B2846FCF785FD65
:1039D00007460E46824A834B28462146FCF77DFD6A
:1039E00006B03A463346BDE8F04DFCF7CFBC0120A7
:1039F000FFF730FB06B0BDE8F04DFFF70DBB7A488E
:103A0000824542DABAF1795F0BDA2846FFF786FA87
:103A1000042808BFFFF706FB284606B02146BDE88C
:103A2000F08D2A460B461046FCF757FD83460246AA
:103A30006E480E460B4606217844FFF793FA5A4625
:103A40003346FCF74AFD804669488A465A46334663
:103A500004217844FFF786FA5A463346FCF73DFDC9
:103A600000223B46FCF792FC02460B46404651467C
:103A7000FCF7A5FD2A462346FCF72FFD06B02A4693
:103A80002346BDE8F04DFCF781BC284624F00041F8
:103A900000223D463B46FCF71DFD4FF0FF32FCF790
:103AA00074FF0646024653480F460B4606217844EB
:103AB000FFF758FA32463B46FCF70FFDCDE900010F
:103AC0004D4832463B4604217844FFF74BFA3246D4
:103AD0003B46FCF702FD00222B46FCF757FC8346D1
:103AE00002913046394602F029FA804643480D4695
:103AF000504517DCDDE900015A46029BFCF75FFDEB
:103B000042462B46FCF7E9FC42462B46FCF73EFCBE
:103B10000122FCF73AFF304A304BFCF7D8FC304A20
:103B2000304B4CE04FF0000A52460B464046FCF743
:103B30002DFCCDE9031052462B4610461946FCF7E2
:103B4000CCFC32463B46FCF7C5FCDDE90332FCF712
:103B500036FD06460F46DDE900015A46029BFCF79A
:103B60002EFD83460091012230463946FCF70DFFB9
:103B7000194A1A4BFCF7AEFC06460F460122404696
:103B80002946FCF702FF5A46009BFCF7A6FC32468A
:103B90003B46FCF79CFC06460F4601225046294650
:103BA000FCF7F3FE0E4DDFF858802A464346FCF73B
:103BB00091FC32463B46FCF78DFC2A464346FCF717
:103BC00089FC002CD8BF81F0004106B0BDE8F08D23
:103BD0000000F03F0000F07F075C143326A6913C04
:103BE000182D4454FB21F93F0000E03FAC310000A8
:103BF000C2310000363100004C3100003333EF3F5A
:103C0000FB21E93F2DE9F84F04460D4621F0004025
:103C100000917349814211DC7249884201DC06D16E
:103C20002CB120462946BDE8F84FFFF7F0B96E48A1
:103C3000002DCCBF6D496E49BDE8F88F6D498142BA
:103C400011DD6D498142D8BF4FF0FF366DDD204652
:103C50002946FFF763F9042808BFFFF7E3F9204678
:103C60002946BDE8F88F6549654F25F0004581423A
:103C700033DD6449814219DD002632464FF080432E
:103C800020462946FCF782FB80468A4601222046D0
:103C90002946FCF77AFE00223B46FCF718FC424618
:103CA0005346FCF78CFC04460D463EE001260022FC
:103CB000BA463B4620462946FCF768FB80460F463D
:103CC0000022534620462946FCF701FC42463B466B
:103CD000FCF775FC04460D4627E04B4981421BDD8D
:103CE000DFF828A102260022534620462946FCF789
:103CF000F4FB00223B46FCF749FB80460F460022BE
:103D0000534620462946FCF7E2FB42463B46FCF779
:103D100056FC04460D4608E0032622462B460020AA
:103D20003B49FCF74CFC04460D4622462B46104608
:103D30001946FCF7D2FB8B46824602460B46FCF73F
:103D4000CCFB07460246334888460B46062178449A
:103D5000FFF708F952465B46FCF7BFFB82462E4848
:103D60008B463A46434605217844FFF7FBF83A462E
:103D70004346FCF7B2FB02460B46002E504659461E
:103D80000CDAFCF703FB22462B46FCF7A6FB01B03E
:103D900022462B46BDE8F04FFCF79CBBFCF7F6FA39
:103DA00022462B46FCF799FB1C4A7A4402EBC603D9
:103DB000D3E90023FCF78BFB22462B46FCF787FB5D
:103DC000174A7A4402EBC603D3E90023FCF782FBCF
:103DD000009A002AB8BF81F00041BDE8F88F0000CA
:103DE000000010440000F07F182D4454FB21F93FDF
:103DF000FB21F9BF0000DC3F0000203E0000F33F44
:103E00000000F03F0000E63F008003400000F83F64
:103E10000000F0BF4E2F00000C2F0000AA2E000063
:103E2000722E00002DE9F04D9446CCF1000423F0F1
:103E300000464CEA0404524F46EAD4749A46884637
:103E400021F00042BC4206D8454240EA050442EA5D
:103E5000D474BC4204D9BDE8F04D6246FFF7DAB82D
:103E6000AAF14055A5F17F6555EA0C040BD0022458
:103E700004EAAA74434DDFF810E144EAD87452EA28
:103E8000000B04D00CE0BDE8F04DFFF7BBBE002CEA
:103E900014BF012CBDE8F08D022C30D0032C32D0A1
:103EA00056EA0C0B0AD0BE4220D1BA4209D126F004
:103EB000804622F080423346114617E000291ADB83
:103EC00025E0DFF8C8B0FB44002C04BFDBE90001AB
:103ED000BDE8F08D012C02BFDBE9000181F000415B
:103EE000BDE8F08D022C0AD0032C0CD0BA4212D1BE
:103EF000B8F1000F0BDA23482549BDE8F08D2846BC
:103F00002449BDE8F08D28467146BDE8F08D1D4876
:103F10002149BDE8F08D921B12153C2AC4BF1948F7
:103F20001D490EDCBAF1000FBEBF12F13C0F00209C
:103F3000014606DB6246FCF742FB21F00041FFF739
:103F400061FE002C08BFBDE8F08D012C04BF81F09C
:103F50000041BDE8F08D114A114B022C07D0FCF74F
:103F6000B6FA2A46BDE8F04D0A4BFCF7B0BAFCF7AA
:103F7000AEFA2A46BDE8F04D064BFCF7ABBA00009E
:103F80000000F07F182D4454FB2109C0062E0000CC
:103F9000FB21F9BFFB210940FB21F93F075C1433EA
:103FA00026A6A13C08B560B120208DF8000028208D
:103FB0008DF8010030208DF8020038208DF80300C4
:103FC00004E0A32204216846FCF7EDF86A460421C8
:103FD00040F69E2001F01CFF01F0DAFB08BD000056
:103FE0003EB5044602208DF80000CA208DF801007D
:103FF000E3208DF8020009208DF803006A460421B1
:10400000682001F005FFA3208DF80000610609D5A6
:10401000C0218DF80110C8218DF80210C2218DF841
:10402000031005E08DF801008DF802008DF8030003
:1040300014F4C07F09D0C4218DF80410CC218DF870
:104040000510C6218DF8061005E08DF804008DF8E6
:1040500005008DF806008DF808008DF807008DF832
:1040600009006A460A2140F6A72001F0D1FEA00708
:104070004FF0D80503D020208DF8000001E08DF826
:1040800000506A46012140F6B62001F0C1FEA006AC
:1040900001D5012000E0002000F08EF814F4C07F6C
:1040A0001ED0E0050AD5B2208DF800008B208DF8D7
:1040B0000100B6208DF802009B2009E0B0208DF8A9
:1040C000000080208DF80100B4208DF802009020BF
:1040D0008DF803006A46042140F6A22001F098FE04
:1040E000E1074FF40B6022D0F8218DF800106A46EA
:1040F000012101F08DFEFA21072000F039FB072095
:1041000000F004FB012000F021FB642000F0C4FB60
:104110004FF4FA7000F0D0FBC821254800F0BEFA39
:10412000282000F0D3FA0A2000F0E0FA05E08DF82C
:1041300000506A46012101F06BFEA00703D5D9208B
:104140008DF8000001E08DF800506A46012140F230
:104150003D7001F05DFE600701D5012000E0002008
:1041600000F048F8E00601D5012000E00020FFF74C
:1041700019FF104D44F00800688101F009FB002090
:10418000A873600601D50620A87314F4C07F02D07E
:10419000A87B801DA87314F0140F02D0A87B1030E8
:1041A000A873A00702D0A87B001DA87300203EBD05
:1041B00009E3CA02040100200EB54FF4976310B161
:1041C00006A107C901E008A207CA8DE807006A46F0
:1041D0000921184601F01CFE0EBD0000B8AAB38DDF
:1041E000B4980D355D000000B8AAAAAAB088C3C56E
:1041F000C700000008B560B1C0208DF80000C220E3
:104200008DF80100C4208DF80200C6208DF803004F
:1042100004E08B2204216846FBF7C5FF6A460421AF
:1042200040F6982001F0F4FD01F0B2FA08BD00005C
:10423000C8234FF48062024940F6F63001F08AB993
:10424000F05F00082DE9FF4F89B01746DDE91652EF
:1042500000244C4E884681462C80A246B07B69469D
:1042600001F024FA4FF0FF3B18B158460DB0BDE8FD
:10427000F08F708910F0140F3CD0009909BA21F02A
:10428000FF039DF803100B433B6001991B1409BA0F
:1042900021F0FF029DF807105B430A437A60029900
:1042A0009DF80B4009BA21F0FF012143B960039C3E
:1042B000091424BA24F0FF0C9DF80F4012144CEAA4
:1042C000040CC7F80CC04FEA2C47494302FB0232EA
:1042D00007FB071111441024A1F17061B1F1007FB7
:1042E00004D901F055FAA5F800A0BEE7298841F4E9
:1042F000807129804206694611D50A19A41D1388C8
:104300005BBAA8F8003053885BBAA8F802309288EC
:1043100052BAA8F804202A8842F008022A8010F431
:10432000C07F11D00A19A41D13885BBAA9F8003008
:1043300053885BBAA9F80230928852BAA9F80420CF
:104340002A8842F070022A80800716D00C44E07858
:1043500000F0C00500F03F016078C00706D0C80833
:1043600001F007013268491C02B1904760780007EC
:1043700003D5716809B1A80988470C9800F038FE88
:10438000002073E7040100202DE9FF41044603A843
:1043900000F096FFBDF80C00410CC3032F480289C2
:1043A00002F00300550754F8200000D54042C2F344
:1043B000C105960654F8255000D56D42C2F381160A
:1043C000D20554F8264000D56442A0FB0367C2170B
:1043D00002FB037200FB0120820042EA9670A5FBFB
:1043E0000367EA1702FB037205FB0122950045EA09
:1043F0009672A4FB0367E51705FB037304FB013109
:104400008B0043EA9671030E8DF80030030C8DF893
:104410000130030A8DF802308DF80300100E8DF87C
:104420000400100C8DF80500100A8DF80600080E27
:104430008DF80800080C8DF80900080A8DF80A00AC
:104440008DF807208DF80B106A460C214FF425706B
:1044500001F0DEFC04B0BDE8F081000004010020A2
:1044600030B5044613A285B007CA8DE807004FF0A7
:10447000FF35C82C16D8C820B0FBF4F1491E080A35
:104480008DF80C008DF80D1003AA022140F21620C1
:1044900001F0BEFC30B96A460C2140F6C12001F0A3
:1044A000B7FC10B1284605B030BD05488481002016
:1044B000F9E70000FEF2ABC4AAF1DFDFBBAFDFDF3C
:1044C00004010020F8B53049098901F0030250F8D1
:1044D00022404A0700D56442C1F3C1028B0650F85E
:1044E000222000D55242C1F3811350F82330C80571
:1044F00000D55B42254984FB0140850045EA947064
:1045000082FB0142A40F44EA820483FB0121950F40
:1045100045EA8105010E8DF80010010C8DF801109F
:10452000010A8DF802108DF803006A4604214FF449
:10453000747001F06DFC4FF0FF3688B9200E8DF8D5
:104540000000200C8DF80100200A8DF802008DF883
:1045500003406A4604214FF4757001F059FC08B11C
:104560003046F8BD280E8DF80000280C8DF80100AB
:10457000280A8DF802008DF803506A4604214FF492
:10458000767001F045FCF8BD0401002009E3CA0281
:104590002DE9FF4104463CA004F0030300680290AB
:1045A0003AA0006803903AA006683AA0056802A8FD
:1045B000C15C8DF80010C4F3C101425C8DF801208C
:1045C000C4F38112805C8DF8020003A8C35C8DF8EF
:1045D0000430415C8DF80510805C8DF806006A4659
:1045E000032140F2264001F013FC4FF0FF37E0BBFF
:1045F00001AA032140F22A4001F00AFCA8BBCDE940
:10460000006560070BD59DF8000040F001008DF8B3
:1046100000009DF8040040F001008DF80400A006A1
:104620000BD59DF8010040F001008DF801009DF8C8
:10463000050040F001008DF80500E0050BD59DF860
:10464000020040F001008DF802009DF8060040F0E5
:1046500001008DF806006A4603214FF4886001F0DE
:10466000D7FB10B901AA032100E004E040F2314079
:1046700001F0CEFB18B1384604B0BDE8F081064821
:1046800004810020F8E700004CCD6C000CC92C0020
:104690003656760026466600040100204FF47A72F2
:1046A00090FBF2F008B54843010E8DF80010010CA4
:1046B0008DF80110010A8DF802108DF803006A468A
:1046C00004214FF4AE7001F0A3FB08BD0521B0FB3F
:1046D000F1F008B5010A8DF800108DF801006A4666
:1046E00002214FF4AD7001F093FB08BD0521B0FB32
:1046F000F1F008B5010A8DF800108DF801006A4646
:1047000002214FF4AC7001F083FB08BD08B5002115
:104710008DF80010C10702D030218DF800108107FC
:1047200005D59DF8001041F00C018DF800104007F0
:1047300005D59DF8000040F003008DF800006A46A2
:1047400001214FF4A47001F063FB08BD08B560B10E
:10475000042800D90420401E8DF800006A4601217B
:1047600040F24F1001F054FB08BD0120F3E70000B8
:104770002DE9FC41054640074FF0FF367CD0B1F5EE
:10478000C86F79D80846FBF792FF3E49FBF7B4FDA6
:10479000074601A800F076FD9DF80400022806D027
:1047A00004280DD008282ED0102865D134E00E2121
:1047B0003846FBF7DFFDFBF7A9FF84B2324907E07B
:1047C0000D213846FBF7D6FDFBF7A0FF2F4984B239
:1047D0003846FBF75FFDFBF799FF210A8DF80010C3
:1047E00080B28DF80140010A8DF802108DF80300A7
:1047F000E8076C4620D0224602214FF4EA7001F00F
:1048000007FBC8BB11E00C213846FBF7B3FDFBF7F3
:104810007DFF84B21E49DBE70B213846FBF7AAFD7A
:10482000FBF774FF84B21B49D2E7A21C02214FF4AC
:10483000927001F0EDFAF8B9A8070DD56A46022189
:104840004FF4EC7001F0E4FAB0B9A21C02214FF46D
:10485000947001F0DDFA78B9680710D56A46022134
:104860004FF4EE7001F0D4FA30B9A21C02214FF4DB
:10487000967001F0CDFA10B13046BDE8FC81002001
:10488000FBE7000000004843000040460000C04530
:10489000000040450000C0440521B0FBF1F008B520
:1048A000010A8DF800108DF801006A4602214FF4CC
:1048B000EF7001F0ADFA08BD0521B0FBF1F008B5CD
:1048C000010A8DF800108DF801006A4602214FF4AC
:1048D000ED7001F09DFA08BD04490A685206FCD546
:1048E000024AC1B2121D1160704700000038014039
:1048F0002DE9FE430646264801AB042240680D21FF
:104900000078FEF79BF910B10720BDE8FE839DF803
:1049100004101C2000EAD1029DF80710DFF8749003
:10492000C1F301131A438DF800209DF80520C1F34F
:10493000810300EAD2021A438DF801209DF8062077
:1049400001F0030100EAD20008430024124F8DF861
:104950000200A0466D46285D10B146F824900AE09A
:1049600046F824800DE000BF56F824003946FBF7D6
:1049700091FC46F82400285D401E10F0FF002855E9
:10498000F2D1641CE4B2032CE5D30020BDE70000A3
:10499000300000207B14AE3E1D5A843F2DE9FE4FAF
:1049A00005460120C14E8DF800004FF000088DF83B
:1049B000018030680C461746817C70686B46022285
:1049C0000078FEF79BF94FF0FF3A00287AD1C82013
:1049D000FCF7DAF88DF8008030686B460122C17B65
:1049E00070680078FEF78AF90028EFD130686B46CE
:1049F0000122417970680078FEF780F90028E5D13E
:104A000030686B460122817C70680078FEF776F989
:104A10000028DBD130686B460122C17D70680078C8
:104A2000FEF76CF90028D1D130686B46012201797C
:104A300070680078FEF762F90028C7D14FF00C09C2
:104A40008DF8009030686B4601220179706800781B
:104A5000FEF754F9002835D10F20FCF795F8B06A1D
:104A60006B460122407A8DF80000306881787068CA
:104A70000078FEF743F9002824D1B06A6B46012282
:104A8000007A8DF800003068417870680078FEF791
:104A900035F9002873D1B06A807A0FB140F0E00098
:104AA0008DF8000030686B460122817970680078CB
:104AB000FEF724F9002862D12FB1B06AC07A40F025
:104AC000E00001E04AE018208DF8000030686B46F5
:104AD0000122C17970680078FEF710F9F0BB17B1B8
:104AE000C820FCF751F840208DF8000030686B4674
:104AF0000122017970680078FEF700F970BB782018
:104B00008DF8000030686B460122417970680078AA
:104B1000FEF7F4F810BB3220FCF736F88DF8008071
:104B2000306847466B464179706801220078FEF78D
:104B3000E5F898B931687068B046897A00786B46B4
:104B40000222FEF77BF848B9BDF80000AF6040BA1A
:104B5000B0FBF9F06F60C6B22F6000E00FE0A76015
:104B600067602760002739E0D8F80010D8F8040003
:104B70006B46C97A00780C22FEF760F810B15046F7
:104B8000BDE8FE8FBDF80000236840BA02B2BDF850
:104B90000200BDF804101A44226040BA626800B2F4
:104BA0001044606049BAA06809B20844A060BDF82A
:104BB00006002B6840BA02B2BDF808001A4440BA99
:104BC00001B2BDF80A002A606A6840BA11446960FF
:104BD000A96800B208447F1CFFB2A860B742C3D3E3
:104BE00028688322C117090441EA10410004002308
:104BF000FBF798FA32460023FBF794FA28606868BE
:104C00008322C117090441EA104100040023FBF785
:104C100089FA32460023FBF785FA6860A868832288
:104C2000C117090441EA104100040023FBF77AFA96
:104C300032460023FBF776FAA86020684FF400653F
:104C4000C117090441EA104100042A460023FBF77A
:104C500069FA32460023FBF765FA206060682A464D
:104C6000C117090441EA104100040023FBF75AFA76
:104C700032460023FBF756FA6060A0682A46C11747
:104C8000090441EA104100040023FBF74BFA3246C5
:104C90000023FBF747FAA060002802DDA0F5803072
:104CA00001E000F58030A060002069E730000020BE
:104CB0002DE9F84F81462E488846002540686B460E
:104CC000032200780D21FDF7B9FF10B10720BDE8E0
:104CD000F88F9DF80000002400F01F008DF8000000
:104CE0009DF801006FF00F0B00F01F008DF8010020
:104CF0009DF802006E4600F01F008DF802004FF094
:104D0000010A00BF59F8241058F82400081A00D5E9
:104D10004042FBF7C3FC5946FBF72CFB0746305DCE
:104D2000C0B1144802E01449FBF7B4FA315D491EE2
:104D300011F0FF013155F6D101463846FBF7DCFA98
:104D40004FF07E51FBF7A0FA0C4920F0004088425A
:104D500005DC07E00A483844B0F1D97F02D90AFAE5
:104D600004F00543641C032CCCDB2846AFE70000AD
:104D7000300000200000C84154E3853F295C0F3E0D
:104D80000000E0BE00B5024600F00DF80346D01C5E
:104D900000F009F843EAC003901D00F004F843EA6C
:104DA000801080B200BD90F90010002902DD4FF0A4
:104DB0000000704702DA4FF00400704790F90110CC
:104DC000002902DD4FF00100704702DA4FF00500C4
:104DD000704790F90200002802DD4FF00200704792
:104DE00002DA4FF0060070474FF0070070470000EE
:104DF0001FB5FCF721FCFDF7F3FFFDF791FFFDF771
:104E0000ADFFFDF7CBFF00BFFDF7C8FE0028FBD1CB
:104E100048A103E0C820FBF7B7FE48A14CA0FEF76D
:104E20006DF800F0DFF90028F4D14BA148A0FEF79F
:104E300065F84E4A111F081F00F006F9002875D1C9
:104E4000FDF786FE494C183C221DA081911E881E4C
:104E5000FDF74CFE04F10A02911E881EFDF75FFE6D
:104E6000A069FBF767FC074688466069FBF762FCB0
:104E700005460E462069FBF75DFC8DE8E001024621
:104E80000B463BA0FEF73AF8B4F90400FBF706FC2A
:104E9000DFF800914946FBF72FFAFBF74BFC07467A
:104EA0008846B4F90200FBF7F9FB4946FBF724FA00
:104EB000FBF740FC05460E46B4F90000FBF7EEFB9D
:104EC0004946FBF719FAFBF735FC8DE8E00102468D
:104ED0000B4631A0FEF712F8B4F90A00FBF7DEFB2F
:104EE000DFF8E0904946FBF707FAFBF723FC07469B
:104EF0008846B4F90800FBF7D1FB4946FBF7FCF9FB
:104F0000FBF718FC05460E46B4F90600FBF7C6FB96
:104F10004946FBF7F1F9FBF70DFC02460B4600E0B2
:104F200004E08DE8E00128A0FDF7E8FF6420FBF72E
:104F30002BFE7EE77A6968616F0000004D70753660
:104F400030353020496E69742057726F6E672100CA
:104F500025730D0A000000004D7075363035302085
:104F6000496E6974204F4B2100000000180000209A
:104F7000C8FDD6E1BDC7B6C82864656729A3BA25B0
:104F80002E31662020252E31662020252E31660DFB
:104F90000A00000000FC7F46C8FDD6E1BCD3CBD997
:104FA000B6C8286D2F735E3229A3BA252E316667E5
:104FB0002020252E3166672020252E3166670D0AB8
:104FC0000000000000000343C8FDD6E1BDC7BDC717
:104FD000B6C8286465672F7329A3BA252E316620C9
:104FE00020252E31662020252E31660D0A00000076
:104FF000704700002DE9F041124C20F0010100251E
:1050000094F8240010B10020BDE8F081A07A4FF0A0
:10501000FF3668B10840277C2074884200D03546AE
:1050200041B1012000F05EFF00F0B2FB38B12774FF
:105030003046E9E7207D00B1012000F053FF28460B
:10504000E2E70000300000202DE9F74F8EB00CA9F8
:1050500002A8CDE900010BAB03AA09A907A8FFF735
:10506000F1F818B1012011B0BDE8F08FBDF80800CB
:10507000C0057DD50398FBF711FB6FF01D04214699
:10508000FBF778F982460498FBF708FB2146FBF70B
:1050900071F981460598FBF701FB2146FBF76AF998
:1050A00080460698FBF7FAFA2146FBF763F90546B6
:1050B00001215046FBF75EF906464146FBF7EAF848
:1050C00004464FF040414846FBF7E4F807462946BE
:1050D000FBF7E0F82146FBF785F8FBF72BFBFEF723
:1050E00059FC4FF0663B5A463D4BFBF7F6F9FBF790
:1050F00034FB0E99086001214046FBF73BF941461D
:105100000090FBF7C7F8044638464946FBF7C2F85B
:105110002146FBF7B9F84FF07E51FBF763F8FBF738
:1051200009FB07460C4630464946FBF7B3F80646EE
:1051300029460098FBF7AEF83146FBF753F8FBF72A
:10514000F9FA3A462346FEF76DFE5A46244BFBF722
:10515000C4F9FBF702FB0F99086029460846FBF7E4
:1051600099F8074641460846FBF794F8064600E0E2
:1051700034E049460846FBF78DF804465146084698
:10518000FBF788F82146FBF72DF83146FBF77CF852
:105190003946FBF779F8FBF7CDFA06460C46294667
:1051A0005046FBF777F8054641464846FBF772F84C
:1051B0002946FBF717F80121FBF7DCF8FBF7BAFAF1
:1051C00032462346FEF72EFE5A46054BFBF785F97D
:1051D000FBF7C3FA10990860002044E7022042E779
:1051E00066A64C4010B500F0F1F888BB782000F0BE
:1051F000B3FD10F0FF0F01D0012010BD7820FFF7A4
:10520000F9FE10F0FF0F01D0022010BD642000F065
:1052100063FD10F0FF0F01D0032010BDFFF708F869
:1052200010F0FF0F01D0042010BD1548FFF7AAFDB4
:10523000FFF7AEF910F0FF0F01D0052010BD40F2CE
:105240007310FEF7CDFE10F0FF0F02D0062010BD48
:1052500014E06420FFF704F910F0FF0F01D00720DD
:10526000F5E700F0FFFD08B10820F0E7012000F0AD
:1052700059FC10F0FF0F01D00920E8E70020E6E715
:105280005C0000200D494A7A42B1012A08D0022A66
:105290000FD0032A0FD04FF0FF307047022200E0FA
:1052A00004220270C97C11B11106C90D01700020E1
:1052B00070470822F5E71022F3E7000030000020D5
:1052C0000F494A7A42B1012A09D0022A11D0032A91
:1052D00012D04FF0FF3070474FF4804201E041F6AA
:1052E0009C720280C97C11B1C2F34E010180002082
:1052F00070474FF48052F4E74FF40062F1E700008A
:10530000300000200B49097A39B1012907D0022960
:105310000AD003290BD0002103E0FA2101E04FF469
:10532000FA710180002070474FF47A71F9E74FF469
:10533000FA61F6E7300000200A49097A41B10129F3
:1053400008D002290AD003290AD04FF0FF30704755
:10535000054900E005490160002070470449FAE76B
:105360000449F8E7300000200000034300008342B6
:1053700033330342333383410C49C97A072913D2AB
:10538000DFE801F01204060A0C0E1000BC2100E058
:1053900062210180002070472A21FAE71421F8E7F2
:1053A0000A21F6E70521F4E70021F2E730000020AA
:1053B000054991F8242012B14FF0FF307047C98998
:1053C0000180002070470000300000202DE9FC41E2
:1053D0004C4C80208DF8000020686B460122817CB7
:1053E00060680078FDF78AFC4FF0FF37002832D163
:1053F0006420FBF7C9FB00258DF8005020686B4640
:105400000122817C60680078FDF778FC002870D16B
:1054100020686B460622817D60680078FDF70EFCEF
:10542000002866D19DF805009DF80310C007400FC5
:1054300001F0010140EA41019DF801004FF0010631
:1054400000F00100014309D0012905D0022915D03F
:105450002DA0FDF753FD4CE0E67410E020686B468C
:105460000122C17860680078FDF7E8FB40BB9DF839
:10547000000010F00F0020D0042822D0E574FF2097
:1054800004F80A0F4FF6FF7104F8020C04F8010C3F
:105490006070A180A0712072A67026766576E57294
:1054A000A572E56025616561A576E576A5834FF473
:1054B000FA6000F073FB18B907E01D48FDF71EFD08
:1054C00017E01CA0FDF71AFDC6E7022000F088FADD
:1054D00078B92A2000F0CAFB58B9322000F0FCFB52
:1054E00038B90020FFF786FD18B9002000F0ACFAAB
:1054F00010B13846BDE8FC81002000F02DFC0020F2
:10550000F8E7000030000020556E737570706F7200
:1055100074656420736F6674776172652070726F52
:1055200064756374207265762025642E0A0000007D
:10553000D86C000848616C662073656E7369746985
:1055400076697479207061727420666F756E642E4E
:105550000A0000002DE9FF4FDFF89480064685B071
:1055600098F8250015460F464FF0FF39B0BBAFB392
:10557000002420E0301B102800DD102080B283467C
:105580003A1901469246204600F042FC30BB6A467A
:105590005946204600F0D2F800BB50465A466946AC
:1055A000FAF713FE20B16FF0010009B0BDE8F08FEB
:1055B00004EB0B0084B2B442DCD3280A8DF810004F
:1055C0008DF81150D8F80000444604AB817ED8F81D
:1055D000040002220078FDF791FB08B14846E4E799
:1055E000012084F825000898E0840020DDE7000011
:1055F000300000202DE9F84305464FF0FF392828F8
:1056000044D80727284C00267DB1012000F0FCFA81
:1056100020208DF800004FF00108012D17D0052D36
:1056200018D88DF8018005201FE0002000F0ECFA6A
:105630008DF800608DF8017020686B460222817C35
:1056400060680078FDF75AFB00BB267529E08DF8ED
:105650000160E8E7142D04D802208DF801000A202B
:1056600003E003208DF80100142000F0FFFA9DF8FC
:1056700001006B4607EB80108DF8010020680222C4
:10568000817C60680078FDF739FB10B14846BDE8C1
:10569000F8830820A072267384F814800020FFF796
:1056A000A9FC0020F3E70000300000202DE9F843BA
:1056B000214C0646174694F8240089464FF0FF38DF
:1056C00090B3A07A80B320686B460222817A60682A
:1056D0000078FDF7B3FA38BBBDF8000045BAB54213
:1056E00002D2002038701FE060684188B5EB510F8E
:1056F00011D9216800786B46497C0122FDF79EFA9A
:1057000090B99DF80000C00605D500F041F86FF093
:105710000100BDE8F8832068F2B24B46C17A6068A8
:105720000078FDF78BFA08B14046F2E7B5FBF6F0DA
:10573000401E38700020ECE730000020F8B516005D
:105740000D464FF0FF371FD0104CA17AE1B1010A8E
:105750008DF80010C0B28DF80100411960684289CF
:10576000914211D8216800786B46097E0222FDF72C
:10577000C5FA48B92068EAB23346417D60680078CE
:10578000FDF75CFA002800D03846F8BD3000002054
:10579000F8B5564C4FF0FF36A07A00287DD0002592
:1057A0008DF8005020686B460122C17B606800784C
:1057B000FDF7A4FA002870D120686B4601224179D8
:1057C00060680078FDF79AFA002866D120686B4679
:1057D0000122017960680078FDF790FA00285CD119
:1057E00094F82400E0B30C208DF8000020686B468C
:1057F0000122017960680078FDF780FA002872D1F3
:105800003220FBF7C1F9C0208DF80000A07AC00754
:1058100002D0E0208DF8000020686B46012201795B
:1058200060680078FDF76AFA00285CD1607C18B1E6
:1058300002208DF8000001E08DF8005020686B46D2
:105840000122C17B60680078FDF758FA28BB8DF80B
:10585000005020686B4601224179606800783EE084
:10586000FFE704208DF8000020686B4601220179D3
:1058700060680078FDF742FA78B9A07C90B9A07A08
:10588000C0070FD05FF060008DF8000020686B4605
:10589000012201796068007800E024E0FDF72EFA2B
:1058A00008BB01E04020EFE73220FBF76DF9607C98
:1058B00018B101208DF8000001E08DF8005020683B
:1058C0006B460122C17B60680078FDF717FA50B97A
:1058D0002068064B01224179606810330078FDF79B
:1058E0000DFA002800D03046F8BD0000300000203E
:1058F0002DE9F047394C82468AB094F824000F46CF
:1059000020B1002000F00EF9012600E0002607A8D3
:10591000FFF7F8FC06A8FFF7B5FC09A8FFF72CFD78
:1059200008A8FFF745FD94F80A9094F81080002528
:10593000002239465046FFF731F810B16D1C022D98
:10594000F6DB022D1AD00025012203A96846FFF7D5
:1059500025F810B16D1C022DF6DB022D0ED003A927
:105960003846FDF7D7FFC7B269465046FFF7A0F9A2
:1059700010F0FF0F4FF0000502D002E0002503E019
:1059800001250FB945F00205FF2020726072E07218
:105990004FF6FF71E181A072207401202073BDF8E1
:1059A0001C0000F0FBF89DF8180000F019F8BDF895
:1059B000240000F05BF9BDF8200000F08DF94846A6
:1059C00000F0CAF94046FFF715FB16B1012000F0C0
:1059D000A9F80AB02846BDE8F08700003000002092
:1059E00038B5184C4FF0FF35A17A19B3022806D00C
:1059F000042806D008280ED010281BD10DE0002066
:105A000000E008208DF80000607A9DF80010B0EBEF
:105A1000D10F04D005E01020F4E71820F2E70020B1
:105A200038BD20686B460122C17960680078FDF7B7
:105A300065F908B1284638BD9DF80000C0086072BD
:105A4000EDE7000030000020F8B5354C0546A07C9D
:105A5000A84201D10020F8BD31484FF0FF366B4617
:105A6000D0E900104FF001020979007835B3FDF755
:105A7000E5F870BB9DF800006B4620F020008DF823
:105A8000000020680122017960680078FDF736F98E
:105A9000F8B90320FBF778F802208DF8000094F89D
:105AA000220078B382202BE020686B460122017D22
:105AB00060680078FDF722F958B92EE0FDF7BEF8CE
:105AC00038B9A07AC0079DF8000003D040F020004C
:105AD00002E00CE020F020008DF8000020686B460A
