:020000040800F2
:100000008006002001010008B72900082720000809
:10001000B5290008330A0008D92D000800000000A7
:10002000000000000000000000000000BB290008E4
:10003000350A000800000000B9290008BD290008A1
:100040001B0100081B0100081B0100081B01000820
:100050001B0100081B0100081B0100081B01000810
:100060001B0100081B0100081B0100081B01000800
:100070001B0100081B0100081B0100081B010008F0
:100080001B0100081B0100081B0100081B010008E0
:100090001B0100081B0100081B0100081B010008D0
:1000A0001B010008212A00081B0100081B01000891
:1000B0001B0100081B0100081B0100081B010008B0
:1000C0001B0100081B0100081B0100081B010008A0
:1000D0001B0100081B0100081B0100081B01000890
:1000E0001B0100081B0100081B010008DFF80CD0F1
:1000F00000F03CFC004800478548000880060020CE
:100100000648804706480047FEE7FEE7FEE7FEE7B1
:10011000FEE7FEE7FEE7FEE7FEE7FEE71F2A000830
:10012000ED0000082DE9F0410024061B254671F181
:10013000000605DA01240027D0EB070067EB010178
:10014000161E73F1000605DA0027D2EB070201251F
:1001500067EB030300F00CFB86460E4617469C46F1
:10016000AC4204D00025D0EB050E65EB010624B1AE
:100170000020D2EB000760EB030C704631463A4694
:100180006346BDE8F081202A04DB203A21FA02F020
:100190000021704721FA02F3D040C2F120029140C1
:1001A000084319467047D2B201E000F8012B491EFE
:1001B000FBD270470022F6E710B513460A46044604
:1001C0001946FFF7F0FF204610BD30B50446002069
:1001D000034600E05B1C934203D2E05CCD5C401B15
:1001E000F8D030BDF0B480EA0102D40F4200B2EB87
:1001F000410F02D20246084611464A0042D0C30DC2
:10020000DDB2C1F3C752AD1A202D35DAC1F31601A4
:1002100041F4000204B15242C5F1200602FA06F18F
:100220002A411044B3EBD05F23D0C4B1012DA0EB21
:10023000C35009DCF0BC4FF0004202EAC352DBB20B
:1002400000F5000000F0EFBA400000F1807000EB14
:10025000C350A0F1807040EAD170490009E049081C
:1002600041EAC071A0EBC35000F50000400800EB6C
:10027000C350F0BC00F0CEBA6142012202EB410152
:10028000001BF6E7F0BC704781F00041AAE780F060
:100290000040A7E780EA010210B502F000434000E9
:1002A00022D04A001FD0010E01EB1261C0F35600AC
:1002B000C2F3560240F4000042F40002A0FB022008
:1002C00000047F39140400D0401C50EA124001D4CD
:1002D0004000491EC2B20C0604EBD010401C40087E
:1002E000802A02D003E0002010BD20F00100002988
:1002F00000DA0020184310BD30B480EA010202F099
:10030000004530F0004221F0004013D090B1C30D01
:10031000D40DC2F31601C0F31600E41A41F4000133
:1003200040F400027D34914201D3641C00E0490096
:10033000002C02DA30BC002070474FF4000000238C
:10034000914201D3891A034340084FEA4101F7D192
:1003500051B1914202D14FF0004105E002D24FF07D
:10036000010101E06FF0010103EBC450284430BCEF
:1003700000F050BA420005D0C0F3C7525242914239
:1003800001DC0020704700EBC15070472DE9FE4FA3
:10039000804681EA0300C00F0C46009021F0004126
:1003A00023F00045B8EB0200A94105D240462146A2
:1003B00090461C460B46024623F00040104347D0AF
:1003C000270DC7F30A00C3F30A510290401A0190A7
:1003D00040286BDAC3F3130040F4801B0098924668
:1003E00020B10023D2EB030A63EB0B0B01985946B3
:1003F000C0F14002504600F0ECF906460D4650466A
:100400005946019A00F0F4F910EB0800614100240C
:1004100087EA115284EAE7731A4340D0009A62B324
:10042000019A012A4FEA075215DC001B61EB020119
:100430004FF0004202EA0752CDE90042001C41F5AC
:10044000801132462B4600F02BFA03B0BDE8F08F46
:1004500040462146F9E7001B61EB0201001C41F513
:10046000801300185B412018A2F5001747EB030129
:1004700040EAD570B6196D4111E06D084FEA3606B5
:1004800045EAC0754FEA0752001B61EB0201001CF0
:1004900041F5801149084FEA3000001951413246B8
:1004A0002B4603B0BDE8F04F00F0EBB900980122F5
:1004B00040000023D0EB020263EBE073009821467A
:1004C0004FEAE074B8EB000061EB0401E9E783F068
:1004D00000435BE781F0004158E72DE9FE4F81EAD8
:1004E000030404F0004421F0004100944FF0000B9D
:1004F00023F0004350EA01045ED052EA03045BD0CB
:10050000C3F30A54C1F30A552C44A4F2F334019402
:10051000A0FB0254C1F3130141F48011C3F3130390
:1005200043F4801301FB024400FB034E840A970A44
:1005300044EA815447EA8357A4FB076802958D0A71
:1005400005FB07854FEA932C04FB0C542705029DFD
:100550004FEA065847EA1637B5EB08056EEB070C6D
:10056000870E920E47EA811742EA8312A7FB020127
:10057000B6EB0B0164EB00042B0D43EA0C335E1861
:1005800044EB1C50DA465146E7FB0201C5F3130465
:100590004FEA0B3343EA14534FEA0432019C43EA17
:1005A0000603A4F10C040294009CCDE900B400F011
:1005B00077F903B0BDE8F08F00200146F9E72DE997
:1005C000F04D81EA030404F0004B21F0004514468D
:1005D0004FF0000A23F0004150EA050220D054EA0F
:1005E00001021DD0C5F30A570246C5F31303C1F338
:1005F0001300C1F30A5640F4801543F48013A7EBAF
:100600000608101BD64608F2FD3873EB050002D32E
:1006100008F1010801E092185B41B8F1000F03DA1C
:1006200000200146BDE8F08D00204FF48011064601
:1006300084460EE0171B73EB050705D3121B63EB13
:10064000050306434CEA010C49084FEA30009218B2
:100650005B4150EA0107EDD152EA030012D082EA71
:10066000040083EA0501084305D0101BAB4106D204
:100670000122002306E000224FF0004302E06FF069
:10068000010253101AEB06004CEB085110EB0A0064
:1006900041EB0B01BDE8F04D00F0F3B8C10F80EA6B
:1006A000E0700844CA079623002100F0BCB89623E6
:1006B0000022114600F0B7B800F0004220F00040E0
:1006C000C10DC0F3160040F400007F2901DA0020BC
:1006D0007047962903DCC1F19601C84001E09639C4
:1006E0008840002AF4D04042704720F00040C10DFD
:1006F000C0F3160040F400007F2901DA00207047A3
:10070000962903DCC1F19601C840704796398840AC
:10071000704700F0004230F000400AD0C10D01F5F2
:100720006071C0F3160042EA0151C208400711434C
:10073000704700200146704701F0004330B421F0BB
:10074000004150EA010206D00A0DA2F56072C1F321
:100750001301002A02DC30BC00207047440F44EA39
:10076000C104C100E01830BC00EBC25000F052B828
:100770002DE9F05F0546002092469B4688460646D6
:10078000814640241BE02846414647462246FFF763
:10079000FAFC53465A46C01A914110D311461846E6
:1007A000224600F016F82D1A67EB01084F46224644
:1007B0000120002100F00DF817EB00094E41201E2A
:1007C000A4F10104DFDC484631462A464346BDE831
:1007D000F09F202A04DB203A00FA02F10020704743
:1007E0009140C2F1200320FA03F31943904070476F
:1007F000202A06DBCB17203A41FA02F043EAE073E5
:1008000006E041FA02F3D040C2F1200291400843D1
:10081000194670470029A8BF7047401C490008BF0F
:1008200020F00100704710B4B0FA80FC00FA0CF020
:1008300050EA010404BF10BC704749B1CCF1200458
:1008400021FA04F411FA0CF118BF012121430843E5
:10085000A3EB0C01CB1D4FEA00614FEA102042BF11
:10086000002010BC704700EBC35010440029A4BF07
:1008700010BC7047401C490008BF20F0010010BCAC
:10088000704710B5141E73F1000408DA401C41F1E2
:10089000000192185B411A4301D120F0010010BD04
:1008A0002DE9F04D92469B4611B1B1FA81F202E07A
:1008B000B0FA80F220329046FFF78BFF04460F46D5
:1008C00040EA0A0041EA0B0153465A46084313D056
:1008D000114653EA010019D0C8F140025046FFF713
:1008E00052FC05460E46504659464246FFF771FFF8
:1008F000084305D0012004E020463946BDE8F08DCC
:100900000020054346EAE0762C4337430A98630506
:10091000E40AA0EB08000022FD0A44EA47540A302A
:1009200002D500200146E9E7010510196941DDE91A
:10093000084500196941BDE8F04DA2E770B521F006
:10094000004303430CD0C1F30A550024D5EB040542
:1009500064EB0403D617AD1AB34102DB0020014655
:1009600070BD201841EB025170BD0000064C074DD0
:1009700006E0E06840F0010394E80700984710346F
:10098000AC42F6D3FFF7B6FB0868000828680008F9
:100990002DE9F04D00231A461B1A8A4103DB002083
:1009A0000146BDE8F08DC1F30A52C1F3130141F4D1
:1009B00080154FF0000BD10702D100186D41521E77
:1009C0000027044640F2FF11384601EB620A3E461A
:1009D0008046024600204FF48011FFF7D4FBC21975
:1009E0007141BB1846EB0100B4EB030C75EB000C36
:1009F00004D3E41A65EB000517460E46241908F1E6
:100A000001006D4180463428E3DDF91946EB06000C
:100A1000091BA84103D24FF0FF32134601E0002228
:100A200013461BEB070046EB0A51BDE8F04DFFF7FC
:100A300028BFFEE7704772B6FEE7000070B50446B7
:100A400000F008F90546601C02D004480078044410
:100A500000F000F9401BA042FAD370BD7C000020DA
:100A60002DE9F84FDFF8B891002409F1040A0AF1E2
:100A7000040B23460F270BF1040EC9E00125A54006
:100A80002A40AA427DD1674ED1F804C0ACEB0608DB
:100A9000B44532D014DCBCF1030F3AD009DCBCF110
:100AA000000F2AD0BCF1010F1CD0BCF1020F31D1D4
:100AB0001DE0BCF1110F17D0BCF1120F2AD119E0C3
:100AC000B8F5881F19D006DCB8F5803F15D0B8F509
:100AD000801F1FD111E0B8F5001F0ED0B8F5041F1C
:100AE00018D10AE0CB6815E0CB681B1D12E0CB687B
:100AF00008330FE0CB680C330CE08B682BB1012B73
:100B00004FF0080303D0456104E0042302E00561CF
:100B100000E00023FF2A01D8064601E000F10406A8
:100B20004FEA840501D9A5F12005D6F8008007FA1F
:100B300005FC28EA0C0803FA05F548EA0508C6F89A
:100B400000804D68ED0062D5374DAE6946F0010674
:100B5000AE61AD6924F0030605F001050095334D43
:100B600006EB050CDCF80850A607360F07FA06F866
:100B700025EA0805DFF8B880404503D14FF00008AA
:100B800017E044E0DFF8AC80404502D14FF00108A7
:100B90000FE0DFF8A480404502D14FF0020808E0E2
:100BA000DFF89880404502D14FF0030801E04FF094
:100BB000040808FA06F848EA0508CCF808804D68E9
:100BC000D9F80060ED034D4601D5164300E0964389
:100BD0002E604D68DAF80060AD03554601D5164326
:100BE00000E096432E604D68DBF80060ED025D4644
:100BF00001D5164300E096432E604D68DEF8006094
:100C0000AD02754601D5164300E096432E60641C84
:100C10000D682A46E5407FF431AFBDE8F88F00004B
:100C200000040140000011100010024000000140CB
:100C300000080140000C0140001001400014014078
:100C40008068084000D0012070470AB101617047F8
:100C50000904FBE701488068704700007C00002021
:100C600070B5040025D094F83D00002520B984F823
:100C70003C50204600F078FA242084F83D0020689B
:100C8000016821F0010101602068016841F4004120
:100C900001602068016821F40041016000F0C0FBA0
:100CA0004D4A6168914201D84C4900E04C49884264
:100CB00001D2012070BD4B492368B0FBF1F15E68A1
:100CC00026F03F060E435E606368934206D94FF4F8
:100CD000967359434FF47A73B1FBF3F12368491CBF
:100CE0001E6A26F03F06314319626168914210D8AE
:100CF0004900401EB0FBF1F2521CC2F30B02042A61
:100D000001D2042022E0B0FBF1F0401CC0F30B0044
:100D10001CE0A268F2B301EBC10303EB0116431E12
:100D2000B3FBF6F35B1C43F480431B0549D092B33D
:100D300001EBC10202EB0111401EB0FBF1F0401CBF
:100D4000C0F30B0040F4804040F400402168CA69C1
:100D50004CF6FF739A431043C861D4E9071001436E
:100D60002068026822F0C00211430160D4E9030147
:100D700001432068826848F2FF339A43114381603F
:100D8000D4E9050108432168CA6822F0FF02104334
:100D9000C86001E00EE016E02068016841F0010142
:100DA00001602564202084F83D00256384F83E50CE
:100DB000002070BD01EB4106431EB3FBF6F35B1C44
:100DC000B3E70120C2E701EB4101401EB0FBF1F0A7
:100DD000401CC0F30B00B7E7A086010080841E0012
:100DE00000093D0040420F002DE9FF4F83B0002570
:100DF000DDE910799A4693460446DDF8488000956F
:100E0000FFF728FF064694F83D0020287CD11923DF
:100E1000012285492046009601F016FA0028F5D1F6
:100E200094F83C0001286FD0012084F83C00206831
:100E30000168C90703D1016841F001010160206820
:100E4000016821F400610160222084F83D00402007
:100E500084F83E0025646762A4F82A90608D20859E
:100E60007248E062CDE9008653465A46204604990E
:100E700001F0F2F800287DD1208DDFF8B491202711
:100E800068B1012814D00228206801681ED041F4FE
:100E9000806101602068416980690090B6E0206847
:100EA000416981690091016841F400710160ADE020
:100EB0002068016821F48061016072B62068416990
:100EC00081690091016841F400710AE041F4006118
:100ED000016072B62068416981690091016821F45E
:100EE0008061016062B691E0032868D801280CD0C7
:100EF000022843464FF000024946204600960FD094
:100F000001F0A2F9B0BB10E08BE03246414620462A
:100F100001F019FA70BB20680069616A08706CE022
:100F200001F092F930BB72B634E02068016821F418
:100F30008061016072B620680069616A0870606A49
:100F4000401C6062208D401E2085608D401E6085A3
:100F5000384846F2A8110068B0FBF1F0C0EBC000C1
:100F600000EB80000090401E009008D0206840698F
:100F7000C04300E029E040070CD50098F3E744F8AF
:100F8000305F6773A573206940F02000206162B66E
:100F900025731AE02068016841F40071016020683F
:100FA0000069616A0870606A401C6062218D491E98
:100FB0002185618D491E618562B621681BE032463C
:100FC0004146204601F0BFF918B1012007B0BDE845
:100FD000F08F20680069616A0870606A401C606276
:100FE000218D491E2185618D491E618521684A69CF
:100FF000D24352070AD409690170606A401C6062DA
:10100000208D401E2085608D401E6085208D00282B
:101010007FF46AAF84F83D7084F83E5084F83C5009
:10102000D4E70220D2E70000020010000000FFFF1A
:1010300004000100880000202DE9FF4F83B09A468C
:10104000DDE9119793460446DDF84080FFF702FE84
:10105000054694F83D0020287FD1192301224049FC
:101060002046009501F0F0F8002876D194F83C0075
:10107000012872D0012084F83C0020680168C9076B
:1010800003D1016841F0010101602068016821F489
:1010900000610160212084F83D00402084F83E007A
:1010A00000262664C4F82480A4F82A90608D208548
:1010B0002C48E062CDE9007553465A462046049913
:1010C00001F048F870B930E02A463946204601F070
:1010D0006DF958B1206C042804D12068016841F4EE
:1010E00000710160012007B0BDE8F08F606A2168DF
:1010F00000780861606A401C6062218D491E89B2D7
:101100002185628D521E628522685369DB435B072D
:101110000BD469B100781061606A401C6062208D58
:10112000401E2085608D401E6085208D0028CBD11B
:101130002A463946204601F061F80028CAD154F801
:101140003D0B016841F400710160202004F81E0984
:10115000E67766770020C6E7FFE70220C3E70000D6
:10116000020010000000FFFF10B586B000210091C2
:1011700001910291039100680F4988421AD10F4CE6
:10118000A06940F00800A061A069694600F008006D
:101190000490C02000901220019003200390084882
:1011A000FFF75EFCE06940F40010E061E06900F4E4
:1011B0000010049006B010BD005400400010024022
:1011C000000C014002488168027811448160704738
:1011D0007C000020074810B5016841F01001016053
:1011E000032000F075F80F2000F006F800F024F856
:1011F000002010BD0020024070B50D4D04464FF494
:101200007A712878B1FBF0F00A490968B1FBF0F077
:1012100000F0ECFA48B9102C07D200222146501EEB
:1012200000F036F800206C6070BD012070BD000039
:101230007C000020880000200C4808B5816941F03E
:1012400001018161816901F001010091C16941F0F1
:101250008051C161C06900F080500090044841682D
:1012600021F0E06141F00071416008BD00100240D2
:1012700000000140002809DB00F01F02012191401D
:101280004009800000F1E020C0F800117047000024
:10129000F0B40E4B1B680C46C3F30223C3F10705E1
:1012A000042D00D90425191D072901D2002300E0CF
:1012B000DB1E012606FA05F1491E214099409E4099
:1012C000761E16403143F0BC01F0ACBD0CED00E0E1
:1012D000064900F0070208684FF6FF03184040EA8D
:1012E0000220034A10430860704700000CED00E044
:1012F0000000FA052DE9F0470F46050061D0434E86
:10130000306800F00700B84209D2306820F00700CA
:1013100038433060306800F00700B84251D1286887
:101320003B4C810712D5400703D5606840F4E0606C
:1013300060602878000703D5606840F46050606002
:101340006068A96820F0F000084360602878C00752
:1013500028D06868012810D02168022810D0890799
:1013600000292EDA616821F0030101436160FFF773
:1013700071FC804641F288390DE021688903EFE76E
:101380008901EDE7FFF766FCA0EB0801494502D9AA
:101390000320BDE8F0876068696800F00C00B0EBDE
:1013A000810FEFD1306800F00700B8420BD93068E8
:1013B00020F0070038433060306800F00700B84282
:1013C00001D00120E5E72878400705D56068E96885
:1013D00020F4E060084360602878000706D5606864
:1013E000296920F4605040EAC100606000F038F8DC
:1013F0006168084AC1F30311515CC840064908609E
:1014000006480068FFF7F8FE0020C2E7002002400F
:1014100000100240685A0008880000208000002068
:101420000448054900684968044AC1F30221515C37
:10143000C84070478800002000100240785A000819
:101440000448054900684968044AC1F3C221515C57
:10145000C84070478800002000100240785A0008F9
:1014600012A185B00FC98DE80F0014A0144A0068BE
:1014700004905168134801F00C03042B10D0082B82
:101480000ED1C1F38343C9031DF803000AD5516887
:1014900004AAC1F34041515C0A4A5043B0FBF1F049
:1014A00005B0704708494843FAE700000203040505
:1014B000060708090A0B0C0D0E0F101001020000A0
:1014C0000010024000127A0000093D002DE9F84F9B
:1014D000040070D02078C04DC00749D06868C0F3C0
:1014E0008100012807D06868C0F38100022809D173
:1014F0006868C00306D52868800339D5606800286D
:10150000E7D035E06068B0F5803F0BD010B1B0F5A2
:10151000A02F11D0286820F480302860286820F49B
:10152000802002E0286840F480302860606890B134
:10153000FFF790FB06460AE0286840F48020286008
:10154000F0E700BFFFF786FB801B642873D828688C
:101550008003F7D50CE0FFF77DFB064605E000BFF2
:10156000FFF778FB801B6428F0D828688003F7D445
:1015700020789A4E80074FF001094FF0000839D5C6
:10158000686810F00C0F07D06868C0F3810002286B
:1015900009D16868C00306D42868800714D520697B
:1015A000012808D110E02069B0B1C6F80090FFF71B
:1015B00051FB074605E00AE1FFF74CFBC01B022880
:1015C000C4D828688007F7D52868616920F0F8003A
:1015D00040EAC10028600DE0C6F80080FFF73AFB42
:1015E000074604E0FFF736FBC01B022823D8286813
:1015F0008007F7D4207800072CD57948A169D9B1A4
:10160000C0F80090FFF726FB074604E0FFF722FB37
:10161000C01B02280FD8686A8007F7D571484FF4BD
:10162000FA510068B0FBF1F0009000BF0098411E35
:101630000091FAD20EE080E0C0F80080FFF70AFBCC
:10164000074604E0FFF706FBC01B022875D8686A4E
:101650008007F7D42078400760D5E8690027C000EC
:1016600008D4E86940F08050E861E869012700F09B
:10167000805000905C480168C90513D40168834616
:1016800041F480710160FFF7E5FA824606E000BF91
:10169000FFF7E0FAA0EB0A0064284ED8DBF8000060
:1016A000C005F5D5E06801280AD008B1052813D097
:1016B000286A20F001002862286A20F0040002E075
:1016C000286A40F001002862E06841F2883B98B146
:1016D000FFF7C0FA82460BE0286A40F00400286257
:1016E000EEE700BFFFF7B6FAA0EB0A0159455AD85A
:1016F000286A8007F6D50CE0FFF7ACFA824605E0D1
:10170000FFF7A8FAA0EB0A0159454CD8286A8007D0
:10171000F6D41FB1E86920F08050E861E06988B331
:101720006968C1F38101022944D00228C6F86080AB
:1017300004D0FFF78FFA044638E034E0FFF78AFA66
:10174000074604E0FFF786FAC01B02282BD828685A
:101750008001F7D4206AB0F5803F05D16868A168A0
:1017600020F4003008436860D4E908010843696840
:1017700021F4741108436860C6F86090FFF76AFAB4
:10178000044606E025E000BFFFF764FA001B0228CC
:1017900009D828688001F7D51BE000BFFFF75AFA87
:1017A000001B022802D90320BDE8F88F28688001B9
:1017B000F4D40EE00128F7D06868226A00F4803182
:1017C000914204D1616A00F47010884201D0012076
:1017D000EAE70020E8E70000001002400000424273
:1017E00080044242880000200070004010B5401E76
:1017F000B0F1807F01D3012010BD4FF0E024606183
:101800000F21601701F00EFB0020A061072020616E
:10181000002010BD7047704770B590F83C20012A39
:1018200026D0012480F83C40022280F83D20036845
:101830005A689D6822F070060A6832435A600D4B60
:1018400002689A4208D0B2F1804F05D00A4B9A4202
:1018500002D00A4B9A4204D1496825F0800319430B
:10186000916080F83D40002180F83C10084670BD32
:10187000022070BD002C0140000400400008004020
:1018800010B5040003D094F83D0010B107E001202A
:1018900010BD002084F83C00204600F01FF8022014
:1018A00084F83D00211D206801F0C0F8012084F873
:1018B000460084F83E0084F83F0084F8400084F835
:1018C000410084F8420084F8430084F8440084F81E
:1018D000450084F83D00002010BD000008B5174AFF
:1018E00001681748914211D1816941F40061816119
:1018F0008069002200F40060009011461920FFF773
:10190000C7FCBDE808401920FFF7B4BCB1F1804F17
:101910000BD00C4A914207D1C16941F00201C1616B
:10192000C06900F00200009008BDC16941F00101EA
:10193000C161C06900F00100F5E70000002C014022
:10194000001002400004004090F83D10012901D031
:1019500001207047022180F83D100168CA6842F0FA
:101960000102CA6000680B49884208D0B0F1804F7C
:1019700005D00949884202D00849884204D18168CB
:1019800001F00701062903D0016841F0010101605F
:1019900000207047002C0140000400400008004077
:1019A00070B5044690F83C00012817D0012584F852
:1019B0003C50022084F83D002068826822F07702C3
:1019C00022F47F4282600868502830D00DDC202845
:1019D0004DD005DC98B310283BD148E0022070BD03
:1019E000302844D0402834D139E0602828D07028ED
:1019F00006D0B0F5805F2CD0B0F5005F29D10AE0A9
:101A0000CB68D1E90121206801F053F82068816892
:101A100041F0770109E0CB68D1E90121206801F0AC
:101A200048F82068816841F48041816011E0CA680B
:101A30004968206801F0F2F85021206807E016E0BC
:101A4000CA684968206801F0FAF86021206801F04E
:101A50003AF884F83D50002084F83C0070BDCA6814
:101A60004968206801F0DAF840212068EFE7226831
:101A700001461046EBE7704770B5044600680169FF
:101A80004FF00005C943890715D4C168C9438907C8
:101A900011D4E91E01610120207720688069800748
:101AA000204602D0FFF7E7FF04E000F0CBF8204625
:101AB00000F05AF9257720680169C943490717D40E
:101AC000C168C943490713D46FF0040101610220C2
:101AD00020772068806910F4407F204602D0FFF70D
:101AE000CAFF04E000F0AEF8204600F03DF925778B
:101AF00020680169C943090716D4C168C9430907A9
:101B000012D46FF008010161042020772068C069B9
:101B10008007204602D0FFF7AEFF04E000F092F805
:101B2000204600F021F9257720680169C943C906DC
:101B300017D4C168C943C90613D46FF010010161FD
:101B4000082020772068C06910F4407F204602D02A
:101B5000FFF791FF04E000F075F8204600F004F96B
:101B6000257720680169C943C90708D1C168C943FD
:101B7000C90704D1891E0161204600F059F9206887
:101B80000169C943090609D4C168C943090605D4D6
:101B90006FF0800101612046FFF73CFE206801697B
:101BA000C943490609D4C168C943490605D46FF041
:101BB00040010161204600F073F920680169C943C2
:101BC00089060BD4C168C943890607D46FF0200188
:101BD00001612046BDE87040FFF71DBE70BD0000EA
:101BE00010B586B000210091019102910391036824
:101BF000114902221148B3F1804F13D0104CA34277
:101C00000ED18B6943F004038B61896901F00401F3
:101C100004914021CDE9001269460392FEF720FFAE
:101C200006B010BD8B6943F004038B61896901F034
:101C3000040104910121EDE7001002400008014079
:101C400000040040704770B5044690F83C000D4613
:101C500001280AD0012084F83C0042B1042A18D09F
:101C6000082A2AD00C2A4DD139E0022070BD206804
:101C700000F032FF2068816941F00801816120682D
:101C8000816921F004018161206881692A69114319
:101C900011E0206800F048FF2068816941F400618C
:101CA00081612068816921F4806181612068816996
:101CB0002A6941EA0221816124E0206800F060FF86
:101CC0002068C16941F00801C1612068C16921F043
:101CD0000401C1612068C1692A69114311E02068CB
:101CE00000F07AFF2068C16941F40061C161206899
:101CF000C16921F48061C1612068C1692A6941EA32
:101D00000221C161002084F83C0070BD10B50400C0
:101D100003D094F83D0010B107E0012010BD002071
:101D200084F83C00204600F01EF8022084F83D00B4
:101D3000211D206800F07AFE012084F8460084F816
:101D40003E0084F83F0084F8400084F8410084F8A5
:101D5000420084F8430084F8440084F8450084F885
:101D60003D00002010BD70477047000010B50446CC
:101D7000022249B1042912D008291CD094F841004C
:101D8000012823D0012010BD94F83E000128F9D18C
:101D900084F83E202068C26842F0020209E094F80C
:101DA0003F000128EED184F83F202068C26842F04D
:101DB0000402C2600EE094F840000128E2D184F8E9
:101DC00040202068C26842F00802F2E784F841200F
:101DD0000C2922D00122206800F05EFE1149206803
:101DE000884203D1426C42F4004242642068884237
:101DF00008D0B0F1804F05D00B49884202D00B4982
:101E0000884204D1816801F00701062903D00168E6
:101E100041F001010160002010BD2068C26842F05D
:101E20001002C6E7002C01400004004000080040FA
:101E300010B50B4900680968884210D1094CE06967
:101E4000401CE061B0F57A7F09DBD4E9042106A0EB
:101E5000E36800F0C3FF0020E0612064606410BD0F
:101E6000200100202800002070776D5F5570726996
:101E7000676874A3BA20256420202070776D5F7690
:101E8000656C6F63697479A3BA2025642020207083
:101E9000776D5F76616C75653A2025640D0A0000E8
:101EA000704770B5040004D094F83D00002510B1CF
:101EB00006E0012070BD84F83C50204600F022F876
:101EC000242084F83D002068C16821F40051C160DD
:101ED000204600F0C7FE2068016921F490410161AD
:101EE0002068416921F02A0141612068C16841F4FC
:101EF0000051C1602564202084F83D0084F83E0034
:101F0000002070BD30B585B0002400940194029487
:101F1000039400681449884224D11448816941F42B
:101F200080418161816901F480410491816941F0BE
:101F30000401816180690E4D00F0040004904FF4AB
:101F4000007000900220019003200390694628460B
:101F5000FEF786FD2815CDE900046946284602945F
:101F6000FEF77EFD05B030BD003801400010024094
:101F7000000801402DE9F843044690F83D001F4653
:101F800016460D4620284CD1C5B1BEB194F83C0090
:101F9000012846D0012084F83C004FF00008C4F826
:101FA0004080212084F83D00FEF754FEA68481463F
:101FB000E684A068B0F5805F03D004E00120BDE8AE
:101FC000F883206928B12E465FF0000584F83C8034
:101FD0000EE00026FAE78021204600F09FFEA0B91F
:101FE000AEB116F8010B21684860E08C401EE08419
:101FF000E08C4B464FF0000200970028EBD14FF0E9
:102000004001204600F08AFE30B10320D7E735F8C2
:10201000020BC0F30800E6E7202084F83D00002012
:10202000CDE70220CBE7FEE701684A69D2435205BB
:102030000FD46FF480624A61002140F8301F2022E3
:1020400042738173026942F004020261017301204C
:1020500070470020704700002DE9F84F04460068E3
:1020600089460B9D01689846174641F480610160DE
:102070002068016841F48071016000954FF0011BF8
:102080000022594620460A9B00F0DEF84FF4007A01
:1020900040B120680068C00501D5C4F840A0032005
:1020A000BDE8F88F216809F0FE0008612B46284939
:1020B00020460A9A00F0FCF8F0BB2068416980696C
:1020C00000902A4620460A9900F070F940B1206C31
:1020D00004283AD12068016841F40071016034E0BD
:1020E000FEB2B8F1010F09D02168380A08612A460A
:1020F00020460A9900F05AF90028E8D120680661C4
:102100002A4620460A9900F051F90028DFD12068BC
:10211000016841F480710160009500225946204613
:102120000A9B00F091F80028B3D1216809F0FF0064
:1021300040F00100086100E007E02B46044920461A
:102140000A9A00F0B5F80028AAD00120A8E70000FC
:10215000020001002DE9F843044600680D46DDE960
:10216000089701689846164641F4807101604B4615
:1021700000224FF001112046009700F065F848B1A9
:1021800020680068C00502D54FF400702064032069
:10219000BDE8F883216805F0FE0008613B464A4629
:1021A0001549204600F084F888B9206841698069A3
:1021B00000903A464946204600F0F8F848B1206CB5
:1021C000042804D12068016841F4007101600120F5
:1021D000DEE7F5B2B8F1010F09D02168300A0861D5
:1021E0003A464946204600F0E1F80028E7D1206849
:1021F00005610020CCE700000200010070B5164622
:102200000D4604460DE02046FFF70EFF08B1012001
:1022100070BD681C05D0FEF71DFD801BA84207D8C5
:1022200035B120684069C0434007ECD4002070BD40
:10223000002044F8300F20216173A073216941F020
:10224000200121612073E2E72DE9F0471E46904608
:102250000D460446C1F30747DDF8209008E0701CE6
:1022600006D0FEF7F7FCA0EB0900B0420FD876B11C
:102270002068012F18D0806925EA00000004000CB6
:1022800014D000214145EAD00020BDE8F0870020AD
:1022900044F8300F20216173A073216941F02001BF
:1022A000216120730120F0E74069E5E70121E9E7BA
:1022B0002DE9F0479A4691460E46044600254FF018
:1022C0002008C1F3074725E020684069C043400566
:1022D00014D42068016841F40071016021686FF432
:1022E00080604861256384F83D8084F83E50206C0E
:1022F00040F00400206484F83C501FE0B9F1FF3F37
:1023000008D0FEF7A7FCA0EB0A0149450CD8B9F1AB
:10231000000F09D02068012F13D0806926EA000041
:102320000004000C0BD0CFE744F8305F84F80D8038
:10233000A573206940F02000206125730120BDE8CD
:10234000F0874069EAE72DE9F041002590460E4606
:102350000446202717E04069C043C0060CD454F857
:10236000301B6FF01000486144F810596777A5776B
:10237000206A2062257717E0FEF76CFCA0EB0800CE
:10238000B04208D83EB120684169C9434906E2D449
:102390000020BDE8F08144F8305F6773A5732069C1
:1023A00040F02000206125730120F2E770B5164649
:1023B0000D4604460DE02046FFF736FE08B1012029
:1023C00070BD681C05D0FEF745FC801BA84207D8ED
:1023D00035B120684069C0430006ECD4002070BDD0
:1023E000002044F8300F20216173A073216941F06F
:1023F000200121612073E2E77CB514460D460646B4
:102400006B4606223B21682000F012F9002818D103
:10241000BDF8001049BA3180BDF8021049BA2980D0
:10242000BDF8041049BA2180064932880B88D21AB7
:1024300032802A888B88D21A2A8022880989511AE8
:1024400021807CBD540200202DE9F0471C4C16462B
:102450000F46804600254FF4007932463946404603
:10246000FFF7CAFF0120FEF7E9FAB8F9000021687A
:102470006D1C08442060B7F9001060684D450844A1
:102480006060B6F90010A0680844A060E5DB206831
:10249000C11700EBD1504112094818300160616842
:1024A000CA1701EBD25149124160A168CA1701EB6A
:1024B000D251044A02EB61218160BDE8F08700003F
:1024C0003C02002001C0FFFF7CB514460D460646C5
:1024D0006B4606224321682000F0AAF8002818D194
:1024E000BDF8001049BA3180BDF8021049BA298000
:1024F000BDF8041049BA2180064932888B89D21A66
:1025000032802A880B8AD21A2A802288898A511A14
:1025100021807CBD540200202DE9F0471B4C16465B
:102520000F46804600254FF4007932463946404632
:10253000FFF7CAFF0120FEF781FAB8F90000E16851
:102540006D1C0844E060B7F9001020694D4508444F
:102550002061B6F90010606908446061E5DBE0685D
:10256000C11700EBD150411208481830C1602169F1
:10257000CA1701EBD251491201616169CA1701EB17
:10258000D25149124161BDE8F08700003C020020B1
:1025900010B580216B2000F097F86420FEF74EFA0A
:1025A00000216B2000F090F8032000F058F8002084
:1025B00000F050F8322000F06FF80021382000F0D1
:1025C00083F800216A2000F07FF80021232000F02A
:1025D0007BF88021372000F077F8752000F012F8A2
:1025E000682801D0012010BD01216B2000F06CF89B
:1025F00000216C2000F068F8322000F04DF8002037
:1026000010BD00001FB56423012203A98DE80E0050
:1026100013460246D0210548FEF7E6FB10B1012023
:1026200004B010BD9DF80C00FAE70000CC000020BB
:102630003EB54000CDE900320A46642401460294CA
:1026400001230348FEF7D0FB002800D001203EBD47
:10265000CC000020C006010E1C2000F035B8C006DA
:10266000010E1B2000F030B8BC2801D3012110E07E
:10267000622801D302210CE02A2801D3032108E0BB
:10268000142801D3042104E00A2801D3052100E025
:1026900006211A2000F018B810B504464FF47A70DD
:1026A000844201D9044602E0042C00D20424B0FB89
:1026B000F4F0401EC1B2192000F006F86008BDE831
:1026C0001040FFF7D1BF000003B583B0642301229F
:1026D00004A98DE80E0013460246D0210348FEF7F8
:1026E000ABFC002800D0012005B000BDCC000020CC
:1026F0003EB54000CDE900320A466424014602940A
:1027000001230348FEF798FC002800D001203EBDBD
:10271000CC00002030B585B000241C480094019402
:1027200002940394816941F020018161816901F083
:1027300020010491816941F004018161816901F006
:1027400004010491816941F0080181618069104DA3
:1027500000F00800049000221E212846FEF775FABA
:102760001E2000900120CDE901040220039069465B
:102770002846FEF775F94FF47040CDE9000469462C
:1027800004480294FEF76CF905B030BD0010024019
:1027900000080140000C01400D4810B50B490160D4
:1027A0000C49416000214FF480428160C0E903126E
:1027B00041618161C1610162FEF752FA002803D0D4
:1027C000BDE81040FEF737B910BD000000540040CE
:1027D000CC000020A086010010B586B00024174868
:1027E00000940194029403940494134905940160A5
:1027F0004721C0E901146321C0E9031444618461E5
:10280000FFF73EF808B1FEF716F94FF4805000903C
:1028100069460A48FFF7C4F808B1FEF70CF90494BA
:1028200004A906480594FEF7F7FF002801D0FEF73B
:1028300002F906B010BD0000002C0140200100206C
:1028400010B58EB000240794089409940A940B9450
:102850001C2168460C94FDF7ADFC1F484FF08041E9
:1028600001604721C0E9011440F2E731C0E90314D7
:1028700080218161FFF704F808B1FEF7DCF84FF41E
:102880008050079007A91448FFF78AF808B1FEF7AF
:10289000D2F81148FFF73AFA08B1FEF7CCF80B94DA
:1028A0000BA90D480C94FEF7B7FF08B1FEF7C3F86B
:1028B000602000904FF4FA70CDE9010400226946CF
:1028C00005480494FFF7BFF908B1FEF7B4F80248D1
:1028D000FFF786F90EB010BD6801002010B58EB06C
:1028E00000240794089409940A940B941C216846C8
:1028F0000C94FDF75FFC20481E4901604721C0E9A8
:10290000011440F2E731C0E9031480218161FEF730
:10291000B7FF08B1FEF78FF84FF48050079007A972
:102920001548FFF73DF808B1FEF785F81248FFF7A4
:10293000EDF908B1FEF77FF80B940BA90E480C9443
:10294000FEF76AFF08B1FEF776F8602000904FF4BA
:10295000FA70CDE901040022694607480494FFF7A4
:1029600072F908B1FEF767F80348FFF739F90EB0BE
:1029700010BD000000040040B00100200C4810B55C
:102980000A4901604FF4E1314160002181600C226D
:10299000C160C0E904128161C161FFF782FA0028B9
:1029A00003D0BDE81040FEF746B810BD0038014026
:1029B000F8010020FEE7FEE770477047FEF702BC13
:1029C00030B58FB028216846FDF7F4FB14210AA822
:1029D000FDF7F0FB01210804CDE90010002402946A
:1029E00002250491CDE907504FF4E01009906846A4
:1029F000FEF76CFD08B172B6FEE70F20CDE90A05BF
:102A00004FF48060CDE90C4002210AA80E94FEF735
:102A100071FC002801D072B6FEE70FB030BD7047E0
:102A20000148FFF729B8000020010020F0B5026836
:102A3000164B174C174D4FF08047984205D0B842BF
:102A400003D0A04201D0A84203D122F070064A6808
:102A50003243984205D0B84203D0A04201D0A842E8
:102A600003D122F44074CA6822434C6922F08002E8
:102A7000224302608A68C2620A688262984201D177
:102A80000969016301214161F0BD0000002C014092
:102A9000000400400008004010B501F01F030121B0
:102AA000046A99408C430462016A9A4011430162AE
:102AB00010BD10B5846842EA032224F47F440A431F
:102AC0002243826010BD826822F070020A4342F005
:102AD000070181607047000030B5026A22F00102F0
:102AE0000262026A4368846924F073050C682C430F
:102AF00022F002058A682A430A4DA8420BD122F02F
:102B00000805CA6823F440732A434D6922F0040281
:102B10001D438B692B4343608461496841630262B2
:102B200030BD0000002C014030B5026A22F01002D6
:102B30000262026A436884690D6824F4E64444EA48
:102B400005248D6822F0200242EA05120B4DA842AE
:102B50000ED1CD6822F0800242EA05124D6923F4BD
:102B6000406343EA85038D6922F0400243EA85030E
:102B70004360846149688163026230BD002C01407A
:102B800030B5026A22F480720262036A4268C46944
:102B900023F4007324F073050C682C438D6843EA1A
:102BA00005230C4DA8420ED1CD6823F4006343EAFF
:102BB00005234D6922F4405242EA05128D6923F43F
:102BC000806342EA05124260C4614968C1630362DE
:102BD00030BD0000002C014030B5026A22F4805262
:102BE0000262046A4268C3690D6823F4E64343EA5B
:102BF00005238D6824F4005444EA0534064DA842A8
:102C000004D14D6922F4804242EA85124260C361D8
:102C100049680164046230BD002C014010B5036AAC
:102C2000046A24F001040462846924F0F00444EA94
:102C3000021423F00A020A438461026210BD10B537
:102C4000036A23F0100303628369046A23F4704368
:102C500043EA023224F0A00343EA011182610162D7
:102C600010BD000070B5044600680169E26821F4F7
:102C70004051114301612169A0680843616908431B
:102C80002168CA6841F20C639A430243CA60206813
:102C90004169A26921F44071114341611E492068D4
:102CA000884202D1FEF7CCFB01E0FEF7B9FB00EB56
:102CB000C00101EB0012606864218000B2FBF0F3F8
:102CC000B3FBF1F36FF018067343B2FBF0F5B2FB00
:102CD000F0F605EB8305322303EB0515B5FBF1F5A3
:102CE000B6FBF1F605F0F00505EB0615B2FBF0F6C4
:102CF000B2FBF0F0B0FBF1F06FF01802504306EBBE
:102D0000800003EB0010B0FBF1F0216800F00F0031
:102D10002844886070BD0000003801402DE9F04172
:102D2000984617460E460446069D1DE0681C1BD0BB
:102D30002DB1FDF78FFFA0EB0800A84214D9206841
:102D4000C16821F4D071C1602068416921F001019E
:102D50004161202084F83D0084F83E00002084F882
:102D60003C000320BDE8F0812068006836EA0000DE
:102D700004D00020B842D9D00020F3E70120F9E7C1
:102D800070B516460C46FDF789FC2146FDF77FFA23
:102D90000C490D4C0546884202DB0C498D4201D29C
:102DA0000B4800E00B48206031466068FDF772FA7E
:102DB000064628462168FDF76DFA3146FDF712FAFE
:102DC000A06070BD0000A040000000200000A0C076
:102DD0000000C84200004843FEE700000FB4054B66
:102DE00010B503A9044A029800F0AAF810BC5DF8D7
:102DF00014FB000069430008C4000020490050EAA9
:102E0000C12018BF04204A0D18BF40F0010040F255
:102E1000FF72B2EB515F08BF40F00200012808BF0B
:102E2000052070470907090E002804DB00F1E020A7
:102E300080F80014704700F00F0000F1E02080F8E7
:102E4000141D70472DE9F0414F1E00EBC7010446E9
:102E5000D1E9000115461E4637F006020DD02A467C
:102E60003346FDF73AFB7F1E04EBC703D3E900238B
:102E7000FDF78CFA37F00602F1D1022F25D0042F8E
:102E800013D0062F18BFBDE8F0812A463346FDF760
:102E900024FBD4E90A23FDF779FA2A463346FDF7E5
:102EA0001CFBD4E90823FDF771FA2A463346FDF7E7
:102EB00014FBD4E90623FDF769FA2A463346FDF7E9
:102EC0000CFBD4E90423FDF761FA2A463346FDF7EB
:102ED00004FBD4E90223FDF759FA2A463346FDF7ED
:102EE000FCFAD4E90023BDE8F041FDF74FBA012216
:102EF000FDF724BDFDF74ABA0022134610461146DD
:102F0000FDF75DBB024A00201107FDF717BD000069
:102F100001FDFFFF02E008C8121F08C1002AFAD114
:102F200070477047002001E001C1121F002AFBD149
:102F3000704700000149086070470000C800002089
:102F40002DE9FF4F8DB00F460546002606E02528E7
:102F50000BD0DDE90F1290476D1C761C28780028F5
:102F6000F5D111B03046BDE8F08F0024A246A1464D
:102F70000122EC4900E0044315F8013F203B02FA2E
:102F800003F00842F7D128782A2810D06FF02F02DA
:102F90002878A0F13001092914D80AEB8A0102EB44
:102FA000410144F0020400EB010A6D1CF0E701CF7F
:102FB0005FEA000A03D544F40054CAF1000A44F061
:102FC00002046D1C28782E2817D115F8010F44F043
:102FD00004042A280ED06FF02F022878A0F13001C7
:102FE00009290AD809EB890102EB410100EB01092B
:102FF0006D1CF2E757F8049B6D1C28786C280FD0E5
:1030000006DC4C2817D068280DD06A2814D104E0BB
:10301000742810D07A280FD10DE044F400140AE08F
:1030200044F4801401E044F440146978814202D1F0
:1030300004F580146D1C6D1C2A786E2A1FD00CDCE0
:10304000632A31D004DC002A8BD0582A11D1A3E0A6
:10305000642A68D0692A0CD165E0732A2ED004DC7A
:103060006F2A73D0702A04D19BE0752A6FD0782A1A
:103070006ED01046DDE90F129047761C50E1C4F384
:103080000250022806D0032809D0042801CF09D015
:10309000066045E101CFF117C0E9006140E101CFD1
:1030A00006803DE106703BE117F8040B8DF8000047
:1030B00000208DF80100EB46012003E057F804BB27
:1030C0004FF0FF3061074FF0000102D40DE008F12E
:1030D0000101884649450FDA8045F8DB1BF80810E6
:1030E0000029F4D108E008F1010188468142FADBA9
:1030F0001BF808100029F6D1DDE90F23AAEB080020
:103100008146214600F036F9304400EB080604E021
:10311000DDE90F121BF8010B9047B8F10108F7D257
:1031200021464846F7E00A21C4F302534FF0000B52
:103130000891022B04D001CFC117032B09D00AE05C
:10314000FF1D27F00707F7E8020108E032E01FE063
:1031500020E000B2C117042B01D140B2C117031EF9
:1031600071F1000307DA4FF0000CD0EB0C006CEBB0
:1031700001012D2302E0230504D52B238DF82430F3
:10318000012303E0E30701D02023F7E7984658E046
:103190000A2110E010210EE010204FF0000B0890E3
:1031A0000CE010214FF0000B44F004044FF008092C
:1031B000089103E008214FF0000B0891C4F302537B
:1031C000022B04D001CF0021032B06D006E0FF1D07
:1031D00027F00707F7E8020103E080B2042B00D1D3
:1031E000C0B24FF0000823072BD5702A07D0DDF8B6
:1031F00020C08CF0100C5CEA0B0C05D00EE04023D4
:103200008DF82430012308E050EA010306D0302372
:103210008DF824308DF8252002239846DDF820C053
:103220008CF0080C5CEA0B0C0BD150EA010301D1C5
:10323000630706D530238DF824304FF00108A9F13B
:103240000109582A04D038A20B9208AA0A920BE06E
:103250003AA2F9E75B46089AFDF78AFA0B9B9B5C5A
:103260000A9A521E0A92137050EA0102F2D10A9889
:10327000ADEB000000F1200B600702D524F4803490
:1032800001E04FF00109D94502DDA9EB0B0000E098
:10329000002000EB0B0141440890AAEB010AE00377
:1032A00006D4DDE90F232146504600F063F80644BA
:1032B0004FF0000908E009A911F80900DDE90F1233
:1032C000904709F10109761CC145F4DBE0030CD5F8
:1032D000DDE90F232146504600F04CF8064404E097
:1032E000DDE90F1230209047761C0899481E08909F
:1032F0000029F5DC08E00A980A990078491C0A912F
:10330000DDE90F129047761CBBF10001ABF1010B18
:10331000F1DC21465046DDE90F2300F019F80644A0
:103320006D1C1BE609280100303132333435363745
:103330003839616263646566000000003031323301
:1033400034353637383941424344454600000000A1
:103350002DE9F041044600251E461746880404D492
:1033600005E039462020B0476D1C641EF9D528467B
:10337000BDE8F0812DE9F041044600251E46904647
:10338000C80301D5302700E02027880404D505E0D4
:1033900041463846B0476D1C641EF9D52846BDE845
:1033A000F08100002DE9FE4F07460E4600256846D5
:1033B00000F0E8FF00246FF00F0AE8464FF0010923
:1033C00057F8240056F82410401A00D54042FDF763
:1033D00065F95146FCF7CEFF58F8241011F0FF4F65
:1033E0000BD0FCF789FF4FF07E51FCF74DFF0A49E7
:1033F00020F00040884205DC07E0084908440849FD
:10340000884202D309FA04F00543641C032CD7DB7D
:103410002846BDE8FE8F0000295C0F3E666666C147
:103420009A99D9002DE9F04D8D4F21F0004A86B0D0
:1034300005460C46BA452ADBAAEB070028430AD00A
:103440008848824501DC1AD1CDB106B02846BDE8D6
:10345000F04DFFF74CBD844A844B2846FDF73DF8FC
:1034600007460E46824A834B28462146FDF735F82B
:1034700006B03A463346BDE8F04DFCF787BF012061
:10348000FFF758FD06B0BDE8F04DFFF735BD7A48AF
:10349000824542DABAF1795F0BDA2846FFF7AEFCD3
:1034A000042808BFFFF72EFD284606B02146BDE8D8
:1034B000F08D2A460B461046FDF70FF8834602466C
:1034C0006E480E460B4606217844FFF7BBFC5A4671
:1034D0003346FDF702F8804669488A465A46334625
:1034E00004217844FFF7AEFC5A463346FCF7F5FF5B
:1034F00000223B46FCF74AFF02460B464046514637
:10350000FDF75DF82A462346FCF7E7FF06B02A469A
:103510002346BDE8F04DFCF739BF284624F00041B2
:1035200000223D463B46FCF7D5FF4FF0FF32FDF74A
:1035300005FA0646024653480F460B4606217844D4
:10354000FFF780FC32463B46FCF7C7FFCDE90001A0
:103550004D4832463B4604217844FFF773FC32461F
:103560003B46FCF7BAFF00222B46FCF70FFF8346D1
:1035700002913046394602F051FA804643480D46E2
:10358000504517DCDDE900015A46029BFDF717F8AC
:1035900042462B46FCF7A1FF42462B46FCF7F6FEBF
:1035A0000122FDF7CBF9304A304BFCF790FF304A4F
:1035B000304B4CE04FF0000A52460B464046FCF7B9
:1035C000E5FECDE9031052462B4610461946FCF79E
:1035D00084FF32463B46FCF77DFFDDE90332FCF712
:1035E000EEFF06460F46DDE900015A46029BFCF756
:1035F000E6FF83460091012230463946FDF79EF9E9
:10360000194A1A4BFCF766FF06460F460122404650
:103610002946FDF793F95A46009BFCF75EFF3246B8
:103620003B46FCF754FF06460F460122504629460A
:10363000FDF784F90E4DDFF858802A464346FCF723
:1036400049FF32463B46FCF745FF2A464346FCF716
:1036500041FF002CD8BF81F0004106B0BDE8F08DDD
:103660000000F03F0000F07F075C143326A6913C79
:10367000182D4454FB21F93F0000E03FFC310000CD
:1036800012320000863100009C3100003333EF3FDE
:10369000FB21E93F2DE9F84F04460D4621F000409B
:1036A00000917349814211DC7249884201DC06D1E4
:1036B0002CB120462946BDE8F84FFFF718BC6E48EC
:1036C000002DCCBF6D496E49BDE8F88F6D49814230
:1036D00011DD6D498142D8BF4FF0FF366DDD2046C8
:1036E0002946FFF78BFB042808BFFFF70BFC204699
:1036F0002946BDE8F88F6549654F25F000458142B0
:1037000033DD6449814219DD002632464FF08043A3
:1037100020462946FCF73AFE80468A46012220468A
:103720002946FDF70BF900223B46FCF7D0FE424646
:103730005346FCF744FF04460D463EE001260022B6
:10374000BA463B4620462946FCF720FE80460F46F7
:103750000022534620462946FCF7B9FE42463B4626
:10376000FCF72DFF04460D4627E04B4981421BDD47
:10377000DFF828A102260022534620462946FCF7FE
:10378000ACFE00223B46FCF701FE80460F460022BD
:10379000534620462946FCF79AFE42463B46FCF734
:1037A0000EFF04460D4608E0032622462B46002065
:1037B0003B49FCF704FF04460D4622462B461046C3
:1037C0001946FCF78AFE8B46824602460B46FCF7FA
:1037D00084FE07460246334888460B460621784455
:1037E000FFF730FB52465B46FCF777FE82462E48D9
:1037F0008B463A46434605217844FFF723FB3A4679
:103800004346FCF76AFE02460B46002E50465946D8
:103810000CDAFCF7BBFD22462B46FCF75EFE01B03E
:1038200022462B46BDE8F04FFCF754BEFCF7AEFD38
:1038300022462B46FCF751FE1C4A7A4402EBC60393
:10384000D3E90023FCF743FE22462B46FCF73FFE5C
:10385000174A7A4402EBC603D3E90023FCF73AFE89
:10386000009A002AB8BF81F00041BDE8F88F00003F
:10387000000010440000F07F182D4454FB21F93F54
:10388000FB21F9BF0000DC3F0000203E0000F33FB9
:103890000000F03F0000E63F008003400000F83FDA
:1038A0000000F0BF9E2F00005C2F0000FA2E0000E9
:1038B000C22E00002DE9F04D9446CCF1000423F017
:1038C00000464CEA0404524F46EAD4749A468846AD
:1038D00021F00042BC4206D8454240EA050442EAD3
:1038E000D474BC4204D9BDE8F04D6246FFF702BB78
:1038F000AAF14055A5F17F6555EA0C040BD00224CE
:1039000004EAAA74434DDFF810E144EAD87452EA9D
:10391000000B04D00CE0BDE8F04DFFF7BBBE002C5F
:1039200014BF012CBDE8F08D022C30D0032C32D016
:1039300056EA0C0B0AD0BE4220D1BA4209D126F079
:10394000804622F080423346114617E000291ADBF8
:1039500025E0DFF8C8B0FB44002C04BFDBE9000120
:10396000BDE8F08D012C02BFDBE9000181F00041D0
:10397000BDE8F08D022C0AD0032C0CD0BA4212D133
:10398000B8F1000F0BDA23482549BDE8F08D284631
:103990002449BDE8F08D28467146BDE8F08D1D48EC
:1039A0002149BDE8F08D921B12153C2AC4BF19486D
:1039B0001D490EDCBAF1000FBEBF12F13C0F002012
:1039C000014606DB6246FCF7FAFD21F00041FFF7F5
:1039D00061FE002C08BFBDE8F08D012C04BF81F012
:1039E0000041BDE8F08D114A114B022C07D0FCF7C5
:1039F0006EFD2A46BDE8F04D0A4BFCF768BDFCF7AA
:103A000066FD2A46BDE8F04D064BFCF763BD00009D
:103A10000000F07F182D4454FB2109C0562E0000F1
:103A2000FB21F9BFFB210940FB21F93F075C14335F
:103A300026A6A13C08B560B120208DF80000282002
:103A40008DF8010030208DF8020038208DF8030039
:103A500004E0A32204216846FCF7A5FB6A46042182
:103A600040F69E2001F016FF01F0D4FB08BD0000D7
:103A70003EB5044602208DF80000CA208DF80100F2
:103A8000E3208DF8020009208DF803006A46042126
:103A9000682001F0FFFEA3208DF80000610609D523
:103AA000C0218DF80110C8218DF80210C2218DF8B7
:103AB000031005E08DF801008DF802008DF8030079
:103AC00014F4C07F09D0C4218DF80410CC218DF8E6
:103AD0000510C6218DF8061005E08DF804008DF85C
:103AE00005008DF806008DF808008DF807008DF8A8
:103AF00009006A460A2140F6A72001F0CBFEA00784
:103B00004FF0D80503D020208DF8000001E08DF89B
:103B100000506A46012140F6B62001F0BBFEA00627
:103B200001D5012000E0002000F08EF814F4C07FE1
:103B30001ED0E0050AD5B2208DF800008B208DF84C
:103B40000100B6208DF802009B2009E0B0208DF81E
:103B5000000080208DF80100B4208DF80200902034
:103B60008DF803006A46042140F6A22001F092FE7F
:103B7000E1074FF40B6022D0F8218DF800106A465F
:103B8000012101F087FEFA21072000F039FB072010
:103B900000F004FB012000F021FB642000F0C4FBD6
:103BA0004FF4FA7000F0D0FBC821254800F0BEFAAF
:103BB000282000F0D3FA0A2000F0E0FA05E08DF8A2
:103BC00000506A46012101F065FEA00703D5D92007
:103BD0008DF8000001E08DF800506A46012140F2A6
:103BE0003D7001F057FE600701D5012000E0002084
:103BF00000F048F8E00601D5012000E00020FFF7C2
:103C000019FF104D44F00800688101F003FB00200B
:103C1000A873600601D50620A87314F4C07F02D0F3
:103C2000A87B801DA87314F0140F02D0A87B10305D
:103C3000A873A00702D0A87B001DA87300203EBD7A
:103C400009E3CA026C0200200EB54FF4976310B16D
:103C500006A107C901E008A207CA8DE807006A4665
:103C60000921184601F016FE0EBD0000B8AAB38D5A
:103C7000B4980D355D000000B8AAAAAAB088C3C5E3
:103C8000C700000008B560B1C0208DF80000C22058
:103C90008DF80100C4208DF80200C6208DF80300C5
:103CA00004E08B2204216846FCF77DFA6A46042171
:103CB00040F6982001F0EEFD01F0ACFA08BD0000DE
:103CC000C8234FF48062024940F6F63001F084B90F
:103CD000D05A00082DE9FF4F89B01746DDE916528A
:103CE00000244C4E884681462C80A246B07B694613
:103CF00001F01EFA4FF0FF3B18B158460DB0BDE879
:103D0000F08F708910F0140F3CD0009909BA21F09F
:103D1000FF039DF803100B433B6001991B1409BA84
:103D200021F0FF029DF807105B430A437A60029975
:103D30009DF80B4009BA21F0FF012143B960039CB3
:103D4000091424BA24F0FF0C9DF80F4012144CEA19
:103D5000040CC7F80CC04FEA2C47494302FB02325F
:103D600007FB071111441024A1F17061B1F1007F2C
:103D700004D901F04FFAA5F800A0BEE7298841F464
:103D8000807129804206694611D50A19A41D13883D
:103D90005BBAA8F8003053885BBAA8F80230928862
:103DA00052BAA8F804202A8842F008022A8010F4A7
:103DB000C07F11D00A19A41D13885BBAA9F800307E
:103DC00053885BBAA9F80230928852BAA9F8042045
:103DD0002A8842F070022A80800716D00C44E078CE
:103DE00000F0C00500F03F016078C00706D0C808A9
:103DF00001F007013268491C02B190476078000762
:103E000003D5716809B1A80988470C9800F032FE03
:103E1000002073E76C0200202DE9FF41044603A84F
:103E200000F090FFBDF80C00410CC3032F4802893D
:103E300002F00300550754F8200000D54042C2F3B9
:103E4000C105960654F8255000D56D42C2F381167F
:103E5000D20554F8264000D56442A0FB0367C21780
:103E600002FB037200FB0120820042EA9670A5FB70
:103E70000367EA1702FB037205FB0122950045EA7E
:103E80009672A4FB0367E51705FB037304FB01317E
:103E90008B0043EA9671030E8DF80030030C8DF809
:103EA0000130030A8DF802308DF80300100E8DF8F2
:103EB0000400100C8DF80500100A8DF80600080E9D
:103EC0008DF80800080C8DF80900080A8DF80A0022
:103ED0008DF807208DF80B106A460C214FF42570E1
:103EE00001F0D8FC04B0BDE8F08100006C020020B5
:103EF00030B5044613A285B007CA8DE807004FF01D
:103F0000FF35C82C16D8C820B0FBF4F1491E080AAA
:103F10008DF80C008DF80D1003AA022140F2162036
:103F200001F0B8FC30B96A460C2140F6C12001F01E
:103F3000B1FC10B1284605B030BD05488481002091
:103F4000F9E70000FEF2ABC4AAF1DFDFBBAFDFDFB1
:103F50006C020020F8B53049098901F0030250F8DD
:103F600022404A0700D56442C1F3C1028B0650F8D3
:103F7000222000D55242C1F3811350F82330C805E6
:103F800000D55B42254984FB0140850045EA9470D9
:103F900082FB0142A40F44EA820483FB0121950FB6
:103FA00045EA8105010E8DF80010010C8DF8011015
:103FB000010A8DF802108DF803006A4604214FF4BF
:103FC000747001F067FC4FF0FF3688B9200E8DF851
:103FD0000000200C8DF80100200A8DF802008DF8F9
:103FE00003406A4604214FF4757001F053FC08B198
:103FF0003046F8BD280E8DF80000280C8DF8010021
:10400000280A8DF802008DF803506A4604214FF407
:10401000767001F03FFCF8BD6C02002009E3CA0293
:104020002DE9FF4104463CA004F003030068029020
:104030003AA0006803903AA006683AA0056802A872
:10404000C15C8DF80010C4F3C101425C8DF8012001
:10405000C4F38112805C8DF8020003A8C35C8DF864
:104060000430415C8DF80510805C8DF806006A46CE
:10407000032140F2264001F00DFC4FF0FF37E0BB7A
:1040800001AA032140F22A4001F004FCA8BBCDE9BB
:10409000006560070BD59DF8000040F001008DF829
:1040A00000009DF8040040F001008DF80400A00617
:1040B0000BD59DF8010040F001008DF801009DF83E
:1040C000050040F001008DF80500E0050BD59DF8D6
:1040D000020040F001008DF802009DF8060040F05B
:1040E00001008DF806006A4603214FF4886001F054
:1040F000D1FB10B901AA032100E004E040F23140F5
:1041000001F0C8FB18B1384604B0BDE8F08106489C
:1041100004810020F8E700004CCD6C000CC92C0095
:1041200036567600264666006C0200204FF47A72FE
:1041300090FBF2F008B54843010E8DF80010010C19
:104140008DF80110010A8DF802108DF803006A46FF
:1041500004214FF4AE7001F09DFB08BD0521B0FBBA
:10416000F1F008B5010A8DF800108DF801006A46DB
:1041700002214FF4AD7001F08DFB08BD0521B0FBAD
:10418000F1F008B5010A8DF800108DF801006A46BB
:1041900002214FF4AC7001F07DFB08BD08B5002191
:1041A0008DF80010C10702D030218DF80010810772
:1041B00005D59DF8001041F00C018DF80010400766
:1041C00005D59DF8000040F003008DF800006A4618
:1041D00001214FF4A47001F05DFB08BD08B560B18A
:1041E000042800D90420401E8DF800006A460121F1
:1041F00040F24F1001F04EFB08BD0120F3E7000034
:104200002DE9FC41054640074FF0FF367CD0B1F563
:10421000C86F79D80846FCF74AFA3E49FCF76CF8B3
:10422000074601A800F070FD9DF80400022806D0A2
:1042300004280DD008282ED0102865D134E00E2196
:104240003846FCF797F8FCF750FA84B2324907E099
:104250000D213846FCF78EF8FCF747FA2F4984B257
:104260003846FCF717F8FCF740FA210A8DF80010E1
:1042700080B28DF80140010A8DF802108DF803001C
:10428000E8076C4620D0224602214FF4EA7001F084
:1042900001FBC8BB11E00C213846FCF76BF8FCF7BA
:1042A00024FA84B21E49DBE70B213846FCF762F89A
:1042B000FCF71BFA84B21B49D2E7A21C02214FF47F
:1042C000927001F0E7FAF8B9A8070DD56A46022105
:1042D0004FF4EC7001F0DEFAB0B9A21C02214FF4E9
:1042E000947001F0D7FA78B9680710D56A460221B0
:1042F0004FF4EE7001F0CEFA30B9A21C02214FF457
:10430000967001F0C7FA10B13046BDE8FC8100207C
:10431000FBE7000000004843000040460000C045A5
:10432000000040450000C0440521B0FBF1F008B595
:10433000010A8DF800108DF801006A4602214FF441
:10434000EF7001F0A7FA08BD0521B0FBF1F008B548
:10435000010A8DF800108DF801006A4602214FF421
:10436000ED7001F097FA08BD38B504468DF80000ED
:104370000223012269460248FDF7FCFD204638BDB4
:10438000F80100202DE9FE430646264801AB042231
:1043900040680D210078FEF74BF910B10720BDE809
:1043A000FE839DF804101C2000EAD1029DF807103E
:1043B000DFF87490C1F301131A438DF800209DF8C3
:1043C0000520C1F3810300EAD2021A438DF80120CF
:1043D0009DF8062001F0030100EAD2000843002402
:1043E000124F8DF80200A0466D46285D10B146F8C8
:1043F00024900AE046F824800DE000BF56F824001F
:104400003946FBF747FF46F82400285D401E10F0B0
:10441000FF002855F2D1641CE4B2032CE5D3002040
:10442000BDE700008C0000207B14AE3E1D5A843F87
:104430002DE9FE4F05460120C14E8DF800004FF0DA
:1044400000088DF8018030680C461746817C706842
:104450006B4602220078FEF74BF94FF0FF3A002836
:104460007AD1C820FCF7EAFA8DF8008030686B46F4
:104470000122C17B70680078FEF73AF90028EFD17D
:1044800030686B460122417970680078FEF730F998
:104490000028E5D130686B460122817C7068007885
:1044A000FEF726F90028DBD130686B460122C17D7A
:1044B00070680078FEF71CF90028D1D130686B468F
:1044C0000122017970680078FEF712F90028C7D13F
:1044D0004FF00C098DF8009030686B46012201798D
:1044E00070680078FEF704F9002835D10F20FCF73A
:1044F000A5FAB06A6B460122407A8DF80000306858
:10450000817870680078FEF7F3F8002824D1B06A4B
:104510006B460122007A8DF800003068417870689F
:104520000078FEF7E5F8002873D1B06A807A0FB101
:1045300040F0E0008DF8000030686B460122817980
:1045400070680078FEF7D4F8002862D12FB1B06A05
:10455000C07A40F0E00001E04AE018208DF8000049
:1045600030686B460122C17970680078FEF7C0F8A8
:10457000F0BB17B1C820FCF761FA40208DF80000AD
:1045800030686B460122017970680078FEF7B0F858
:1045900070BB78208DF8000030686B4601224179AD
:1045A00070680078FEF7A4F810BB3220FCF746FADA
:1045B0008DF80080306847466B464179706801226B
:1045C0000078FEF795F898B931687068B046897A36
:1045D00000786B460222FEF72BF848B9BDF80000C0
:1045E000AF6040BAB0FBF9F06F60C6B22F6000E078
:1045F0000FE0A76067602760002739E0D8F8001057
:10460000D8F804006B46C97A00780C22FEF710F83F
:1046100010B15046BDE8FE8FBDF80000236840BAD7
:1046200002B2BDF80200BDF804101A44226040BA7C
:10463000626800B21044606049BAA06809B20844D8
:10464000A060BDF806002B6840BA02B2BDF80800B1
:104650001A4440BA01B2BDF80A002A606A6840BA3A
:1046600011446960A96800B208447F1CFFB2A860C9
:10467000B742C3D328688322C117090441EA104115
:1046800000040023FBF74EFD32460023FBF74AFDF2
:10469000286068688322C117090441EA10410004B8
:1046A0000023FBF73FFD32460023FBF73BFD68602C
:1046B000A8688322C117090441EA104100040023BD
:1046C000FBF730FD32460023FBF72CFDA860206885
:1046D0004FF40065C117090441EA104100042A465D
:1046E0000023FBF71FFD32460023FBF71BFD206074
:1046F00060682A46C117090441EA104100040023FA
:10470000FBF710FD32460023FBF70CFD6060A0684C
:104710002A46C117090441EA104100040023FBF7AF
:1047200001FD32460023FBF7FDFCA060002802DDFE
:10473000A0F5803001E000F58030A060002069E73E
:104740008C0000202DE9F84F81462E488846002530
:1047500040686B46032200780D21FDF769FF10B118
:104760000720BDE8F88F9DF80000002400F01F002E
:104770008DF800009DF801006FF00F0B00F01F0096
:104780008DF801009DF802006E4600F01F008DF8C4
:1047900002004FF0010A00BF59F8241058F8240015
:1047A000081A00D54042FBF779FF5946FBF7E2FDB6
:1047B0000746305DC0B1144802E01449FBF76AFDBA
:1047C000315D491E11F0FF013155F6D101463846E1
:1047D000FBF792FD4FF07E51FBF756FD0C4920F0A0
:1047E0000040884205DC07E00A483844B0F1D97F30
:1047F00002D90AFA04F00543641C032CCCDB2846DA
:10480000AFE700008C0000200000C84154E3853F62
:10481000295C0F3E0000E0BE00B5024600F00DF836
:104820000346D01C00F009F843EAC003901D00F0D5
:1048300004F843EA801080B200BD90F9001000290E
:1048400002DD4FF00000704702DA4FF004007047BD
:1048500090F90110002902DD4FF00100704702DAE3
:104860004FF00500704790F90200002802DD4FF07C
:104870000200704702DA4FF0060070474FF0070061
:1048800070470000FCF7A6FCFEF79AF8FDF742FF20
:10489000FDF782FFFEF772F8FDF79EFFFDF7D0FFF0
:1048A000FEF71CF85F48FDF74FF85F48FDF74CF83E
:1048B0005E48FDF749F800215B48FDF757FA0021F3
:1048C0005A48FDF753FA00BFFDF762FE0028FBD1FE
:1048D00057A103E0C820FCF7B1F857A15BA0FEF791
:1048E0007DFA00F0C1F90028F4D15AA157A0FEF7D3
:1048F00075FA5D4A911E881EFDF70EFE5A4A921FF8
:10490000911E881EFDF7A0FD4FF44875564C574E7A
:104910006F42DFF81491DFF814A14FF4805B4FF47D
:104920007A780A3C504A4632111F081F00F0CEF830
:1049300050B94D4A921F911E881EFDF75DFD4A4AEF
:10494000911E881EFDF7C0FD206A2063606A6063C7
:10495000A06AA063E06AE06359463046FCF770F94C
:1049600020624FF400513046FCF76AF9A0624FF420
:1049700080413046FCF764F960624FF400413046F4
:10498000FCF75EF9E062226B216A91420DD061B1C1
:10499000A16A21B1A26B12B1226C521C2264A26BDB
:1049A000114302D1216C491E2164626B616A9142FC
:1049B0000CD059B120B1E16B11B1616C491E616439
:1049C000E16B084302D1606C401C6064B4F90800DC
:1049D000FBF764FE2649FBF78FFCA061024600202E
:1049E000A16CFEF7CDF9FBF767FE6061A84200DB22
:1049F00028466061B84200DC38466061E06000F043
:104A000073FFE068002800DC4042E060404500DBC6
:104A10004046E060D9F800104863DAF800104863B7
:104A200080E700002001002068010020B001002084
:104A30007A6968616F0000004D707536303530203E
:104A4000496E69742057726F6E67210025730D0AD5
:104A5000000000004D70753630353020496E6974A5
:104A6000204F4B210000000032000020000C0140CC
:104A700000000343704700002DE9F041124C20F084
:104A80000101002594F8240010B10020BDE8F08158
:104A9000A07A4FF0FF3668B10840277C2074884226
:104AA00000D0354641B1012000F08CFF00F0B2FB90
:104AB00038B127743046E9E7207D00B1012000F0CD
:104AC00081FF2846E2E700008C0000202DE9F74F27
:104AD0008EB00CA902A8CDE900010BAB03AA09A96D
:104AE00007A8FFF7F7F818B1012011B0BDE8F08F63
:104AF000BDF80800C0057DD50398FBF7CFFD6FF02A
:104B00001D042146FBF736FC82460498FBF7C6FDE0
:104B10002146FBF72FFC81460598FBF7BFFD214698
:104B2000FBF728FC80460698FBF7B8FD2146FBF70B
:104B300021FC054601215046FBF71CFC0646414678
:104B4000FBF7A8FB04464FF040414846FBF7A2FBA9
:104B500007462946FBF79EFB2146FBF743FBFBF785
:104B6000D8FDFEF75FFC4FF0663B5A463D4BFBF726
:104B7000B4FCFBF7E1FD0E99086001214046FBF70C
:104B8000F9FB41460090FBF785FB04463846494651
:104B9000FBF780FB2146FBF777FB4FF07E51FBF7DD
:104BA00021FBFBF7B6FD07460C4630464946FBF7AE
:104BB00071FB064629460098FBF76CFB3146FBF774
:104BC00011FBFBF7A6FD3A462346FEF773FE5A4655
:104BD000244BFBF782FCFBF7AFFD0F9908602946D9
:104BE0000846FBF757FB074641460846FBF752FBD2
:104BF000064600E034E049460846FBF74BFB044616
:104C000051460846FBF746FB2146FBF7EBFA3146D7
:104C1000FBF73AFB3946FBF737FBFBF77AFD064615
:104C20000C4629465046FBF735FB054641464846AB
:104C3000FBF730FB2946FBF7D5FA0121FBF79AFB7E
:104C4000FBF767FD32462346FEF734FE5A46054B16
:104C5000FBF743FCFBF770FD10990860002044E768
:104C6000022042E766A64C4010B500F0F1F888BB80
:104C7000782000F0B3FD10F0FF0F01D0012010BD2F
:104C80007820FFF7F9FE10F0FF0F01D0022010BDD1
:104C9000642000F063FD10F0FF0F01D0032010BD71
:104CA000FFF70EF810F0FF0F01D0042010BD1548DB
:104CB000FFF7B2FDFFF7B4F910F0FF0F01D00520A8
:104CC00010BD40F27310FEF7D3FE10F0FF0F02D0BC
:104CD000062010BD14E06420FFF70AF910F0FF0F62
:104CE00001D00720F5E700F02DFE08B10820F0E71D
:104CF000012000F059FC10F0FF0F01D00920E8E777
:104D00000020E6E7B80000200D494A7A42B1012AA6
:104D100008D0022A0FD0032A0FD04FF0FF3070477F
:104D2000022200E004220270C97C11B11106C90DF3
:104D30000170002070470822F5E71022F3E7000019
:104D40008C0000200F494A7A42B1012A09D0022A78
:104D500011D0032A12D04FF0FF3070474FF4804239
:104D600001E041F69C720280C97C11B1C2F34E0190
:104D70000180002070474FF48052F4E74FF4006246
:104D8000F1E700008C0000200B49097A39B10129B4
:104D900007D002290AD003290BD0002103E0FA2111
:104DA00001E04FF4FA710180002070474FF47A71EE
:104DB000F9E74FF4FA61F6E78C0000200A49097A16
:104DC00041B1012908D002290AD003290AD04FF0A5
:104DD000FF307047054900E0054901600020704739
:104DE0000449FAE70449F8E78C0000200000034377
:104DF0000000834233330342333383410C49C97A81
:104E0000072913D2DFE801F01204060A0C0E100085
:104E1000BC2100E062210180002070472A21FAE7CE
:104E20001421F8E70A21F6E70521F4E70021F2E76B
:104E30008C000020054991F8242012B14FF0FF307A
:104E40007047C98901800020704700008C00002055
:104E50002DE9FC414C4C80208DF8000020686B4609
:104E60000122817C60680078FDF742FC4FF0FF373B
:104E7000002832D16420FBF7E1FD00258DF80050B9
:104E800020686B460122817C60680078FDF730FC69
:104E9000002870D120686B460622817D606800780A
:104EA000FDF7C6FB002866D19DF805009DF80310AC
:104EB000C007400F01F0010140EA41019DF80100E7
:104EC0004FF0010600F00100014309D0012905D08F
:104ED000022915D02DA0FDF781FF4CE0E67410E00B
:104EE00020686B460122C17860680078FDF7A0FB5E
:104EF00040BB9DF8000010F00F0020D0042822D005
:104F0000E574FF2004F80A0F4FF6FF7104F8020C55
:104F100004F8010C6070A180A0712072A670267642
:104F20006576E572A572E56025616561A576E57631
:104F3000A5834FF4FA6000F073FB18B907E01D4831
:104F4000FDF74CFF17E01CA0FDF748FFC6E7022065
:104F500000F088FA78B92A2000F0CAFB58B932204C
:104F600000F0FCFB38B90020FFF786FD18B90020DF
:104F700000F0ACFA10B13846BDE8FC81002000F02A
:104F80002DFC0020F8E700008C000020556E7375A2
:104F900070706F7274656420736F66747761726588
:104FA0002070726F64756374207265762025642E9C
:104FB0000A000000B867000848616C662073656EDF
:104FC0007369746976697479207061727420666F90
:104FD000756E642E0A0000002DE9FF4FDFF8948003
:104FE000064685B098F8250015460F464FF0FF3964
:104FF000B0BBAFB3002420E0301B102800DD102030
:1050000080B283463A1901469246204600F042FC9F
:1050100030BB6A465946204600F0D2F800BB5046E5
:105020005A466946FBF7D1F820B16FF0010009B08C
:10503000BDE8F08F04EB0B0084B2B442DCD3280A45
:105040008DF810008DF81150D8F80000444604ABDC
:10505000817ED8F8040002220078FDF749FB08B1F0
:105060004846E4E7012084F825000898E084002001
:10507000DDE700008C0000202DE9F84305464FF0E5
:10508000FF39282844D80727284C00267DB1012065
:1050900000F0FCFA20208DF800004FF00108012DEF
:1050A00017D0052D18D88DF8018005201FE00020AD
:1050B00000F0ECFA8DF800608DF8017020686B4606
:1050C0000222817C60680078FDF712FB00BB267528
:1050D00029E08DF80160E8E7142D04D802208DF84E
:1050E00001000A2003E003208DF80100142000F0E5
:1050F000FFFA9DF801006B4607EB80108DF8010068
:1051000020680222817C60680078FDF7F1FA10B116
:105110004846BDE8F8830820A072267384F81480FE
:105120000020FFF7A9FC0020F3E700008C0000201E
:105130002DE9F843214C0646174694F82400894689
:105140004FF0FF3890B3A07A80B320686B460222FC
:10515000817A60680078FDF76BFA38BBBDF8000013
:1051600045BAB54202D2002038701FE0606841881D
:10517000B5EB510F11D9216800786B46497C0122AB
:10518000FDF756FA90B99DF80000C00605D500F06D
:1051900041F86FF00100BDE8F8832068F2B24B4699
:1051A000C17A60680078FDF743FA08B14046F2E73B
:1051B000B5FBF6F0401E38700020ECE78C000020B4
:1051C000F8B516000D464FF0FF371FD0104CA17AEE
:1051D000E1B1010A8DF80010C0B28DF8010041194B
:1051E00060684289914211D8216800786B46097E37
:1051F0000222FDF77DFA48B92068EAB23346417DC4
:1052000060680078FDF714FA002800D03846F8BD31
:105210008C000020F8B5564C4FF0FF36A07A0028DD
:105220007DD000258DF8005020686B460122C17B9F
:1052300060680078FDF75CFA002870D120686B4642
:105240000122417960680078FDF752FA002866D1A2
:1052500020686B460122017960680078FDF748FA02
:1052600000285CD194F82400E0B30C208DF80000F5
:1052700020686B460122017960680078FDF738FAF2
:10528000002872D13220FBF7D9FBC0208DF8000036
:10529000A07AC00702D0E0208DF8000020686B469D
:1052A0000122017960680078FDF722FA00285CD1BC
:1052B000607C18B102208DF8000001E08DF80050EC
:1052C00020686B460122C17B60680078FDF710FA08
:1052D00028BB8DF8005020686B4601224179606838
:1052E00000783EE0FFE704208DF8000020686B4660
:1052F0000122017960680078FDF7FAF978B9A07C9D
:1053000090B9A07AC0070FD05FF060008DF8000060
:1053100020686B46012201796068007800E024E093
:10532000FDF7E6F908BB01E04020EFE73220FBF78C
:1053300085FB607C18B101208DF8000001E08DF83C
:10534000005020686B460122C17B60680078FDF741
:10535000CFF950B92068064B0122417960681033BB
:105360000078FDF7C5F9002800D03046F8BD0000F0
:105370008C0000202DE9F047394C82468AB094F821
:1053800024000F4620B1002000F00EF9012600E0B5
:10539000002607A8FFF7F8FC06A8FFF7B5FC09A848
:1053A000FFF72CFD08A8FFF745FD94F80A9094F844
:1053B00010800025002239465046FFF739F810B119
:1053C0006D1C022DF6DB022D1AD00025012203A947
:1053D0006846FFF72DF810B16D1C022DF6DB022D8B
:1053E0000ED003A93846FDF7DDFFC7B26946504627
:1053F000FFF7A8F910F0FF0F4FF0000502D002E010
:10540000002503E001250FB945F00205FF202072B9
:105410006072E0724FF6FF71E181A072207401208A
:105420002073BDF81C0000F0FBF89DF8180000F098
:1054300019F8BDF8240000F05BF9BDF8200000F079
:105440008DF9484600F0CAF94046FFF715FB16B142
:10545000012000F0A9F80AB02846BDE8F087000056
:105460008C00002038B5184C4FF0FF35A17A19B3E5
:10547000022806D0042806D008280ED010281BD1F8
:105480000DE0002000E008208DF80000607A9DF813
:105490000010B0EBD10F04D005E01020F4E7182085
:1054A000F2E7002038BD20686B460122C1796068B0
:1054B0000078FDF71DF908B1284638BD9DF80000B9
:1054C000C0086072EDE700008C000020F8B5354C94
:1054D0000546A07CA84201D10020F8BD31484FF01C
:1054E000FF366B46D0E900104FF0010209790078D1
:1054F00035B3FDF79DF870BB9DF800006B4620F0BA
:1055000020008DF800002068012201796068007891
:10551000FDF7EEF8F8B90320FBF790FA02208DF8BA
:10552000000094F8220078B382202BE020686B46BC
:105530000122017D60680078FDF7DAF858B92EE0A5
:10554000FDF776F838B9A07AC0079DF8000003D0BF
:1055500040F0200002E00CE020F020008DF8000078
:1055600020686B460122017960680078FDF7C0F879
:1055700008B13046F8BD0320FBF760FA94F822002A
:1055800000B180208DF8000094F823000028CDD0D1
:105590009DF8000040F030008DF80000C6E7A574CB
:1055A0009AE700008C00002038B51C4C94F82410B9
:1055B00081421DD0002500B394F82500D0B1002011
:1055C00000F000FA0020FFF781FFE08C00F0C6F841
:1055D0008DF8005060686B46012200782321FDF7AA
:1055E00087F8012084F8240000F0ECF9FFF712FEA0
:1055F000002038BD4FF0FF3038BD002000F0E2F948
:10560000207C8DF8000060686B4601220078232121
:10561000FDF76EF884F82450E8E700008C000020C5
:1056200038B5194C4FF0FF35A17A31B3FA2809D0BB
:10563000B0F5FA7F08D0B0F57A7F0FD0B0F5FA6FE9
:105640001BD10DE0002000E008208DF80000207A3A
:105650009DF80010B0EBD10F04D005E01020F4E766
:105660001820F2E7002038BD20686B4601228179BE
:1056700060680078FDF73CF808B1284638BD9DF811
:105680000000C0082072EDE78C00002038B5174CF0
:10569000054694F82300A84201D1002038BD0DB181
:1056A000302000E000208DF80000A07C28B19DF89B
:1056B000000040F002008DF8000094F8220028B1AC
:1056C0009DF8000040F080008DF8000020686B46D7
:1056D0000122017D60680078FDF70AF810B14FF0F3
:1056E000FF3038BD84F82350D7E700008C0000203D
:1056F00038B5194C4FF0FF35A17A31B3BC2801D32E
:10570000012010E0622801D302200CE02A2801D3F6
:10571000032008E0142801D3042004E00A2801D360
:10572000052000E006208DF80000E07A9DF80010CA
:10573000884201D1002038BD20686B460122817863
:1057400060680078FCF7D4FF08B1284638BD9DF8A2
:105750000000E072EEE700008C000020F8B51E4D5E
:1057600004464FF0FF37A87A48B395F8240030BBC1
:10577000287D4FF47A7648B164B1282C03D8E0B282
:10578000FFF77AFC26E00020FFF776FC042C05D218
:10579000042406E00020FFF76FFCF9E7B44200D9CB
:1057A0003446B6FBF4F0401E8DF8000028686B46C6
:1057B0000122417868680078FCF79AFF08B1384602
:1057C000F8BD9DF80000401CB6FBF0F0E8814008F1
:1057D000FFF78EFF0020F8BD8C000020F8B50546CD
:1057E00010F0700F4FF0000601D0012004E015B159
:1057F0008DF8006002E040208DF80000244C6B46DC
:1058000001222068817C60680078FCF771FF4FF00E
:10581000FF3760BB9DF8000020F0400020738DF83A
:105820000060680602D404208DF80000A80605D4A4
:105830009DF8000040F002008DF80000E80605D455
:105840009DF8000040F001008DF80000280705D405
:105850009DF8000040F038008DF8000020686B468D
:105860000122C17C60680078FCF742FF10B1A6728B
:105870003846F8BD25B1082D02D00020FFF706FFFD
:10588000A57226753220FBF7D9F80020F8BD00007C
:105890008C000020F8B516000D464FF0FF371FD0E2
:1058A000104CA17AE1B1010A8DF80010C0B28DF858
:1058B0000100411960684289914211D8216800783D
:1058C0006B46097E0222FCF713FF48B92068EAB252
:1058D0003346417D60680078FCF70AFF002800D05D
:1058E0003846F8BD8C00002010B5154C002810DD9E
:1058F000002202212046FBF7A8F9012204212046BC
:10590000FBF7A3F9002208212046FBF79EF90122AC
:105910000FE0012202212046FBF797F90022042123
:105920002046FBF792F9012208212046FBF78DF96A
:1059300000222046BDE810401021FBF786B9000088
:105940000008014010B588B0694604A8FFF712FDB1
:10595000032802D0012008B010BD07A8FFF72EFAD7
:105960000498FAF79BFE07990C46FAF793FCFAF7AE
:10597000A3FE04900598FAF791FE2146FAF78AFCF7
:10598000FAF79AFE05900698FAF788FE2146FAF78C
:1059900081FCFAF791FE069004A8FEF7DBFA03A853
:1059A000FFF7D0F9BDF80C0000994143009101992F
:1059B000414301910299414368460291FEF72CFA56
:1059C0000020C8E7F8B5144C0146224694F824603C
:1059D000D2E9000200235D1E56B179B1022111E027
:1059E000C17B10786B460122FCF782FE68B90EE09D
:1059F000A67A56B111B1617C61B902E08DF8003030
:105A0000EEE701218DF80010EAE72846F8BD9DF881
:105A1000000060740020F8BD8C0000202DE9F041EA
:105A200006460F46FAF7B4FF041E0D4618BF0120C4
:105A3000284320F00040C0F17F6000F1E040C00F3B
:105A40000ED0301C18BF0120384320F00040C0F1B8
:105A50007F6000F1E040C00F04BF0120FDF76AFA4B
:105A600020462946BDE8F08100000000000000004B
:105A700001020304060708090000000001020304F4
:105A800075191A0C6A231B1C1F207274433B413882
:105A9000393A6B6C376F06246D6E70006800000435
:105AA00076005401F7FD00018300000000080000AB
:105AB0000001001832000500000020410000D24221
:105AC000295C0F3E9A99993E3333733F295C0F3E10
:105AD000000070000000002400000002000300002D
